:020000040800F2
:10000000000002207D9C0208AD9E0108B19E0108FF
:10001000B59E0108B99E0108BD9E010800000000C0
:10002000000000000000000000000000C19E010868
:10003000C59E010800000000C99E0108DDBF000840
:10004000399D0208399D0208399D0208399D020830
:10005000399D0208399D0208399D0208399D020820
:10006000399D0208399D0208399D0208399D020810
:10007000399D0208399D020849CD0008399D0208C2
:10008000399D020835C90008399D0208399D0208CA
:10009000399D0208399D0208399D0208399D0208E0
:1000A000399D0208399D0208399D02080DB10008EA
:1000B000399D0208399D0208DDB0000841A0000802
:1000C00039A0000851A0000849A00008399D020885
:1000D000399D02081DB10008399D0208399D0208AA
:1000E000399D0208399D0208CD9E0108399D0208FC
:1000F000399D0208399D0208399D0208399D020880
:10010000399D0208399D0208399D0208399D02086F
:10011000399D0208399D0208399D0208399D02085F
:10012000399D0208399D0208399D0208399D02084F
:10013000399D0208399D0208399D0208399D02083F
:10014000399D0208399D0208399D0208119F010856
:10015000399D0208399D0208399D0208399D02081F
:10016000399D0208399D0208399D0208399D02080F
:10017000399D0208399D0208399D0208399D0208FF
:08018000399D0208399D0208B7
:1080000010B540F20834C2F20004237863B940F29C
:108010000000C0F2000028B14CF23070C0F602003F
:10802000AFF300800121217010BD00BF08B540F200
:108030000003C0F200034BB14CF2307040F20C313F
:10804000C0F60200C2F20001AFF3008040F2083037
:10805000C2F20000016829B140F20003C0F200033F
:1080600003B1984708BD00BF00B585B001904FF03F
:1080700001004FF001011AF0BBF84FF4D8530293FE
:108080004FF003038DF80D304FF002038DF80C30E4
:108090004FF000038DF80E304FF000038DF80F30D5
:1080A0004FF00000C4F2020002AB194618F0CCFEFB
:1080B0004FF00000C4F202004FF008014FF00A0236
:1080C00019F02EF84FF00000C4F202004FF0090141
:1080D0004FF00A0219F024F84FF00000C4F2020039
:1080E0004FF00B014FF00A0219F01AF84FF00000A0
:1080F000C4F202004FF00C014FF00A0219F010F820
:108100004FF4806302934FF001038DF80E304FF06F
:1081100001038DF80F304FF003038DF80D304FF051
:108120000000C4F2020002AB194618F08DFE4FF0B9
:108130000000C4F202004FF00A014FF00A0218F0EA
:10814000EFFF4FF480404FF001011AF0E9F84FF0D3
:1081500080004FF001011AF071F84FF080504FF09D
:1081600001011AF075F905B000BD00BF00B585B07A
:1081700001904FF4C06017F0D1FA4FF043038DF82F
:108180000C304FF001038DF80D304FF003038DF8E4
:108190000E304FF001038DF80F3003AB184617F087
:1081A000CBFA05B000BD00BF84B001904FF00003D2
:1081B0000393019A13464FEA03139B1A4FEAC30332
:1081C0001A4644F62513C2F29243A3FB0213D21AB5
:1081D0004FEA52029B184FEA9303029300E000BF5C
:1081E000039B03F101030393039A029B9A42F6D97E
:1081F00000BF04B0704700BF00B583B00190019B81
:108200004FF47A7202FB03F31846FFF7CDFF03B079
:1082100000BD00BF40F29043C2F200034FF00002E5
:108220001A6040F29443C2F200034FF000021A6059
:108230004FF00003184670474FF000031846704790
:1082400084B0039002910192039B232B4AD801A290
:1082500052F823F0E5820008E5820008E582000874
:10826000E5820008E5820008E5820008E582000852
:10827000E5820008E5820008E5820008E582000842
:10828000E5820008E5820008E5820008E582000832
:10829000E5820008E5820008E5820008E582000822
:1082A000E5820008E5820008E5820008E582000812
:1082B000E5820008E5820008E5820008E582000802
:1082C000E5820008E5820008E5820008E5820008F2
:1082D000E5820008E5820008E5820008E5820008E2
:1082E000E582000800BF4FF00003184604B0704755
:1082F00084B0019000914FF0000303932CE040F212
:108300007843C2F200031A680199039BCB181978CD
:1083100043F20013C2F20003995440F27843C2F2D0
:1083200000031B6803F1010240F27843C2F200032C
:108330001A6040F27843C2F200031B68B3F5006F85
:1083400006D140F27843C2F200034FF000021A60F7
:10835000039B03F101030393039A009B9A42CED33C
:108360004FF00003184604B0704700BF84B001907E
:1083700000914FF00003039337E040F29043C2F2C4
:1083800000031A680199039BCB18197840F29843AF
:10839000C2F20003995440F29043C2F200031B68FA
:1083A00003F1010240F29043C2F200031A6040F26E
:1083B0009043C2F200031B68632B06DD40F290433A
:1083C000C2F200034FF000021A6040F29043C2F282
:1083D00000031A6840F29843C2F200034FF0000114
:1083E0009954039B03F101030393039A009B9A4260
:1083F000C3D34FF00003184604B0704740F29443D3
:10840000C2F200031A6840F29043C2F200031B68F4
:108410009A4202D04FF0FF0301E04FF000035BB23D
:108420001846704782B040F29443C2F200031A68C3
:1084300040F29043C2F200031B689A420CD040F213
:108440009443C2F200031A6840F29843C2F2000358
:108450009B5C8DF8073003E04FF000038DF8073088
:108460009DF807305BB2184602B0704782B040F208
:108470009443C2F200031A6840F29043C2F2000330
:108480001B689A4226D040F29443C2F200031A6855
:1084900040F29843C2F200039B5C8DF8073040F233
:1084A0009443C2F200031B6803F1010240F29443BB
:1084B000C2F200031A6040F29443C2F200031B6848
:1084C000632B0BDD40F29443C2F200034FF0000235
:1084D0001A6003E04FF000038DF807309DF8073075
:1084E0005BB2184602B0704708B500BFFFF786FFC1
:1084F0000346002BFAD0FFF7B9FF0346184608BD24
:1085000082B0034600918DF80730009B4FF01202B5
:108510001A8040F23003C2F20003184602B07047DE
:1085200082B0034600918DF80730009B4FF00402A3
:108530001A8040F25003C2F20003184602B070479E
:1085400000B583B0034600918DF807309DF80730E1
:10855000002B0BD149F63C50C0F6020043F240011B
:10856000C2F20001009A16F021FD0AE049F66050BF
:10857000C0F6020043F24001C2F20001009A16F078
:1085800015FD43F24003C2F20003184603B000BDDC
:1085900000B583B0034600918DF8073049F684504A
:1085A000C0F6020043F24001C2F20001009A16F048
:1085B000FDFC43F24003C2F20003184603B000BDC5
:1085C00000B583B0034600918DF807309DF8073061
:1085D000002B0BD149F69850C0F6020043F240013F
:1085E000C2F20001009A16F0E1FC0AE049F6A85038
:1085F000C0F6020043F24001C2F20001009A16F0F8
:10860000D5FC43F24003C2F20003184603B000BD9C
:1086100000B583B0034600918DF807309DF8073010
:10862000002B0BD149F6B850C0F6020043F24001CE
:10863000C2F20001009A16F0B9FC0AE049F6B850FF
:10864000C0F6020043F24001C2F20001009A16F0A7
:10865000ADFC43F24003C2F20003184603B000BD74
:1086600000B583B0034600918DF807309DF80730C0
:10867000002B0BD149F6C450C0F6020043F2400172
:10868000C2F20001009A16F091FC0AE049F6C450CB
:10869000C0F6020043F24001C2F20001009A16F057
:1086A00085FC43F24003C2F20003184603B000BD4C
:1086B000704700BF82B003468DF8073002B07047A4
:1086C00040F2F033C2F200034FF001021A7070471B
:1086D00040F2F033C2F200034FF000021A7070470C
:1086E00040F2F033C2F200034FF001021A707047FB
:1086F000704700BF704700BF00B585B002AB009364
:108700004FF4A840C4F200004FF01E014FF00302E6
:108710004FF0060301F0B8FD9DF8082040F2FC433D
:10872000C2F20003DA709DF8092040F2FC43C2F265
:1087300000039A709DF80A2040F2FC43C2F2000345
:108740005A719DF80B2040F2FC43C2F200031A71EB
:108750009DF80C2040F2FC43C2F200035A709DF8D1
:108760000D2040F2FC43C2F200031A7040F2FC43B9
:10877000C2F200031B881BB213F5805F11D040F2D8
:10878000FC43C2F200035B881BB213F5805F08D084
:1087900040F2FC43C2F200039B881BB213F5805FDA
:1087A00002D14FF0000301E04FF00103184605B07D
:1087B00000BD00BF00B585B04FF000038DF80C3050
:1087C0004FF4A840C4F200004FF01E014FF0000229
:1087D0004FF0790301F03CFD4FF0320003F068FFE9
:1087E0004FF4A840C4F200004FF01E014FF0010208
:1087F0004FF0200301F02CFD4FF0140003F058FF60
:1088000040F20453C2F200037D4A1A6040F204535E
:10881000C2F200037A4A5A6040F20453C2F20003E3
:10882000774A9A604FF000038DF80F3080E04FF4E4
:10883000A840C4F200004FF01E014FF002024FF0BA
:10884000010301F005FD4FF0140003F031FF0DE0CE
:1088500003AB00934FF4A840C4F200004FF01E0198
:108860004FF009024FF0010301F00EFD9DF80C30AE
:1088700003F00103002BEBD0FFF73EFF40F204535F
:10888000C2F2000393ED007A40F2FC43C2F200030F
:108890001B881BB206EE903AF8EEE67ADFED566AD8
:1088A000C6EEA77A77EE277A40F20453C2F20003AD
:1088B000C3ED007A40F20453C2F2000393ED017A53
:1088C00040F2FC43C2F200035B881BB206EE903A12
:1088D000F8EEE67ADFED486AC6EEA77A77EE277AF9
:1088E00040F20453C2F20003C3ED017A40F2045394
:1088F000C2F2000393ED027A40F2FC43C2F200039D
:108900009B881BB206EE903AF8EEE67ADFED3B6A02
:10891000C6EEA77A77EE277A40F20453C2F200033C
:10892000C3ED027A9DF80F3003F101038DF80F308B
:108930009DF80F30092B7FF67AAF40F20453C2F254
:10894000000393ED007AF2EE047AC7EE277AF0EE98
:10895000E77A40F20453C2F20003C3ED007A40F21A
:108960000453C2F2000393ED017AF2EE047AC7EEEB
:10897000277AF0EEE77A40F20453C2F20003C3ED27
:10898000017A40F20453C2F2000393ED027AF2EE50
:10899000047AC7EE277AF0EEE77A40F20453C2F287
:1089A0000003C3ED027A4FF4A840C4F200004FF078
:1089B0001E014FF000024FF0780301F049FC4FF028
:1089C000320003F075FE4FF4A840C4F200004FF0EF
:1089D0001E014FF002024FF0000301F039FC4FF08E
:1089E000140003F065FEFFF787FE4FF0140003F05C
:1089F0005FFE05B000BD00BFCD0C9E4467269344CA
:108A00000000000008B54FF48060C4F202004FF48B
:108A1000807118F047FB4FF47050C4F200004FF023
:108A20006B0103F069F94FF47050C4F200004FF08D
:108A3000800103F061F94FF48060C4F202004FF44A
:108A4000807118F023FB4FF0960003F031FE4FF4D5
:108A50008060C4F202004FF4807118F023FB4FF4E1
:108A60007050C4F200004FF06B0103F045F94FF471
:108A70007050C4F200004FF0030103F03DF94FF4D1
:108A80008060C4F202004FF4807118F0FFFA4FF0DA
:108A9000010003F0D3FD4FF48060C4F202004FF4F4
:108AA000807118F0FFFA4FF47050C4F200004FF0DC
:108AB0006A0103F021F94FF47050C4F200004FF046
:108AC000100103F019F94FF48060C4F202004FF472
:108AD000807118F0DBFA4FF0010003F0AFFD4FF4A6
:108AE0008060C4F202004FF4807118F0DBFA4FF49A
:108AF0007050C4F200004FF06C0103F0FDF84FF429
:108B00007050C4F200004FF0000103F0F5F84FF48C
:108B10008060C4F202004FF4807118F0B7FA4FF091
:108B2000010003F08BFD4FF48060C4F202004FF4AB
:108B3000807118F0B7FA4FF47050C4F200004FF093
:108B4000190103F0D9F84FF47050C4F200004FF04F
:108B5000000103F0D1F84FF48060C4F202004FF43A
:108B6000807118F093FA4FF0010003F067FD4FF4A5
:108B70008060C4F202004FF4807118F093FA4FF451
:108B80007050C4F200004FF01A0103F0B5F842F63D
:108B9000EC53C2F2000393F854304FF47050C4F217
:108BA0000000194603F0A8F84FF48060C4F20200F8
:108BB0004FF4807118F06AFA4FF0010003F03EFDA7
:108BC0004FF48060C4F202004FF4807118F06AFA2A
:108BD0004FF47050C4F200004FF01C0103F08CF809
:108BE0004FF47050C4F200004FF0080103F084F815
:108BF0004FF48060C4F202004FF4807118F046FA1E
:108C00004FF0010003F01AFD4FF48060C4F202003F
:108C10004FF4807118F046FA4FF47050C4F200001F
:108C20004FF01B0103F068F84FF47050C4F20000DD
:108C30004FF0100103F060F84FF48060C4F20200BE
:108C40004FF4807118F022FA4FF47050C4F2000013
:108C50004FF0020103F0A4F84FF0640003F028FD88
:108C600000F0EEF808BD00BF08B54FF48060C4F214
:108C700002004FF4807118F015FA4FF47050C4F2EE
:108C800000004FF0BB0103F037F84FF47050C4F20E
:108C900000004FF0000103F02FF803461A4640F29F
:108CA0002053C2F200035A704FF47050C4F2000017
:108CB0004FF0000103F020F803461A4640F220531B
:108CC000C2F200031A704FF47050C4F200004FF06B
:108CD000000103F011F803461A4640F22053C2F295
:108CE0000003DA704FF47050C4F200004FF000013E
:108CF00003F002F803461A4640F22053C2F2000382
:108D00009A704FF47050C4F200004FF0000102F06E
:108D1000F3FF03461A4640F22053C2F200035A7191
:108D20004FF47050C4F200004FF0000102F0E4FF75
:108D300003461A4640F22053C2F200031A714FF460
:108D40007050C4F200004FF0000102F0D5FF03465E
:108D50001A4640F21053C2F200035A704FF470509A
:108D6000C4F200004FF0000102F0C6FF03461A46AD
:108D700040F21053C2F200031A704FF47050C4F264
:108D800000004FF0000102F0B7FF03461A4640F220
:108D90005053C2F200035A704FF47050C4F20000F6
:108DA0004FF0000102F0A8FF03461A4640F250536C
:108DB000C2F200031A704FF47050C4F200004FF07A
:108DC000000102F099FF03461A4640F25053C2F2E6
:108DD0000003DA704FF47050C4F200004FF000014D
:108DE00002F08AFF03461A4640F25053C2F20003D3
:108DF0009A704FF47050C4F200004FF0000102F07E
:108E00007BFF03461A4640F25053C2F200035A71E8
:108E10004FF47050C4F200004FF0000102F06CFFFC
:108E200003461A4640F25053C2F200031A714FF43F
:108E30008060C4F202004FF4807118F027F908BD79
:108E400000B589B09A4B0493994B0593984B0693C0
:108E5000974B0193964B0293954B039340F25833F3
:108E6000C2F200034FF001021A704FF00003ADF898
:108E70001C309DE0FFF7F8FE00F01CF99DED047A30
:108E800040F22053C2F200031B881BB207EE903A57
:108E9000F8EEE76A40F24033C2F20003D3ED007A05
:108EA00076EEE77A77EE277ACDED047A9DED057AB6
:108EB00040F22053C2F200035B881BB207EE903AE7
:108EC000F8EEE76A40F24033C2F20003D3ED017AD4
:108ED00076EEE77A77EE277ACDED057A9DED067A84
:108EE00040F22053C2F200039B881BB207EE903A77
:108EF000F8EEE76A40F24033C2F20003D3ED027AA3
:108F000076EEE77A77EE277ACDED067A9DED017A57
:108F100040F25053C2F200031B881BB207EE903A96
:108F2000F8EEE76A40F21453C2F20003D3ED007A80
:108F300076EEE77A77EE277ACDED017A9DED027A2B
:108F400040F25053C2F200035B881BB207EE903A26
:108F5000F8EEE76A40F21453C2F20003D3ED017A4F
:108F600076EEE77A77EE277ACDED027A9DED037AF9
:108F700040F25053C2F200039B881BB207EE903AB6
:108F8000F8EEE76A40F21453C2F20003D3ED027A1E
:108F900076EEE77A77EE277ACDED037A4FF47A70A2
:108FA00003F04CFBBDF81C3003F10103ADF81C309D
:108FB000BDF81C2041F287339A427FF65BAF4FF039
:108FC00000038DF81F3036E09DF81F209DF81F30FC
:108FD0004FEA830308A9CB1813ED047ADFED327A48
:108FE000C7EE277A9FED317A67EE877A4FEA8203E0
:108FF00008AAD31843ED047A9DF81F209DF81F306E
:109000004FEA830308A9CB18A3F11C0393ED007A60
:10901000DFED257AC7EE277A40F23853C2F200031B
:109020004FEA82029B18C3ED007A9DF81F3003F1CE
:1090300001038DF81F309DF81F30022BC4D99DED20
:10904000047ADDED047A27EE277ADDED056ADDEDA1
:10905000057A66EEA77A37EE277ADDED066ADDED52
:10906000067A66EEA77A77EE277A17EE900A1FF057
:10907000C3FD02460B46104619461CF055FE02463B
:109080000B461046194620F0A5F8024640F2700340
:10909000C2F200031A6040F25833C2F200034FF0EC
:1090A00000021A7009B000BD00409C4557E79C3A89
:1090B0000000000040F21053C2F200031B881BB2F4
:1090C00007EE903AB8EEE77ADFED5B7AC7EE277AE3
:1090D0009FED5A7A77EE877A40F22853C2F2000366
:1090E000C3ED007A42F6EC53C2F2000393ED017A2D
:1090F00040F22853C2F20003D3ED007A67EE277ADC
:1091000042F6EC53C2F2000393ED047A77EE877ACD
:1091100040F24033C2F20003C3ED007A42F6EC5352
:10912000C2F2000393ED027A40F22853C2F2000328
:10913000D3ED007A67EE277A42F6EC53C2F20003D1
:1091400093ED057A77EE877A40F24033C2F200035E
:10915000C3ED017A42F6EC53C2F2000393ED037AB9
:1091600040F22853C2F20003D3ED007A67EE277A6B
:1091700042F6EC53C2F2000393ED067A77EE877A5B
:1091800040F24033C2F20003C3ED027A42F6EC53E0
:10919000C2F2000393ED077A40F22853C2F20003B3
:1091A000D3ED007A67EE277A42F6EC53C2F2000361
:1091B00093ED0A7A77EE877A40F21453C2F20003F5
:1091C000C3ED007A42F6EC53C2F2000393ED087A45
:1091D00040F22853C2F20003D3ED007A67EE277AFB
:1091E00042F6EC53C2F2000393ED0B7A77EE877AE6
:1091F00040F21453C2F20003C3ED017A42F6EC537D
:10920000C2F2000393ED097A40F22853C2F2000340
:10921000D3ED007A67EE277A42F6EC53C2F20003F0
:1092200093ED0C7A77EE877A40F21453C2F2000382
:10923000C3ED027A704700BF0000AA4300000C4251
:1092400000B585B003AB00934FF4A840C4F2000012
:109250004FF076014FF000024FF0030301F014F8D5
:109260009DF80C2040F29053C2F200039A709DF8D2
:109270000D2040F29053C2F200035A709DF80E2068
:1092800040F29053C2F200031A704FF4A840C4F2A7
:1092900000004FF076014FF0FF024FF0480300F05E
:1092A000D7FF05B000BD00BF00B585B003AB00938C
:1092B0004FF4A840C4F200004FF076014FF00002D6
:1092C0004FF0030300F0E0FF9DF80C2040F27853CC
:1092D000C2F200039A709DF80D2040F27853C2F25A
:1092E00000035A709DF80E2040F27853C2F200033A
:1092F0001A704FF4A840C4F200004FF076014FF00E
:10930000FF024FF0480300F0A3FF05B000BD00BF0F
:1093100000B585B003AB00934FF4A840C4F2000041
:109320004FF076014FF000024FF0030300F0ACFF66
:109330009DF80C2040F27853C2F200039A709DF819
:109340000D2040F27853C2F200035A709DF80E20AF
:1093500040F27853C2F200031A704FF4A840C4F2EE
:1093600000004FF076014FF0FF024FF0580300F07D
:109370006FFF05B000BD00BF2DE9F00340F2905330
:10938000C2F200031A6840F28853C2F200031B883D
:109390004FEA0323D31A1A4640F27453C2F2000371
:1093A0001A6040F27453C2F200031B681E464FEA73
:1093B000E67740F26C53C2F200031B889CB24FF078
:1093C000000504FB07F206FB05F3D118A6FB0423F6
:1093D000C9180B464FEA43214FEAD25841EA080820
:1093E0004FEAE359434603F5FA6240F28453C2F26E
:1093F00000031A60BDE8F003704700BF2DE9F04F8D
:1094000085B040F27C53C2F200031B884FEA03434D
:1094100002934FF00000039040F27053C2F2000339
:109420001B889CB24FF0000540F27453C2F2000357
:1094300019680A464FEAE27302FB05F004FB03F1E8
:109440004118A4FB0223C9180B464FEA43614FEAB7
:10945000D2160E434FEAE317DDE90201801941EB12
:10946000070140F2A053C2F20003C3E9000140F239
:109470008C53C2F200031B884FEAC3331E464FF0E1
:10948000000740F2A853C2F200031B889CB24FF0C1
:10949000000540F27453C2F2000319680A464FEA0D
:1094A000E27302FB05F004FB03F14118A4FB022365
:1094B000C9180B464FEA03614FEA122841EA08082F
:1094C0004FEA23293046394610EB080041EB0901E9
:1094D00040F29853C2F20003C3E9000140F2805306
:1094E000C2F200031B681C464FF0000540F298537F
:1094F000C2F20003D3E9002302FB05F004FB03F1F1
:109500004118A4FB0223C9180B464FEAC3214FEAB6
:10951000525000900098084300904FEA6351019127
:1095200040F2A053C2F20003D3E90023DDE90001B9
:10953000821A61EB03034FEA43414FEAD23A41EA10
:109540000A0A4FEAE33B524640F26853C2F2000374
:109550001A6040F26853C2F200031B6807EE903AAB
:10956000B8EEE77ADFED1E7AC7EE277A17EE900A9B
:109570001FF042FB02460B461046194612A3D3E9E0
:1095800000231CF037FA02460B4611A1D1E9000175
:109590001FF0D2F902460B46104619460EA3D3E936
:1095A00000231FF07DFB02460B46104619461FF0B4
:1095B00011FE024642F6AC53C2F20003DA6305B074
:1095C000BDE8F08FAFF3008000000020965BC83F3D
:1095D000000000000000F03F0000000040A5E54052
:1095E00080E6C54700B585B04FF4A840C4F200003E
:1095F0004FF076014FF0FF024FF01E0300F028FEFF
:109600004FF00A0003F054F803AB00934FF4A84066
:10961000C4F200004FF076014FF0A2024FF00203B7
:1096200000F032FE9DF80C2040F28C53C2F2000391
:109630005A709DF80D2040F28C53C2F200031A704C
:1096400003AB00934FF4A840C4F200004FF0760142
:109650004FF0A4024FF0020300F016FE9DF80C201C
:1096600040F27C53C2F200035A709DF80D2040F284
:109670007C53C2F200031A7003AB00934FF4A8406E
:10968000C4F200004FF076014FF0A6024FF0020343
:1096900000F0FAFD9DF80C2040F2A853C2F200033E
:1096A0005A709DF80D2040F2A853C2F200031A70C0
:1096B00003AB00934FF4A840C4F200004FF07601D2
:1096C0004FF0A8024FF0020300F0DEFD9DF80C20E1
:1096D00040F27053C2F200035A709DF80D2040F220
:1096E0007053C2F200031A7003AB00934FF4A8400A
:1096F000C4F200004FF076014FF0AA024FF00203CF
:1097000000F0C2FD9DF80C2040F28853C2F2000325
:109710005A709DF80D2040F28853C2F200031A706F
:1097200003AB00934FF4A840C4F200004FF0760161
:109730004FF0AC024FF0020300F0A6FD9DF80C20A4
:1097400040F26C53C2F200035A709DF80D2040F2B3
:109750006C53C2F200031A704FF4A840C4F2000028
:109760004FF076014FF0FF024FF0580300F070FD0C
:109770004FF00A0002F09CFFFFF762FD4FF00A0075
:1097800002F096FF05B000BD00B583B040F264332F
:10979000C2F200031B689B8A9BB20193019B03F4F6
:1097A000E063002B6FD040F26433C2F200031B6809
:1097B0001B8B9BB2009340F26433C2F200031B6820
:1097C00018464FF480614FF0000218F0BBF8019B7F
:1097D00003F40073002B56D140F26433C2F200034D
:1097E0001B681B889BB203F40073002B4BD140F223
:1097F0006433C2F200031B681B889BB203F48073BE
:10980000002B2AD000BF40F26433C2F200031B6871
:109810001B889BB203F48073002BF4D140F26433B5
:10982000C2F200031B6818464FF0010117F05CFEFE
:1098300000BF40F26433C2F200031B681B889BB276
:1098400003F40073002BF4D140F26433C2F200033E
:109850001B68184600F018FF15E040F26433C2F2AE
:1098600000031B6818464FF0010117F03DFE40F25F
:109870006433C2F200031B6818464FF440714FF086
:10988000000218F05FF840F26433C2F200031A6875
:1098900040F26433C2F200031B689B8A9BB223F43C
:1098A00070639BB2938240F26C33C2F200034FF0BC
:1098B00000021A7003B000BD30B583B040F26433CB
:1098C000C2F200031B689B8A9BB28DF807309DF89B
:1098D000073003F00103DBB2002B00F08B8040F275
:1098E0006433C2F200031A6840F26433C2F2000328
:1098F0001B681B889BB223F400639BB2138040F269
:109900006433C2F200031B6818464FF0010117F0E0
:1099100027FE40F27C33C2F200034FF000021A70BF
:1099200040F27133C2F200031B78DBB2002B3FD050
:1099300040F27D33C2F200031B78002B07D140F2C6
:109940006E33C2F200031B78DBB2FF2B30D140F242
:109950007D33C2F200034FF001021A7040F26F3300
:10996000C2F200031B78DBB2022B0FD140F264334A
:10997000C2F200031A6840F26433C2F200031B68AB
:109980001B889BB243F400639BB2138040F26433A4
:10999000C2F200031A6840F26D33C2F200031B7872
:1099A000DBB2104619464FF0010217F0B9FD10E383
:1099B00040F26433C2F200031A6840F26D33C2F21F
:1099C00000031B78DBB2104619464FF0000217F077
:1099D000A7FD40F26E33C2F200031B78DBB2FF2B0F
:1099E00000F0F68240F27C33C2F200034FF0FF0237
:1099F0001A70EDE29DF8073003F00203002B00F02F
:109A0000B880BFF35F8F40F26F33C2F200031B7860
:109A1000DBB2012B42D140F27133C2F200031B785A
:109A2000DBB2002B3AD040F27D33C2F200031B7848
:109A3000002B33D040F26433C2F200031B68184697
:109A40004FF0000117F08CFDBFF35F8F40F26433DD
:109A5000C2F200031B681B8B9BB2DBB28DF8063091
:109A600040F26433C2F200031B6818464FF0010154
:109A700017F03AFD40F27E33C2F200034FF00102CC
:109A80001A7040F26433C2F200031B6818464FF4A8
:109A900080614FF0010217F055FF9AE240F2643303
:109AA000C2F200031B681B8B9BB2DBB28DF8063041
:109AB000BFF35F8F40F26F33C2F200031B78DBB25B
:109AC000022B25D140F27133C2F200031B78DBB2C6
:109AD000002B1DD040F27D33C2F200031B78002B17
:109AE00016D040F26433C2F200031B6818464FF0F0
:109AF000000117F035FD40F26433C2F200031B6829
:109B000018464FF480614FF0000217F01BFF60E22F
:109B100040F26F33C2F200031B78DBB2032B1BD180
:109B200040F27133C2F200031B78DBB2002B13D07A
:109B300040F27D33C2F200031B78002B0CD040F2C0
:109B40006433C2F200031B6818464FF480614FF083
:109B5000000217F0F7FE3CE240F26433C2F2000369
:109B60001B6818464FF480614FF0010217F0EAFEBF
:109B70002FE29DF8073003F00403002B00F046812C
:109B800040F27E33C2F200034FF001021A7040F23D
:109B90007133C2F200031B78DBB2002B00F0DE80D1
:109BA00040F27D33C2F200031B78002B00F0D68018
:109BB00040F26F33C2F200031B78DBB2022B65D98F
:109BC00040F26433C2F200031B6818464FF00001F4
:109BD00017F0C6FC40F27833C2F200031A6840F274
:109BE0007C33C2F200031C7863B2D51840F26433B0
:109BF000C2F200031B68184617F0EAFD03462B70FB
:109C0000234603F10103DAB240F27C33C2F20003CF
:109C10001A7040F26433C2F200031B6818464FF01A
:109C2000010117F061FC40F27E33C2F200034FF0F5
:109C300001021A7040F27833C2F200031A6840F24F
:109C40007C33C2F200031C7863B2D51840F264334F
:109C5000C2F200031B68184617F0BAFD03462B70CA
:109C6000234603F10103DAB240F27C33C2F200036F
:109C70001A7040F26433C2F200031B6818464FF4B6
:109C800080614FF0010217F05DFEB2E040F27E33DA
:109C9000C2F200031B78002B0AD040F26433C2F2F8
:109CA00000031B6818464FF0010117F01DFC09E086
:109CB00040F26433C2F200031B6818464FF0010102
:109CC00017F0F6FB40F27833C2F200031A6840F254
:109CD0007C33C2F200031C7863B2D51840F26433BF
:109CE000C2F200031B68184617F072FD03462B7082
:109CF000234603F10103DAB240F27C33C2F20003DF
:109D00001A7040F27833C2F200031A6840F27C33D2
:109D1000C2F200031C7863B2D51840F26433C2F279
:109D200000031B68184617F053FD03462B702346AB
:109D300003F10103DAB240F27C33C2F200031A707D
:109D400040F27C33C2F200031B7803F10103DAB264
:109D500040F27C33C2F200031A704AE040F27D33D5
:109D6000C2F200031B78002B07D140F27033C2F21D
:109D700000031B78DBB2002B29D040F27E33C2F205
:109D800000031B78002B0AD040F26433C2F20003B8
:109D90001B6818464FF0010117F0A6FB09E040F2DE
:109DA0006433C2F200031B6818464FF0010117F03C
:109DB0007FFB40F27C33C2F200031B7803F1010306
:109DC000DAB240F27C33C2F200031A7011E040F2C2
:109DD0006433C2F200031B6818464FF0010117F00C
:109DE00067FB40F27D33C2F200034FF001021A70AC
:109DF000FFE700BF40F26433C2F200031B681B8818
:109E00009BB203F48073002BF4D1E2E09DF807309D
:109E100003F04003002B59D040F27833C2F2000324
:109E20001A6840F27C33C2F200031C7863B2D51882
:109E300040F26433C2F200031B68184617F0C8FCF6
:109E400003462B70234603F10103DAB240F27C3360
:109E5000C2F200031A7040F26F33C2F200031B78A3
:109E6000DBB21A4640F27C33C2F200031B785BB2CD
:109E700003F103039A420BD140F26433C2F20003B0
:109E80001B6818464FF480614FF0000217F05AFD2E
:109E900040F26F33C2F200031B78DBB21A4640F285
:109EA0007C33C2F200031B785BB29A4240F091808F
:109EB00040F27C33C2F200031B7803F10103DAB2F3
:109EC00040F27C33C2F200031A7082E09DF8073042
:109ED0005BB2002B7DDA40F27C33C2F200031B78C8
:109EE0005BB2B3F1FF3F3AD040F26433C2F20003F9
:109EF000196840F27433C2F20003186840F27C33F0
:109F0000C2F200031B785AB282181278D2B203F15F
:109F10000103D8B240F27C33C2F200031870084645
:109F2000114617F049FC40F26F33C2F200031B7870
:109F3000DBB21A4640F27C33C2F200031B785BB2FC
:109F40009A4246D140F26433C2F200031B681846BD
:109F50004FF480614FF0000217F0F4FC39E040F25A
:109F60007C33C2F200031B7803F10103DAB240F242
:109F70007C33C2F200031A7040F26433C2F2000371
:109F80001A6840F26E33C2F200031B78DBB210464F
:109F9000194617F011FC40F27133C2F200031B782E
:109FA000DBB2002B07D140F26F33C2F200031B7803
:109FB000DBB2002B0DD140F26433C2F200031B6808
:109FC00018464FF480614FF0000217F0BBFC00E030
:109FD00000BF40F27C33C2F200031B785AB240F259
:109FE0006F33C2F200031B78DBB203F101039A4224
:109FF00020D140F27D33C2F200034FF000021A700C
:10A0000040F27E33C2F200031B78002B0BD040F2EB
:10A010006433C2F200031B6818464FF440714FF0DE
:10A02000000217F08FFC40F26C33C2F200034FF0D5
:10A0300000021A7003B030BD08B5FFF7A5FB08BDDC
:10A0400008B5FFF739FC08BD08B5FFF79DFB08BD53
:10A0500008B5FFF731FC08BD00B589B001908DF857
:10A0600003108DF802208DF8013047F2305306932B
:10A0700040F26433C2F20003019A1A609DF8033083
:10A080004FEA4303DAB240F26D33C2F200031A70B2
:10A0900040F26E33C2F200039DF802201A7040F2C3
:10A0A0007033C2F200034FF001021A7040F27133B4
:10A0B000C2F200034FF000021A7040F27433C2F291
:10A0C000000302AA1A6040F27833C2F2000302AA27
:10A0D0001A6040F26F33C2F200039DF801201A703B
:10A0E00040F26C33C2F200034FF001021A709DF887
:10A0F0000130102B02D94FF00003A5E04FF0000310
:10A100008DF81F3010E09DF81F309DF81F200A9930
:10A110008A18127808A9CB1803F8182C9DF81F305C
:10A1200003F101038DF81F309DF81F209DF80130C9
:10A130009A42E8D340F26433C2F200031B689B8862
:10A140009BB203F40073002B2CD140F26433C2F2B3
:10A1500000031B681B889BB203F48073002B15D18E
:10A1600000BF40F26433C2F200031B681B889BB23D
:10A1700003F40073002BF4D140F26433C2F2000305
:10A180001B6818464FF0010117F092F940F2643352
:10A19000C2F200031B6818464FF440714FF00102F1
:10A1A00017F0D0FB00BF40F26C33C2F200031B7803
:10A1B000DBB2002B06D0069B03F1FF330693069B10
:10A1C000002BF0D1069B002B3CD140F26433C2F24D
:10A1D00000031A684FF4A843C4F200039A420DD159
:10A1E00040F26833C2F200031B889BB203F1010303
:10A1F0009AB240F26833C2F200031A8040F264332C
:10A20000C2F200031A684FF4B043C4F200039A424A
:10A210000DD140F26A33C2F200031B889BB203F1F6
:10A2200001039AB240F26A33C2F200031A8040F28C
:10A230006433C2F200031B68184600F025FA4FF0A1
:10A24000000301E04FF00103184609B000BD00BF54
:10A2500000B585B003908DF80B108DF80A208DF8AD
:10A2600009309DF80B209DF80A300DF1090100918D
:10A27000039811461A464FF00103FFF7EDFE03461F
:10A28000184605B000BD00BF00B585B001908DF83F
:10A2900003108DF802208DF8013047F230530393FC
:10A2A00040F26433C2F20003019A1A609DF8033051
:10A2B0004FEA4303DAB240F26D33C2F200031A7080
:10A2C00040F26E33C2F200039DF802201A7040F291
:10A2D0007033C2F200034FF000021A7040F2713383
:10A2E000C2F200034FF001021A7040F27833C2F25A
:10A2F0000003069A1A6040F27433C2F20003069A11
:10A300001A6040F26F33C2F200039DF801201A7008
:10A3100040F26C33C2F200034FF001021A7040F2B7
:10A320006433C2F200031B689B889BB203F4007382
:10A33000002B2CD140F26433C2F200031B681B884F
:10A340009BB203F48073002B15D100BF40F264333D
:10A35000C2F200031B681B889BB203F40073002B3E
:10A36000F4D140F26433C2F200031B6818464FF088
:10A37000010117F09DF840F26433C2F200031B683C
:10A3800018464FF440714FF0010217F0DBFA00BF9E
:10A3900040F26C33C2F200031B78DBB2002B06D014
:10A3A000039B03F1FF330393039B002BF0D1039B2B
:10A3B000002B3CD140F26433C2F200031A684FF420
:10A3C000A843C4F200039A420DD140F26833C2F2AE
:10A3D00000031B889BB203F101039AB240F2683379
:10A3E000C2F200031A8040F26433C2F200031A681A
:10A3F0004FF4B043C4F200039A420DD140F26A33E5
:10A40000C2F200031B889BB203F101039AB240F22F
:10A410006A33C2F200031A8040F26433C2F20003CE
:10A420001B68184600F030F94FF0000301E04FF0D0
:10A430000103184605B000BD00B587B0019003AB1D
:10A44000184616F09FFD019A4FF4A843C4F200038A
:10A450009A4240F087804FF0C00303934FF001030E
:10A460008DF810304FF002038DF811304FF00103DA
:10A470008DF812304FF48060C4F2020003AB19462D
:10A4800016F0E2FC4FF48060C4F202004FF0C0010D
:10A4900016F0FCFD4FF000038DF817302EE04FF062
:10A4A000030002F0CBF800E000BF4FF48060C4F27C
:10A4B00002004FF0400116F09DFD0346002BEED048
:10A4C0004FF48060C4F202004FF0400116F0EAFD44
:10A4D0004FF0030002F0B2F84FF48060C4F20200C3
:10A4E0004FF0400116F0D2FD4FF0030002F0A6F845
:10A4F0009DF8173003F101038DF817309DF81730E0
:10A50000072BD1D94FF48060C4F202004FF08001D4
:10A5100016F0C8FD4FF0030002F090F84FF4806091
:10A52000C4F202004FF0400116F0BCFD4FF00300F2
:10A5300002F084F84FF48060C4F202004FF0400152
:10A5400016F0A4FD4FF0030002F078F84FF480609D
:10A55000C4F202004FF0800116F098FD4FF00300A6
:10A5600002F06CF8019A4FF4B043C4F200039A422F
:10A5700040F087804FF4406303934FF001038DF860
:10A5800010304FF002038DF811304FF001038DF8B9
:10A5900012304FF48060C4F2020003AB194616F08B
:10A5A00053FC4FF48060C4F202004FF4406116F097
:10A5B0006DFD4FF000038DF817302EE04FF00300D3
:10A5C00002F03CF800E000BF4FF48060C4F20200EB
:10A5D0004FF4806116F00EFD0346002BEED04FF4D1
:10A5E0008060C4F202004FF4806116F05BFD4FF012
:10A5F000030002F023F84FF48060C4F202004FF42D
:10A60000806116F043FD4FF0030002F017F89DF84B
:10A61000173003F101038DF817309DF81730072B21
:10A62000D1D94FF48060C4F202004FF4006116F0FB
:10A6300039FD4FF0030002F001F84FF48060C4F2DE
:10A6400002004FF4806116F02DFD4FF0030001F081
:10A65000F5FF4FF48060C4F202004FF4806116F001
:10A6600015FD4FF0030001F0E9FF4FF48060C4F2E4
:10A6700002004FF4006116F009FD4FF0030001F0F5
:10A68000DDFF07B000BD00BF00B58BB00190019A9F
:10A690004FF4A843C4F200039A4240F087804FF081
:10A6A00002004FF0010117F0A3FD4FF400104FF02E
:10A6B000010117F00FFE0198FFF7BEFE08AB184628
:10A6C00016F060FC04AB184616F0BAFE4FF0C0035B
:10A6D00008934FF002038DF824304FF002038DF8F9
:10A6E00025304FF001038DF826304FF48060C4F21E
:10A6F000020008AB194616F0A7FB4FF48060C4F2C5
:10A7000002004FF006014FF0040216F009FD4FF46D
:10A710008060C4F202004FF007014FF0040216F00F
:10A72000FFFC4FF4A840C4F200004FF440714FF01A
:10A73000000217F007F94FF4A840C4F2000016F029
:10A7400047FD04AB184616F07BFE4FF4D453C0F21D
:10A75000060304934FF4A840C4F2000004AB19466A
:10A7600016F076FD4FF4A840C4F200004FF001014E
:10A7700016F082FE4FF020038DF80C304FF00003EE
:10A780008DF80D304FF000038DF80E304FF00103BF
:10A790008DF80F3003AB184614F0CEFF4FF01F03B7
:10A7A0008DF80C3003AB184614F0C6FF019A4FF435
:10A7B000B043C4F200039A4240F087804FF0020099
:10A7C0004FF0010117F014FD4FF480004FF001012C
:10A7D00017F080FD0198FFF72FFE08AB184616F022
:10A7E000D1FB04AB184616F02BFE4FF440630893E0
:10A7F0004FF002038DF824304FF002038DF825301E
:10A800004FF001038DF826304FF48060C4F202004F
:10A8100008AB194616F018FB4FF48060C4F2020032
:10A820004FF00A014FF0040216F07AFC4FF48060FA
:10A83000C4F202004FF00B014FF0040216F070FC5E
:10A840004FF4B040C4F200004FF440714FF00002EA
:10A8500017F078F84FF4B040C4F2000016F0B8FCDE
:10A8600004AB184616F0ECFD4FF4D453C0F20603C7
:10A8700004934FF4B040C4F2000004AB194616F044
:10A88000E7FC4FF4B040C4F200004FF0010116F0B5
:10A89000F3FD4FF022038DF80C304FF000038DF8DC
:10A8A0000D304FF000038DF80E304FF001038DF89E
:10A8B0000F3003AB184614F03FFF4FF021038DF823
:10A8C0000C3003AB184614F037FF0BB000BD00BFCF
:10A8D00082B00190019A4FF4A843C4F200039A4257
:10A8E00006D140F26833C2F200031B889BB205E038
:10A8F00040F26A33C2F200031B889BB2184602B0D2
:10A90000704700BF00B583B06B46184616F03AFB9F
:10A910004FF008004FF0010117F06AFC4FF01000F3
:10A920004FF0010117F064FC4FF0630300934FF008
:10A9300001038DF804304FF002038DF805304FF419
:10A940008050C4F202006B46194616F07DFA4FF0B3
:10A95000900300934FF001038DF804304FF0020391
:10A960008DF805304FF44060C4F202006B46194682
:10A9700016F06AFA4FF48050C4F202004FF0200142
:10A9800016F090FB4FF48050C4F202004FF04001EB
:10A9900016F088FB4FF44060C4F202004FF08001D3
:10A9A00016F080FB4FF48050C4F202004FF001011A
:10A9B00016F078FB4FF48050C4F202004FF0020111
:10A9C00016F070FB4FF44060C4F202004FF010012B
:10A9D00016F068FB03B000BD00B58DB00346ADF8BE
:10A9E00006300AAB184616F0CDFA07AB184618F039
:10A9F000E5FC02AB184619F071F84FF001004FF07A
:10AA0000010117F0F5FB4FF002004FF0010117F0C4
:10AA1000EFFB4FF004004FF0010117F0E9FB4FF09E
:10AA200001004FF0010117F055FC4FF002004FF00C
:10AA3000010117F04FFC4FF002004FF0010117F039
:10AA40006FFC4FF400430A934FF002038DF82C3053
:10AA50004FF002038DF82D304FF00000C4F20200D9
:10AA60000AAB194616F0F0F94FF038030A934FF489
:10AA70008060C4F202000AAB194616F0E5F94FF403
:10AA800070730A934FF40060C4F202000AAB1946D7
:10AA900016F0DAF94FF00000C4F202004FF00F0197
:10AAA0004FF0010216F03CFB4FF48060C4F202004C
:10AAB0004FF003014FF0010216F032FB4FF48060BB
:10AAC000C4F202004FF004014FF0020216F028FB1E
:10AAD0004FF48060C4F202004FF005014FF0020213
:10AAE00016F01EFB4FF40060C4F202004FF00601A6
:10AAF0004FF0030216F014FB4FF40060C4F20200A2
:10AB00004FF007014FF0030216F00AFB4FF400600C
:10AB1000C4F202004FF008014FF0030216F000FBF0
:10AB20004FF40060C4F202004FF009014FF003023D
:10AB300016F0F6FABDF8062048F28043C0F21E0374
:10AB400093FBF2F39BB203F1FF3308934FF0290319
:10AB5000ADF81C304FF0804007AB194618F0AEFB43
:10AB60004FF48060C4F2000007AB194618F0A6FB52
:10AB70004FF48060C4F2010007AB194618F09EFB49
:10AB80004FF07003ADF808304FF00103ADF80A3014
:10AB90004FF4FA6304934FF00203ADF814304FF40E
:10ABA0008073ADF818304FF0804002AB194618F0B2
:10ABB0000FFD4FF0804002AB194618F0A7FD4FF48F
:10ABC0008060C4F2000002AB194618F001FD4FF49A
:10ABD0008060C4F2000002AB194618F097FD4FF4F4
:10ABE0008060C4F2010002AB194618F0F1FC4FF48A
:10ABF0008060C4F2010002AB194618F087FD4FF4E3
:10AC00008060C4F2010002AB194618F033FE4FF425
:10AC10008060C4F2010002AB194618F0DBFE4FF071
:10AC200080404FF0010118F0B7FC4FF48060C4F28F
:10AC300000004FF0010118F0AFFC4FF48060C4F247
:10AC400001004FF0010118F0A7FC4FF080404FF0D9
:10AC5000010119F003FD4FF48060C4F200004FF0D1
:10AC6000010119F0FBFC4FF48060C4F201004FF0C9
:10AC7000010119F0F3FC0DB000BD00BF82B0024627
:10AC80000B468DF80720ADF804309DF8072040F200
:10AC90007403C2F2000353F82230BDF804201A6096
:10ACA00002B0704700B58DB00346ADF806300AAB70
:10ACB000184616F067F907AB184618F07FFB02AB91
:10ACC000184618F00BFF4FF001004FF0010117F08C
:10ACD0008FFA4FF008004FF0010117F0FBFA4FF028
:10ACE00007030A934FF002038DF82C304FF0020354
:10ACF0008DF82D304FF00000C4F202000AAB194667
:10AD000016F0A2F84FF00000C4F202004FF002016A
:10AD10004FF0020216F004FA4FF00000C4F20200F5
:10AD20004FF001014FF0020216F0FAF94FF0000067
:10AD3000C4F202004FF000014FF0020216F0F0F9E9
:10AD4000BDF8062048F28043C0F21E0393FBF2F3E5
:10AD50009BB203F1FF3308934FF02903ADF81C3089
:10AD60004FF44060C4F2000007AB194618F0A6FA91
:10AD70004FF07003ADF808304FF00103ADF80A3022
:10AD800040F6B83304934FF00203ADF814304FF49B
:10AD90008073ADF818304FF44060C4F2000002AB8D
:10ADA000194618F015FC4FF44060C4F2000002ABE5
:10ADB000194618F0ABFC4FF44060C4F200004FF0AD
:10ADC000010118F0E9FB4FF44060C4F200004FF0BD
:10ADD000010119F043FC0DB000BD00BF82B0024676
:10ADE0000B468DF80720ADF804309DF8072040F29F
:10ADF0009403C2F2000353F82230BDF804201A6015
:10AE000002B0704700B585B0019001984FF0100175
:10AE100019F0DEFC0346012B1AD140F2C033C2F216
:10AE200000031A8840F2C233C2F200031A8001986C
:10AE300019F062FB03469AB240F2C033C2F200033B
:10AE40001A8040F28033C2F200034FF001021A7000
:10AE500001984FF0100119F0F3FC40F2C033C2F238
:10AE600000031A8840F2C233C2F200031B88D31ACF
:10AE7000ADF80E30BDF80E2041F218539A4207D9B2
:10AE800040F2C433C2F200034FF000021A7033E004
:10AE9000BDF80E2040F2DC539A4220D9BDF80E20B6
:10AEA00041F293139A421AD840F2C433C2F200031B
:10AEB0001B78072B13D840F2C433C2F200031B786F
:10AEC000194640F28432C2F200020B464FEA4303B5
:10AED0005B184FEA4303D318BDF80E209A8040F266
:10AEE000C433C2F200031B7803F10103DAB240F26B
:10AEF000C433C2F200031A7005B000BD00B589B0BA
:10AF000001904FF0000306934FF000038DF81F30BF
:10AF1000DDE09DF81F3040F2A002C2F200024FEACD
:10AF2000C303D31893E8030003AB83E803009DF841
:10AF30001F2013464FEA43039B184FEA43031A4668
:10AF400040F28433C2F20003D3180593039A019BA5
:10AF50009A4240F0B680039ABDF812301046194666
:10AF600019F036FC0346012B40F0AB80039ABDF884
:10AF700012301046194619F063FC9DF81F30002B63
:10AF800006D140F28033C2F200034FF001021A7082
:10AF9000BDF810300C2B3DD801A252F823F000BFB1
:10AFA000D5AF000815B0000815B0000815B00008AE
:10AFB000E5AF000815B0000815B0000815B000088E
:10AFC000F5AF000815B0000815B0000815B000086E
:10AFD00005B00008039B184619F076FA03469BB2A9
:10AFE000069317E0039B184619F076FA03469BB2C6
:10AFF00006930FE0039B184619F076FA03469BB2BE
:10B00000069307E0039B184619F076FA03469BB2B5
:10B01000069300BF059B1B78002B1ED1069B9AB29E
:10B02000059B5A80059B4FF001021A70BDF8102055
:10B0300040F2B433C2F200031A8040F2B433C2F2D9
:10B0400000034FF002025A80039B184640F2B431CD
:10B05000C2F2000119F064F933E0059B5B881A46DF
:10B06000069B9A4208D2069B9AB2059B5B88D31A2C
:10B070009AB2059B9A800AE0069B9AB2059B5B8870
:10B08000D31A9BB203F1FF339AB2059B9A80059BBA
:10B090004FF000021A70BDF8102040F2B433C2F233
:10B0A00000031A8040F2B433C2F200034FF00002F2
:10B0B0005A80039B184640F2B431C2F2000119F0E5
:10B0C0002FF99DF81F3003F101038DF81F309DF813
:10B0D0001F30072B7FF61DAF09B000BD08B542F643
:10B0E000EC53C2F2000393F85530022B06D14FF413
:10B0F0000060C4F20000FFF785FE05E04FF4006039
:10B10000C4F20000FFF7FAFE08BD00BF08B54FF01B
:10B110000000C4F20100FFF7F1FE08BD10B584B0D5
:10B120004FF48050C4F2010040F225511AF028FB80
:10B130000346012B40F0BA8040F28033C2F2000394
:10B140004FF001021A7001F0D5F9029040F2B453A9
:10B15000C2F200031B68029AD21A40F2AC53C2F248
:10B1600000031A6040F2B453C2F20003029A1A605C
:10B1700040F2AC53C2F200031A6841F288339A429B
:10B1800006D940F2F853C2F200034FF000021A70E1
:10B1900040F2F853C2F200031B781C464FF4805073
:10B1A000C4F201001AF008F90346DAB240F2B853CB
:10B1B000C2F200031A5540F2F853C2F200031B78A2
:10B1C0000F2B07D140F2BE33C2F200034FF0010251
:10B1D0001A700CE040F2F853C2F200031B7803F13E
:10B1E0000103DAB240F2F853C2F200031A7040F2DF
:10B1F000BE33C2F200031B78002B57D04FF003037D
:10B200008DF80F3047E09DF80F3003F1FF3240F228
:10B21000B853C2F200039B5C1A4640F2B353C2F229
:10B2200000031B7842FA03F3DBB203F00F038DF83F
:10B23000073042F6EC53C2F2000393F856309DF803
:10B2400007209A4221D29DF807209DF80F3003F184
:10B25000FF3140F2B853C2F20003595C40F2B053E0
:10B26000C2F200031B780B40DBB24FEA03219DF8CA
:10B270000F0040F2B853C2F200031B5CC91840F241
:10B28000C853C2F2000343F822109DF80F3003F1B7
:10B2900002038DF80F309DF80F300F2BB3D940F219
:10B2A000BE33C2F200034FF000021A7004B010BDAA
:10B2B00000B58BB005AB184618F080F840F2B430FA
:10B2C000C2F2000019F07EF86B46184619F09CFF98
:10B2D00042F6EC53C2F2000393F85530022B40F0D3
:10B2E000C4804FF008004FF0010116F081FF4FF0CD
:10B2F00004004FF0010116F0EDFF40F2B153C2F22D
:10B3000000034FF000021A7020E040F2B153C2F285
:10B3100000031B78194640F28432C2F200020B4649
:10B320004FEA43035B184FEA4303D31840F6B832A1
:10B330009A8040F2B153C2F200031B7803F101037B
:10B34000DAB240F2B153C2F200031A7040F2B153C4
:10B35000C2F200031B78072BD7D94FF400430893A0
:10B360004FF002038DF824304FF002038DF82530A2
:10B370004FF000038DF826304FF000038DF8273092
:10B380004FF44060C4F2020008AB194615F05CFDB2
:10B390004FF44060C4F202004FF00F014FF0020280
:10B3A00015F0BEFE4FF01E038DF810304FF0020373
:10B3B0008DF811304FF000038DF812304FF001037B
:10B3C0008DF8133004AB184614F0B6F94FF029038A
:10B3D000ADF814304FF6FF7306934FF40060C4F2DB
:10B3E000000005AB194617F069FF40F2B433C2F212
:10B3F00000034FF00C021A8040F2B433C2F2000393
:10B400004FF000025A8040F2B433C2F200034FF012
:10B4100001029A8040F2B433C2F200034FF00002FE
:10B42000DA8040F2B433C2F200034FF000021A8116
:10B430004FF40060C4F2000040F2B431C2F20001E7
:10B4400018F06EFF4FF40060C4F200004FF01001DE
:10B450004FF0010219F05EF94FF40060C4F20000F1
:10B460004FF0010118F098F813E242F6EC53C2F2E3
:10B47000000393F85530012B40F073814FF0080022
:10B480004FF0010116F0B4FE4FF010004FF0010133
:10B4900016F0AEFE4FF004004FF0010116F01AFF57
:10B4A0004FF001004FF0010116F03AFF40F2B153A6
:10B4B000C2F200034FF000021A7020E040F2B153D4
:10B4C000C2F200031B78194640F28432C2F2000235
:10B4D0000B464FEA43035B184FEA4303D31840F689
:10B4E000B8329A8040F2B153C2F200031B7803F1E4
:10B4F0000103DAB240F2B153C2F200031A7040F213
:10B50000B153C2F200031B78072BD7D94FF4704315
:10B5100008934FF002038DF824304FF002038DF8AA
:10B5200025304FF000038DF826304FF002038DF8E0
:10B5300027304FF44060C4F2020008AB194615F002
:10B5400083FC4FF4D44308934FF48050C4F20200BC
:10B5500008AB194615F078FC4FF44060C4F20200C5
:10B560004FF00C014FF0020215F0DAFD4FF440608D
:10B57000C4F202004FF00D014FF0020215F0D0FDB1
:10B580004FF44060C4F202004FF00E014FF002028F
:10B5900015F0C6FD4FF44060C4F202004FF00F01F9
:10B5A0004FF0020215F0BCFD4FF48050C4F20200CF
:10B5B0004FF009014FF0010215F0B2FD4FF4805039
:10B5C000C4F202004FF00B014FF0010215F0A8FD8C
:10B5D0004FF48050C4F202004FF00D014FF0010211
:10B5E00015F09EFD4FF48050C4F202004FF00E01A2
:10B5F0004FF0010215F094FD4FF01E038DF810304E
:10B600004FF002038DF811304FF000038DF8123027
:10B610004FF001038DF8133004AB184614F08CF88A
:10B620004FF01B038DF8103004AB184614F084F86B
:10B630004FF02903ADF814304FF6FF7306934FF423
:10B640000060C4F2000005AB194617F037FE4FF05A
:10B650000000C4F2010005AB194617F02FFE40F2BE
:10B66000B433C2F200034FF000025A8040F2B43308
:10B67000C2F200034FF001029A8040F2B433C2F2EA
:10B6800000034FF00002DA8040F2B433C2F200034C
:10B690004FF000021A8140F2B153C2F200034FF0A2
:10B6A00000021A7031E040F2B153C2F200031B787D
:10B6B00040F2A002C2F200024FEAC303D3189A88F4
:10B6C00040F2B433C2F200031A8040F2B153C2F226
:10B6D00000031B781A4640F2A003C2F2000353F89D
:10B6E0003230184640F2B431C2F2000118F018FEB0
:10B6F00040F2B153C2F200031B7803F10103DAB246
:10B7000040F2B153C2F200031A7040F2B153C2F2D8
:10B7100000031B78072BC6D94FF40060C4F2000069
:10B720004FF01E014FF0010218F0F4FF4FF000003F
:10B73000C4F201004FF01E014FF0010218F0EAFFC1
:10B740004FF40060C4F200004FF0010117F024FF35
:10B750004FF00000C4F201004FF0010117F01CFF90
:10B7600097E042F6EC53C2F2000393F85530032BF6
:10B7700040F08F804FF001004FF0010116F038FDCE
:10B780004FF010004FF0010116F0CAFD4FF02503F5
:10B790008DF810304FF002038DF811304FF0000398
:10B7A0008DF812304FF001038DF8133004AB1846BA
:10B7B00013F0C2FF4FF4806308934FF002038DF83B
:10B7C00024304FF002038DF825304FF000038DF840
:10B7D00026304FF001038DF827304FF00000C4F2FF
:10B7E000020008AB194615F02FFB4FF00000C4F221
:10B7F00002004FF00A014FF0070215F091FC4FF4E0
:10B80000E13300934FF00403ADF80A304FF000032A
:10B81000ADF80C304FF48050C4F201006B4619466D
:10B8200019F020FC4FF48050C4F2010040F2255181
:10B830004FF0010219F024FF4FF48050C4F20100D0
:10B840004FF0010119F036FD42F6EC53C2F200034D
:10B8500093F85730002B0ED040F2B353C2F20003DE
:10B860004FF003021A7040F2B053C2F200034FF0DF
:10B8700007021A700DE040F2B353C2F200034FF01A
:10B8800002021A7040F2B053C2F200034FF00302FA
:10B890001A700BB000BD00BF84B003468DF80730AE
:10B8A00042F6EC53C2F2000393F85530032B37D124
:10B8B00042F6EC53C2F2000393F856309DF807208D
:10B8C0009A4204D34FF4FA63ADF80E3025E042F605
:10B8D000EC53C2F2000393F85730002B0DD09DF8C3
:10B8E000072040F2C853C2F2000353F822309BB243
:10B8F00003F57A73ADF80E300FE09DF8072040F2A3
:10B90000C853C2F2000353F822309BB203F57A7396
:10B910009BB24FEA4303ADF80E30BDF80E300DE098
:10B920009DF8071040F28432C2F200020B464FEA43
:10B9300043035B184FEA4303D3189B88184604B0AF
:10B94000704700BF00B585B04FF001004FF0010116
:10B9500016F04EFC4FF010004FF0010116F048FCBD
:10B960004FF4804301934FF000038DF808304FF0FF
:10B9700002038DF809304FF000038DF80A304FF0C4
:10B9800001038DF80B304FF48050C4F2020001AB7C
:10B99000194615F059FA4FF48050C4F202004FF4E2
:10B9A000804115F027FB0346012B70D042F6EC5383
:10B9B000C2F2000393F85630072B07D840F2B25377
:10B9C000C2F200034FF003021A7006E040F2B253D5
:10B9D000C2F200034FF005021A704FF48063019326
:10B9E0004FF001038DF808304FF002038DF8093055
:10B9F0004FF000038DF80A304FF000038DF80B3044
:10BA00004FF00000C4F2020001AB194615F01CFA19
:10BA10004FF00000C4F202004FF480614FF00102C9
:10BA200015F04CFB4FF03C0000F042FE4FF00003DD
:10BA30008DF80F3021E04FF00000C4F202004FF407
:10BA400080614FF0000215F039FB4FF0780000F0F4
:10BA5000F5FD4FF00000C4F202004FF480614FF09A
:10BA6000010215F02BFB4FF0780000F0E7FD9DF888
:10BA70000F3003F101038DF80F3040F2B253C2F2E0
:10BA800000031B789DF80F209A42D4D300E000BF3A
:10BA900005B000BD00B58BB00190019A4FF4405342
:10BAA000C4F201039A4240D14FF001004FF001016E
:10BAB00016F09EFB4FF480504FF0010116F00AFC87
:10BAC00008AB184615F05EFA4FF0E00308934FF00C
:10BAD00002038DF824304FF002038DF825304FF02B
:10BAE0000000C4F2020008AB194615F0ADF94FF0A2
:10BAF0000000C4F202004FF005014FF0050215F0FE
:10BB00000FFB4FF00000C4F202004FF006014FF0AF
:10BB1000050215F005FB4FF00000C4F202004FF0E3
:10BB200007014FF0050215F0FBFA019A4FF460533C
:10BB3000C4F200039A4240D14FF002004FF00101DD
:10BB400016F056FB4FF480404FF0010116F0C2FB97
:10BB500008AB184615F016FA4FF4604308934FF0FF
:10BB600002038DF824304FF002038DF825304FF496
:10BB70008060C4F2020008AB194615F065F94FF475
:10BB80008060C4F202004FF00D014FF0050215F085
:10BB9000C7FA4FF48060C4F202004FF00E014FF07C
:10BBA000050215F0BDFA4FF48060C4F202004FF0B8
:10BBB0000F014FF0050215F0B3FA019A4FF47053DC
:10BBC000C4F200039A4240F094804FF002004FF01C
:10BBD000010116F00DFB4FF004004FF0010116F0CB
:10BBE00007FB4FF400404FF0010116F073FB08AB68
:10BBF000184615F0C7F94FF4E05308934FF00203CD
:10BC00008DF824304FF002038DF825304FF400609A
:10BC1000C4F2020008AB194615F016F94FF40060A3
:10BC2000C4F202004FF00A014FF0060215F078FA54
:10BC30004FF40060C4F202004FF00B014FF0060217
:10BC400015F06EFA4FF40060C4F202004FF00C01E0
:10BC50004FF0060215F064FA08AB184615F092F999
:10BC60004FF4807308934FF001038DF824304FF0A8
:10BC700002038DF825304FF48060C4F2020008AB57
:10BC8000194615F0E1F84FF48060C4F202004FF459
:10BC9000807115F0FBF903AB184616F03BFF4FF42B
:10BCA0007050C4F2000016F093FD4FF48273ADF8AB
:10BCB0000E304FF00203ADF812304FF00103ADF833
:10BCC00014304FF40073ADF816304FF02803ADF880
:10BCD00018304FF47050C4F2000003AB194616F050
:10BCE000B7FD4FF47050C4F200004FF0010116F0A0
:10BCF00055FF0BB000BD00BF00B585B001900B46ED
:10BD00008DF803304FF48053ADF80E3011E0BDF8DC
:10BD10000E30002B14BF00230123DBB2BDF80E2030
:10BD200002F1FF32ADF80E20002B02D04FF00003DD
:10BD300032E001984FF0020117F00AF90346002B98
:10BD4000E5D09DF803309BB20198194617F048F8EA
:10BD50004FF48053ADF80E3011E0BDF80E30002BDB
:10BD600014BF00230123DBB2BDF80E2002F1FF3225
:10BD7000ADF80E20002B02D04FF000030CE001982C
:10BD80004FF0010117F0E4F80346002BE5D00198CD
:10BD900017F01EF80346DBB2184605B000BD00BF21
:10BDA00000B585B001900B46ADF8023001984FF018
:10BDB000000116F0F3FE019B1B88ADF80E30BDF8B4
:10BDC0000230102B36D0102B06DC042B18D0082B99
:10BDD00023D0022B0DD06EE0402B45D0402B02DC4F
:10BDE000202B34D067E0802B4BD0B3F5807F55D02B
:10BDF00061E0BDF80E3023F03803ADF80E305AE0A4
:10BE0000BDF80E3023F03803ADF80E30BDF80E301B
:10BE100043F00803ADF80E304DE0BDF80E3023F0CE
:10BE20003803ADF80E30BDF80E3043F01003ADF816
:10BE30000E3040E0BDF80E3023F03803ADF80E3080
:10BE4000BDF80E3043F01803ADF80E3033E0BDF806
:10BE50000E3023F03803ADF80E30BDF80E3043F04D
:10BE60002003ADF80E3026E0BDF80E3023F0380385
:10BE7000ADF80E30BDF80E3043F02803ADF80E30AB
:10BE800019E0BDF80E3023F03803ADF80E30BDF8E0
:10BE90000E3043F03003ADF80E300CE0BDF80E303C
:10BEA00023F03803ADF80E30BDF80E3043F0380300
:10BEB000ADF80E3000BF019BBDF80E201A8001982E
:10BEC0004FF0010116F06AFE05B000BD82B00346D6
:10BED00000918DF807309DF90730002B11DA4FF4EF
:10BEE0006D43CEF200039DF8072002F00F02A2F18D
:10BEF0000401009AD2B24FEA0212D2B25B181A764B
:10BF00000DE04FF46143CEF200039DF90710009A53
:10BF1000D2B24FEA0212D2B25B1883F8002302B009
:10BF2000704700BF00B583B00190019A6FF07F4366
:10BF30009A4202D94FF001031FE04EF21003CEF2F5
:10BF40000003019A22F07F4202F1FF325A604FF063
:10BF5000FF304FF00F01FFF7B9FF4EF21003CEF2A2
:10BF600000034FF000029A604EF21003CEF200037D
:10BF70004FF007021A604FF00003184603B000BDEF
:10BF800000B585B06B46184615F0F4FF009A4DF6E3
:10BF90008363C4F21B33A3FB02134FEA934240F2C4
:10BFA000C833C2F200031A604EF6F053CEF200031B
:10BFB0004EF6F052CEF20002D26842F08072DA60A1
:10BFC0004FF48053CEF200034FF48052CEF20002C1
:10BFD000126842F001021A6005B000BD00B583B0DE
:10BFE00041F20403CEF200031A6840F2D033C2F2E9
:10BFF00000031A6040F2CC33C2F200031B6803F165
:10C00000010240F2CC33C2F200031A6040F2DD3389
:10C01000C2F200031B78012B40F06A8240F23843E1
:10C02000C2F200031B78002B40F0628240F2F13331
:10C03000C2F200031B78002B40F05A8240F2F23328
:10C04000C2F200031B78002B40F0528240F25833BA
:10C05000C2F200031B78002B40F04A8240F2D43336
:10C06000C2F200031B8803F101039AB240F2D433F9
:10C07000C2F200031A8040F2D433C2F200031B88DC
:10C08000B3F57A7F06D940F2D433C2F200034FF001
:10C0900001021A8000F02EFA009040F23463C2F2DE
:10C0A00000031B68009AD21A40F20C63C2F200032C
:10C0B0001A6040F23463C2F20003009A1A60FCF77F
:10C0C000D3FD40F23433C2F200031A6840F2205329
:10C0D000C2F200031B881BB2D21840F23433C2F202
:10C0E00000031A6040F23433C2F200035A6840F28F
:10C0F0002053C2F200035B881BB2D21840F23433E3
:10C10000C2F200035A6040F23433C2F200039A686C
:10C1100040F22053C2F200039B881BB2D21840F2B7
:10C120003433C2F200039A6040F22833C2F20003B3
:10C130001A6840F22053C2F200031B881BB2D218C7
:10C1400040F22833C2F200031A6040F22833C2F2F0
:10C1500000035A6840F22053C2F200035B881BB20E
:10C16000D21840F22833C2F200035A6040F228335A
:10C17000C2F200039A6840F22053C2F200039B8887
:10C180001BB2D21840F22833C2F200039A6040F288
:10C190004C33C2F200031A6840F25053C2F200035B
:10C1A0001B881BB2D21840F24C33C2F200031A6053
:10C1B00040F24C33C2F200035A6840F25053C2F2CC
:10C1C00000035B881BB2D21840F24C33C2F200036A
:10C1D0005A6040F24C33C2F200039A6840F2505366
:10C1E000C2F200039B881BB2D21840F24C33C2F259
:10C1F00000039A6040F2D433C2F200031B8803F0BC
:10C2000001039BB2002B49D140F2D633C2F20003A6
:10C210004FF001021A704FF000038DF8073039E03B
:10C220009DF807209DF8071040F23433C2F2000356
:10C2300053F8211040F25853C2F2000343F8221081
:10C240009DF8072040F23433C2F200034FF00001A2
:10C2500043F822109DF807209DF8071040F24C3358
:10C26000C2F2000353F8211040F22C53C2F2000333
:10C2700043F822109DF8072040F24C33C2F200032D
:10C280004FF0000143F822109DF8073003F101033D
:10C290008DF807309DF80730022BC1D940F2D43316
:10C2A000C2F200031A884CF6CD43CCF6CC43A3FB74
:10C2B00002134FEA93010B464FEA83035B18D31A2C
:10C2C0009BB2002B06D140F2D733C2F200034FF0ED
:10C2D00001021A7040F2D433C2F200031A884CF6FD
:10C2E000CD43CCF6CC43A3FB02134FEAD3010B465C
:10C2F0004FEA83035B184FEA4303D31A9BB2002B28
:10C3000056D140F2D833C2F200034FF001021A7046
:10C310004FF000038DF807301FE09DF807209DF8CF
:10C32000071040F22833C2F2000353F8211040F204
:10C330004453C2F2000343F822109DF8072040F254
:10C340002833C2F200034FF0000143F822109DF899
:10C35000073003F101038DF807309DF80730022BF9
:10C36000DBD940F2D433C2F200031B880A2B02D17E
:10C37000FCF766FF0CE040F2D433C2F200031B88E6
:10C38000B3F57A7F02D1FCF7C3FF01E0FCF78CFF25
:10C3900040F27853C2F200031A6840F25C33C2F2F2
:10C3A00000031B68D21840F25C33C2F200031A602B
:10C3B00040F2D433C2F200031B8803F1010146F2BC
:10C3C0006763C6F2666383FB01234FEAE3024FEA29
:10C3D000E173D21A13464FEA83039B184FEA830393
:10C3E000CA1A002A08D1FCF787F903461A4640F218
:10C3F0002433C2F200031A7040F2D433C2F20003B5
:10C400001A884CF6CD43CCF6CC43A3FB02134FEA7B
:10C4100013110B464FEA83035B184FEA8303D31AC9
:10C420009BB2002B06D140F2D933C2F200034FF089
:10C4300001021A7040F2D433C2F200031A8848F2A3
:10C440001F53C5F2EB13A3FB02134FEA53134FF034
:10C45000640101FB03F3D31A9BB2002B06D140F217
:10C46000DA33C2F200034FF001021A7040F2D43303
:10C47000C2F200031A8848F21F53C5F2EB13A3FB64
:10C4800002134FEA93134FF0C80101FB03F3D31AD1
:10C490009BB2002B06D140F2DB33C2F200034FF017
:10C4A00001021A7040F2D433C2F200031A8844F633
:10C4B000D353C1F26203A3FB02134FEA93134FF469
:10C4C0007A7101FB03F3D31A9BB2002B06D140F221
:10C4D000DC33C2F200034FF001021A7000F00AF8D8
:10C4E0000246009BD21A40F2FC53C2F200031A60CB
:10C4F00003B000BD70B472B641F20403CEF2000383
:10C500001D6840F2D033C2F200031C6840F2CC3305
:10C51000C2F200031E6862B64FF47A7303FB06F2A0
:10C52000291B40F2C833C2F200031B68B1FBF3F3CE
:10C53000D318184670BC704740F2CC33C2F20003E7
:10C540001B681846704700BF08B5FFF719FD40F299
:10C550004813C2F200031A6844F6D353C1F26203CF
:10C56000A3FB02134FEA93131846FFF7DBFC4FF0CF
:10C57000000006F0E7FD06F04BFD42F6EC53C2F278
:10C58000000393F85530032B01D1FFF7DBF94FF48B
:10C59000A06013F0C3F809F0DFFAFEF7B3F900F07A
:10C5A00083FD4FF48050C4F202004FF0200114F0DC
:10C5B0006DFD4FF4A840C4F20000FEF765F84FF49B
:10C5C000B040C4F20000FEF75FF842F6EC53C2F24E
:10C5D0000003B3F860301846FEF7FEF942F6EC535C
:10C5E000C2F20003B3F862301846FEF75BFBFEF7B9
:10C5F0005FFE4FF47050C4F20000FFF74BFA00F0FA
:10C600009FF800F0B9F900F0C1FB42F2107000F0A1
:10C610004FF84FF48050C4F202004FF0400114F084
:10C6200035FDFCF7EFF9FCF7C5F8FCF7DBFF0CF084
:10C6300053FA08F093FB08F077FA08BD10B487B0FE
:10C6400001904FF00003059341F20403CEF2000382
:10C650001B68049341F20403CEF200031C68049BA0
:10C66000E31A059AD3180593049440F2C833C2F232
:10C6700000031B68059AB2FBF3F30393039A019B33
:10C680009A4210D2019A039BD31A019340F2C83305
:10C69000C2F200031A68059BB3FBF2F102FB01F240
:10C6A0009B1A0593D6E700BF07B010BC704700BFC8
:10C6B00000B583B0019003E04FF47A70FFF7BEFF3E
:10C6C000019B002B0CBF00230123DBB2019A02F176
:10C6D000FF320192002BEFD103B000BD00B583B053
:10C6E00003468DF807309DF80730002B08D04FF631
:10C6F000FC73C2F201034BF6EF62CDF6AD621A6035
:10C700004FF44060C4F202004FF4006114F0CAFC20
:10C710004FF0C800FFF7CCFF4FF44060C4F20200B6
:10C720004FF4006114F0B2FC4FF46D43CEF20003FD
:10C730004FF00402C0F2FA52DA6003B000BD00BF4D
:10C7400000B585B001AB184616F038FE4FF010006A
:10C750004FF0010115F0BEFD4FF6FF7302934FF04D
:10C760005303ADF804304FF48050C4F2000001AB25
:10C77000194616F0A3FD4FF48050C4F200004FF0AC
:10C78000010116F009FF01AB184616F017FE4FF035
:10C7900020004FF0010115F09DFD4FF400304FF0E7
:10C7A000010115F0BDFD4FF480204FF0010115F09F
:10C7B000B7FD4FF6FF7302934FF02903ADF8043035
:10C7C0004FF4A050C4F2000001AB194616F076FDFC
:10C7D0004FF48840C4F2010001AB194616F06EFD1B
:10C7E0004FF49040C4F2010001AB194616F066FD0B
:10C7F0004FF4A050C4F200004FF0000116F028FEE4
:10C800004FF48840C4F201004FF0000116F020FE02
:10C810004FF49040C4F201004FF0000116F018FEF2
:10C8200005B000BD82B00346ADF806304FF480532A
:10C83000C4F200034FF000025A6200BF4FF480536D
:10C84000C4F200035A6ABDF806309A42F6D902B023
:10C85000704700BF00B583B0019003E04FF47A70D9
:10C86000FFF7E0FF019B002B0CBF00230123DBB28D
:10C87000019A02F1FF320192002BEFD103B000BD0B
:10C8800008B546F2A003C4F2020340F2E432C2F259
:10C8900000021288114640F66862C2F200028A184D
:10C8A000DA6040F2E633C2F200031A8840F2E43361
:10C8B000C2F200031B889A421DD940F2E633C2F24D
:10C8C00000031A8840F2E433C2F200031B88D31A33
:10C8D0009BB246F2A000C4F20200194613F0FCF924
:10C8E00040F2E633C2F200031A8840F2E433C2F2A7
:10C8F00000031A8015E040F2E433C2F200031B8803
:10C90000C3F500639BB246F2A000C4F202001946D0
:10C9100013F0E2F940F2E433C2F200034FF00002F8
:10C920001A8046F2A000C4F202004FF0010113F099
:10C930008FF908BD08B546F2A000C4F202004FF41A
:10C940000041C2F2200113F067FB46F2A000C4F2DE
:10C9500002004FF0000113F07BF940F2E633C2F21F
:10C9600000031A8840F2E433C2F200031B889A42A3
:10C9700001D0FFF785FF08BD00B597B014AB18468E
:10C9800014F000FB10AB184618F03EFC01AB184643
:10C9900013F01EF94FF008004FF0010115F028FCCC
:10C9A0004FF400104FF0010115F022FC4FF48020ED
:10C9B0004FF0010115F08EFC4FF0600314934FF01F
:10C9C00002038DF854304FF002038DF855304FF0CC
:10C9D00001038DF857304FF44060C4F202004FF06D
:10C9E00005014FF0070214F09BFB4FF44060C4F2C6
:10C9F00002004FF006014FF0070214F091FB4FF4D4
:10CA00004060C4F2020014AB194614F01DFA4FF056
:10CA100011038DF800304FF001038DF801304FF015
:10CA200000038DF802304FF001038DF803306B46A0
:10CA3000184612F081FE4FF4E13310934FF4884012
:10CA4000C4F2000010AB194618F00CFB46F2880047
:10CA5000C4F2020012F04AFF4FF00063019344F267
:10CA60000443C4F20003029340F26863C2F200037D
:10CA700003934FF4006305934FF4806307934FF4DF
:10CA800080730A934FF480330B9346F28800C4F20C
:10CA9000020001AB194613F047F846F28800C4F2D1
:10CAA00002004FF0010113F0D3F84FF48840C4F2B4
:10CAB00000004FF040014FF0010218F0BDFD46F2BA
:10CAC0008800C4F2020013F013F903461A4640F23C
:10CAD000E033C2F200031A6046F2A000C4F2020082
:10CAE00012F004FF40F66863C2F2000303934FF0B4
:10CAF000400304934FF000030A9346F2A000C4F2EF
:10CB0000020001AB194613F00FF846F2A000C4F280
:10CB100002004FF0000113F0DFF846F2A000C4F26B
:10CB200002004FF010014FF0010213F0DBF94FF457
:10CB30008840C4F200004FF080014FF0010218F06D
:10CB40007BFD4FF48840C4F200004FF0010118F063
:10CB5000B1FB17B000BD00BF08B546F22800C4F213
:10CB6000020013F0C5F803461A4640F2E033C2F261
:10CB700000031B689A420CBF002301239BB2184696
:10CB800008BD00BF82B040F2E033C2F200031B6870
:10CB9000C3F5006240F26863C2F200039B5C8DF84B
:10CBA000073040F2E033C2F200031B6803F1FF32AA
:10CBB00040F2E033C2F200031A6040F2E033C2F206
:10CBC00000031B68002B06D140F2E033C2F20003E1
:10CBD0004FF400621A609DF80730184602B07047A3
:10CBE00008B500BFFFF7B8FF0346002BFAD0FFF7E8
:10CBF000C9FF0346184608BD00B583B003468DF84B
:10CC0000073040F2E633C2F200031B881A4640F6B2
:10CC10006863C2F200039DF80710995440F2E633AE
:10CC2000C2F200031B8803F101034FEAE3724FEAEB
:10CC300052529B184FEA43534FEA53539B1A9AB2EE
:10CC400040F2E633C2F200031A8046F25800C4F202
:10CC5000020013F0ADF80346002B05D1FFF710FEDC
:10CC60004FF06400FFF7EAFC03B000BD00B583B0ED
:10CC7000019009E0019B1B78DBB2019A02F10102ED
:10CC800001921846FFF7B8FF019B1B78002BF1D1EA
:10CC900003B000BD08B546F25803C4F2020340F2E7
:10CCA000EC32C2F200021288114641F66862C2F20A
:10CCB00000028A18DA6040F2EE33C2F200031A88EA
:10CCC00040F2EC33C2F200031B889A421DD940F2B5
:10CCD000EE33C2F200031A8840F2EC33C2F20003D2
:10CCE0001B88D31A9BB246F25800C4F202001946C0
:10CCF00012F0F2FF40F2EE33C2F200031A8840F263
:10CD0000EC33C2F200031A8015E040F2EC33C2F2B9
:10CD100000031B88C3F500639BB246F25800C4F2BF
:10CD20000200194612F0D8FF40F2EC33C2F20003C1
:10CD30004FF000021A8046F25800C4F202004FF091
:10CD4000010112F085FF08BD08B546F25800C4F293
:10CD500002004FF40041C1F6000113F05DF946F204
:10CD60005800C4F202004FF0000112F071FF40F2CF
:10CD7000EE33C2F200031A8840F2EC33C2F2000331
:10CD80001B889A4201D0FFF785FF08BD00B597B018
:10CD900014AB184614F0F6F810AB184618F034FA35
:10CDA00001AB184612F014FF4FF008004FF00101DC
:10CDB00015F01EFA4FF400104FF0010115F018FAAB
:10CDC0004FF480204FF0010115F084FA4FF44073C6
:10CDD00014934FF002038DF854304FF002038DF896
:10CDE00055304FF001038DF857304FF44060C4F2D6
:10CDF00002004FF008014FF0070214F091F94FF4D0
:10CE00004060C4F202004FF009014FF0070214F035
:10CE100087F94FF44060C4F2020014AB194614F0D5
:10CE200013F84FF00E038DF800304FF001038DF82A
:10CE300001304FF000038DF802304FF001038DF800
:10CE400003306B46184612F077FC4FF4E133109331
:10CE50004FF49040C4F2000010AB194618F002F9EC
:10CE600046F22800C4F2020012F040FD4FF00063C9
:10CE7000019344F60403C4F20003029341F2686391
:10CE8000C2F2000303934FF4006305934FF48063F1
:10CE900007934FF480730A934FF480330B9346F259
:10CEA0002800C4F2020001AB194612F03DFE46F222
:10CEB0002800C4F202004FF0010112F0C9FE4FF445
:10CEC0009040C4F200004FF040014FF0010218F012
:10CED000B3FB46F22800C4F2020012F009FF034639
:10CEE0001A4640F2E833C2F200031A6046F25800D4
:10CEF000C4F2020012F0FAFC41F66863C2F20003C9
:10CF000003934FF0400304934FF000030A9346F25B
:10CF10005800C4F2020001AB194612F005FE46F2B9
:10CF20005800C4F202004FF0000112F0D5FE46F2A4
:10CF30005800C4F202004FF010014FF0010212F04D
:10CF4000D1FF4FF49040C4F200004FF080014FF049
:10CF5000010218F071FB4FF49040C4F200004FF052
:10CF6000010118F0A7F917B000BD00BF08B546F2DF
:10CF70002800C4F2020012F0BBFE03461A4640F23B
:10CF8000E833C2F200031B689A420CBF002301235E
:10CF90009BB2184608BD00BF82B040F2E833C2F22F
:10CFA00000031B68C3F5006241F26863C2F200032C
:10CFB0009B5C8DF8073040F2E833C2F200031B6837
:10CFC00003F1FF3240F2E833C2F200031A6040F28C
:10CFD000E833C2F200031B68002B06D140F2E833AD
:10CFE000C2F200034FF400621A609DF80730184641
:10CFF00002B0704708B500BFFFF7B8FF0346002B2B
:10D00000FAD0FFF7C9FF0346184608BD00B583B044
:10D0100003468DF8073040F2EE33C2F200031B885E
:10D020001A4641F66863C2F200039DF8071099544E
:10D0300040F2EE33C2F200031B8803F101034FEA12
:10D04000E3724FEA52529B184FEA43534FEA53534D
:10D050009B1A9AB240F2EE33C2F200031A8046F2F3
:10D060005800C4F2020012F0A3FE0346002B05D1C3
:10D07000FFF710FE4FF06400FFF7E0FA03B000BDC9
:10D0800000B583B0019009E0019B1B78DBB2019AE7
:10D0900002F1010201921846FFF7B8FF019B1B78CD
:10D0A000002BF1D103B000BD00B585B002AB18462E
:10D0B00013F068FF4FF008004FF0010115F098F8E9
:10D0C0004FF4006302934FF001038DF80C304FF0E2
:10D0D00002038DF80D304FF001038DF80E304FF440
:10D0E0004060C4F2020002AB194613F0ADFE4FF4EB
:10D0F0004060C4F202004FF4006113F0D3FF4FF020
:10D10000C800FFF7D5FA4FF44060C4F202004FF4B4
:10D11000006113F0BBFF40F25403C2F2000300931E
:10D1200042F26860C2F200004FF0010140F21402C6
:10D13000C2F2000240F2D413C2F2000310F0B4FFB6
:10D1400005B000BD08B5FBF759F90346B3F1FF3F41
:10D1500002D14FF0010301E04FF00003184608BD73
:10D1600008B540F2F033C2F200031B78012B03D163
:10D17000FBF77CF9034601E04FF000035BB2184671
:10D1800008BD00BF00B583B0019040F2F033C2F299
:10D1900000031B78012B07D101981CF005FD034605
:10D1A00001981946FBF7A4F803B000BD08B540F29A
:10D1B000F133C2F200034FF001021A7040F2514302
:10D1C000C2F200034FF000021A7049F6D450C0F6C4
:10D1D0000200FFF7D7FF49F6E850C0F60200FFF75C
:10D1E000D1FF49F62460C0F60200FFF7CBFF49F6F5
:10D1F0006060C0F60200FFF7C5FF00BFFFF7A2FFA7
:10D200000346002BFAD0FFF7ABFF03461A4640F265
:10D210008453C2F200031A7040F28453C2F2000336
:10D220001B785BB2592B0DD049F69860C0F602000E
:10D23000FFF7A8FF40F2F133C2F200034FF0000203
:10D240001A7092E049F6B860C0F60200FFF79AFF44
:10D2500049F6D860C0F60200FFF794FF49F6F8607F
:10D26000C0F60200FFF78EFF49F61870C0F6020004
:10D27000FFF788FF00E000BF00BFFFF763FF034632
:10D28000002BFAD0FFF76CFF03461A4640F2845396
:10D29000C2F200031A7040F28453C2F200031B78FA
:10D2A0005BB2A3F16803102BE5D801A252F823F07A
:10D2B000F5D2000877D2000877D2000877D20008AC
:10D2C00031D3000813D3000877D2000877D20008C2
:10D2D00077D2000877D2000877D2000877D200080A
:10D2E00077D2000877D2000877D2000877D20008FA
:10D2F00045D3000849F63070C0F60200FFF742FF40
:10D3000042F6EC53C2F20003DB6F184608F002FD50
:10D310002AE049F64C70C0F60200FFF733FF42F6F0
:10D32000EC53C2F20003DB6E184608F0F3FC1BE07E
:10D3300049F66870C0F60200FFF724FF0B4808F0BA
:10D34000E9FC11E049F68470C0F60200FFF71AFF0D
:10D35000064808F0DFFC40F2F133C2F200034FF060
:10D3600000021A7000BF00E085E708BD0000FA4423
:10D3700000B5ADF50C4DBBB04FF000030DF50C4200
:10D3800002F1E602138040F2F233C2F200034FF0E2
:10D3900001021A7049F6B470C0F60200FFF7F2FEFF
:10D3A00049F6D470C0F60200FFF7ECFE4AF208001E
:10D3B000C0F60200FFF7E6FE4AF23000C0F60200B7
:10D3C000FFF7E0FE00BFFFF7BDFE0346002BFAD0DB
:10D3D0004AF27400C0F60200FFF7D4FEFFF7C0FE69
:10D3E00081E0FBF789F90346012B78D10DF50C4359
:10D3F00003F1E603198840F2FC43C2F200031B88E4
:10D400001BB207EE903AB8EEE77A40F20453C2F24C
:10D410000003D3ED007A67EE277A3AAAA2F1C80298
:10D420000B464FEA43035B184FEA8303D318C3ED5F
:10D43000007A0DF50C4202F1E602118840F2FC433D
:10D44000C2F200035B881BB207EE903AB8EEE77AAF
:10D4500040F20453C2F20003D3ED017A67EE277A5B
:10D460003AAAA2F1C8020B464FEA43035B184FEAFF
:10D470008303D31803F10403C3ED007A0DF50C42C6
:10D4800002F1E602118840F2FC43C2F200039B88DD
:10D490001BB207EE903AB8EEE77A40F20453C2F2BC
:10D4A0000003D3ED027A67EE277A3AAAA2F1C80206
:10D4B0000B464FEA43035B184FEA8303D31803F18B
:10D4C0000803C3ED007A0DF50C4202F1E602138861
:10D4D00003F101030DF50C4202F1E60213804FF057
:10D4E0001400FFF7E5F8FFF72DFE0346002B09D1E6
:10D4F0000DF50C4303F1E6031A8840F6B8339A425F
:10D500007FF66FAF0DF50C4202F1E6021388184664
:10D510000DF50C4303F1CC0319464FF00A020CF051
:10D5200019FF4AF29000C0F60200FFF72BFE0DF53E
:10D530000C4303F1CC031846FFF724FE4AF2B40073
:10D54000C0F60200FFF71EFE3AABA3F1C8030DF5CB
:10D550000C4202F1E60211880DF50C4202F1C00204
:10D5600000923AAAA2F1D40201923AAAA2F1D802F8
:10D57000029218464FF06402774B0CF0EFFF3AAB83
:10D58000A3F1D4031B68184618F0B8F90DF50C4345
:10D5900003F1E00318600DF50C4202F1E00213689C
:10D5A000012B09D00DF50C4202F1E0021368002BAB
:10D5B00002D04FF0010301E04FF00003002B00F018
:10D5C000B9803AABA3F1D4035B68184618F096F91A
:10D5D0000DF50C4303F1DC0318600DF50C4202F16C
:10D5E000DC021368012B09D00DF50C4202F1DC02BC
:10D5F0001368002B02D04FF0010301E04FF000034D
:10D60000002B00F097803AABA3F1D4039B68184637
:10D6100018F074F90DF50C4303F1D80318600DF5FB
:10D620000C4202F1D8021368012B09D00DF50C420F
:10D6300002F1D8021368002B02D04FF0010301E081
:10D640004FF00003002B75D03AABA3F1D4031A6856
:10D6500042F6EC53C2F200035A633AABA3F1D4038F
:10D660005A6842F6EC53C2F200039A633AABA3F154
:10D67000D4039A6842F6EC53C2F20003DA634AF22A
:10D68000DC00C0F60200FFF77DFD42F6EC53C2F26B
:10D6900000035B6B18460DF50C4303F1CC031946F0
:10D6A0000CF08EFE0DF50C4303F1CC031846FFF78A
:10D6B00069FD4AF2F800C0F60200FFF763FD42F68A
:10D6C000EC53C2F200039B6B18460DF50C4303F1BB
:10D6D000CC0319460CF074FE0DF50C4303F1CC039A
:10D6E0001846FFF74FFD4AF2F800C0F60200FFF7B8
:10D6F00049FD42F6EC53C2F20003DB6B18460DF510
:10D700000C4303F1CC0319460CF05AFE0DF50C4303
:10D7100003F1CC031846FFF735FD4AF2FC00C0F6D2
:10D720000200FFF72FFD4AF20010C0F60200FFF7DB
:10D7300029FD05E04AF22810C0F60200FFF722FD9D
:10D7400040F2F233C2F200034FF000021A703BB015
:10D750000DF50C4D00BD00BF0000000000B595B0F8
:10D760004FF47A73ADF844304FF4FA63ADF84230B9
:10D77000A74B0D93A64B0E93A54B0F93A44B0A9367
:10D78000A34B0B93A24B0C93A14B1393A04B07936A
:10D790009F4B08939E4B09939D4B04939C4B059381
:10D7A0009B4B06939A4B129340F25833C2F20003FC
:10D7B0004FF001021A704AF25410C0F60200FFF74F
:10D7C000E1FC4AF26C10C0F60200FFF7DBFC4FF000
:10D7D0000003ADF8463093E0FBF746FA40F22053E1
:10D7E000C2F200039B889BB2A3F500539BB29AB28E
:10D7F00040F22053C2F200039A809DED0D7A40F270
:10D800002053C2F200031B881BB206EE903AF8EEDA
:10D81000E67A77EE277ACDED0D7A9DED0E7A40F21D
:10D820002053C2F200035B881BB206EE903AF8EE7A
:10D83000E67A77EE277ACDED0E7A9DED0F7A40F2FB
:10D840002053C2F200039B881BB206EE903AF8EE1A
:10D85000E67A77EE277ACDED0F7A9DED0A7A40F2DF
:10D860005053C2F200031B881BB206EE903AF8EE4A
:10D87000E67A77EE277ACDED0A7A9DED0B7A40F2C3
:10D880005053C2F200035B881BB206EE903AF8EEEA
:10D89000E67A77EE277ACDED0B7A9DED0C7A40F2A1
:10D8A0005053C2F200039B881BB206EE903AF8EE8A
:10D8B000E67A77EE277ACDED0C7A40F21053C2F279
:10D8C00000031B881BB207EE903AB8EEE77ADFED53
:10D8D000517AC7EE277A9FED507A77EE877A9DEDE1
:10D8E000137A77EE277ACDED137ABDF844301846D7
:10D8F000FEF7A4FEBDF8463003F10103ADF8463053
:10D90000BDF84620BDF842309A42FFF465AF9DED68
:10D910000D7ABDF8423006EE903AF8EE667AC7EE20
:10D92000277ACDED0D7A9DED0E7ABDF8423006EEE8
:10D93000903AF8EE667AC7EE277ACDED0E7A9DED35
:10D940000F7ABDF8423006EE903AF8EE667AC7EEEE
