:020000040800F2
:100000000000022015300308F9DC0108FDDC0108BE
:1000100001DD010805DD010809DD0108000000001F
:100020000000000000000000000000000DDD0108DD
:1000300011DD01080000000015DD010891D600085F
:10004000D1300308D1300308D1300308D130030880
:10005000D1300308D1300308D1300308D130030870
:10006000D1300308D1300308D1300308D130030860
:10007000D1300308D1300308F5E30008D13003087C
:10008000D1300308E1DF0008D1300308D130030884
:10009000D1300308D1300308D1300308D130030830
:1000A000D1300308D1300308D13003082DC7000830
:1000B000D1300308D1300308FDC60008D9AD0008CF
:1000C000D1AD0008E9AD0008E1AD0008D13003086A
:1000D000D13003083DC70008D1300308D1300308F0
:1000E000D1300308D130030819DD0108D1300308ED
:1000F000D1300308D1300308D1300308D1300308D0
:10010000D1300308D1300308D1300308D1300308BF
:10011000D1300308D1300308D1300308D1300308AF
:10012000D1300308D1300308D1300308D13003089F
:10013000D1300308D1300308D1300308D13003088F
:10014000D1300308D1300308D13003085DDD010848
:10015000D1300308D1300308D1300308D13003086F
:10016000D1300308D1300308D1300308D13003085F
:10017000D1300308D1300308D1300308D13003084F
:08018000D1300308D13003085F
:1080000010B540F2A874C2F20004237863B940F2BC
:108010000000C0F2000028B14BF2C800C0F6030017
:10802000AFF300800121217010BD00BF08B540F200
:108030000003C0F200034BB14BF2C80040F2AC7138
:10804000C0F60300C2F20001AFF3008040F2A4705A
:10805000C2F20000016829B140F20003C0F200033F
:1080600003B1984708BD00BF00B585B001904FF03F
:1080700001004FF001011EF01FF84FF4D853029396
:108080004FF003038DF80D304FF002038DF80C30E4
:108090004FF000038DF80E304FF000038DF80F30D5
:1080A0004FF00000C4F2020002AB19461CF030FE93
:1080B0004FF00000C4F202004FF008014FF00A0236
:1080C0001CF092FF4FF00000C4F202004FF00901D3
:1080D0004FF00A021CF088FF4FF00000C4F20200CB
:1080E0004FF00B014FF00A021CF07EFF4FF0000032
:1080F000C4F202004FF00C014FF00A021CF074FFB2
:108100004FF4806302934FF001038DF80E304FF06F
:1081100001038DF80F304FF003038DF80D304FF051
:108120000000C4F2020002AB19461CF0F1FD4FF052
:108130000000C4F202004FF00A014FF00A021CF0E6
:1081400053FF4FF480404FF001011EF04DF84FF007
:1081500080004FF001011DF0D5FF4FF080504FF02F
:1081600001011EF0D9F805B000BD00BF00B585B013
:1081700001904FF4C0601BF035FA4FF043038DF8C7
:108180000C304FF001038DF80D304FF003038DF8E4
:108190000E304FF001038DF80F3003AB18461BF083
:1081A0002FFA05B000BD00BF84B001904FF000036E
:1081B0000393019A13464FEA03139B1A4FEAC30332
:1081C0001A4644F62513C2F29243A3FB0213D21AB5
:1081D0004FEA52029B184FEA9303029300E000BF5C
:1081E000039B03F101030393039A029B9A42F6D97E
:1081F00000BF04B0704700BF00B583B00190019B81
:108200004FF47A7202FB03F31846FFF7CDFF03B079
:1082100000BD00BF40F69013C2F200034FF0000211
:108220001A6040F69413C2F200034FF000021A6085
:108230004FF00003184670474FF000031846704790
:1082400084B0039002910192039B232B4AD801A290
:1082500052F823F0E5820008E5820008E582000874
:10826000E5820008E5820008E5820008E582000852
:10827000E5820008E5820008E5820008E582000842
:10828000E5820008E5820008E5820008E582000832
:10829000E5820008E5820008E5820008E582000822
:1082A000E5820008E5820008E5820008E582000812
:1082B000E5820008E5820008E5820008E582000802
:1082C000E5820008E5820008E5820008E5820008F2
:1082D000E5820008E5820008E5820008E5820008E2
:1082E000E582000800BF4FF00003184604B0704755
:1082F00084B0019000914FF0000303932CE040F60E
:108300004413C2F200031A680199039BCB18197831
:1083100043F21473C2F20003995440F64413C2F2BC
:1083200000031B6803F1010240F64413C2F200038C
:108330001A6040F64413C2F200031B68B3F5006FE5
:1083400006D140F64413C2F200034FF000021A6057
:10835000039B03F101030393039A009B9A42CED33C
:108360004FF00003184604B0704700BF84B001907E
:1083700000914FF00003039337E040F69013C2F2F0
:1083800000031A680199039BCB18197840F69813DB
:10839000C2F20003995440F69013C2F200031B6826
:1083A00003F1010240F69013C2F200031A6040F696
:1083B0009013C2F200031B68632B06DD40F6901396
:1083C000C2F200034FF000021A6040F69013C2F2AE
:1083D00000031A6840F69813C2F200034FF0000140
:1083E0009954039B03F101030393039A009B9A4260
:1083F000C3D34FF00003184604B0704740F69413FF
:10840000C2F200031A6840F69013C2F200031B6820
:108410009A4202D04FF0FF0301E04FF000035BB23D
:108420001846704782B040F69413C2F200031A68EF
:1084300040F69013C2F200031B689A420CD040F63B
:108440009413C2F200031A6840F69813C2F20003B4
:108450009B5C8DF8073003E04FF000038DF8073088
:108460009DF807305BB2184602B0704782B040F604
:108470009413C2F200031A6840F69013C2F200038C
:108480001B689A4226D040F69413C2F200031A6881
:1084900040F69813C2F200039B5C8DF8073040F65B
:1084A0009413C2F200031B6803F1010240F6941317
:1084B000C2F200031A6040F69413C2F200031B6874
:1084C000632B0BDD40F69413C2F200034FF0000261
:1084D0001A6003E04FF000038DF807309DF8073075
:1084E0005BB2184602B0704708B500BFFFF786FFC1
:1084F0000346002BFAD0FFF7B9FF0346184608BD24
:1085000082B0034600918DF80730009B4FF01202B5
:108510001A8040F23003C2F20003184602B07047DE
:1085200082B0034600918DF80730009B4FF00402A3
:108530001A8040F25003C2F20003184602B070479E
:1085400000B583B0034600918DF807309DF80730E1
:10855000002B0BD143F2D400C0F6030043F2546168
:10856000C2F20001009A1AF085FC0AE043F2F8001A
:10857000C0F6030043F25461C2F20001009A1AF0FF
:1085800079FC43F25463C2F20003184603B000BD05
:1085900000B583B0034600918DF8073043F21C10FC
:1085A000C0F6030043F25461C2F20001009A1AF0CF
:1085B00061FC43F25463C2F20003184603B000BDED
:1085C00000B583B0034600918DF807309DF8073061
:1085D000002B0BD143F23010C0F6030043F254617C
:1085E000C2F20001009A1AF045FC0AE043F2401082
:1085F000C0F6030043F25461C2F20001009A1AF07F
:1086000039FC43F25463C2F20003184603B000BDC4
:1086100000B583B0034600918DF807309DF8073010
:10862000002B0BD143F25010C0F6030043F254610B
:10863000C2F20001009A1AF01DFC0AE043F2501049
:10864000C0F6030043F25461C2F20001009A1AF02E
:1086500011FC43F25463C2F20003184603B000BD9C
:1086600000B583B0034600918DF807309DF80730C0
:10867000002B0BD143F25C10C0F6030043F25461AF
:10868000C2F20001009A1AF0F5FB0AE043F25C1016
:10869000C0F6030043F25461C2F20001009A1AF0DE
:1086A000E9FB43F25463C2F20003184603B000BD75
:1086B000704700BF82B003468DF8073002B07047A4
:1086C00040F6AC03C2F200034FF001021A7070478B
:1086D00040F6AC03C2F200034FF000021A7070477C
:1086E00040F6AC03C2F200034FF001021A7070476B
:1086F000704700BF704700BF00B587B0039004AB60
:10870000009303984FF01E014FF003024FF0060351
:1087100002F086FC9DF8102040F6FC13C2F2000324
:10872000DA709DF8112040F6FC13C2F200039A7033
:108730009DF8122040F6FC13C2F200035A719DF816
:10874000132040F6FC13C2F200031A719DF81420A6
:1087500040F6FC13C2F200035A709DF8152040F653
:10876000FC13C2F200031A7040F6FC13C2F20003BD
:108770001B881BB213F5805F11D040F6FC13C2F2C8
:1087800000035B881BB213F5805F08D040F6FC1332
:10879000C2F200039B881BB213F5805F02D14FF039
:1087A000000301E04FF00103184607B000BD00BF11
:1087B00000B587B003904FF000038DF81430039894
:1087C0004FF01E014FF000024FF0710302F00CFC5D
:1087D0004FF0320005F0D8FA03984FF01E014FF029
:1087E00001024FF0200302F0FFFB4FF0140005F0F0
:1087F000CBFA40F60423C2F20003784A1A6040F62E
:108800000423C2F20003754A5A6040F60423C2F200
:108810000003724A9A604FF000038DF817307BE036
:1088200003984FF01E014FF002024FF0010302F0D7
:10883000DBFB4FF0140005F0A7FA0AE005AB00934C
:1088400003984FF01E014FF009024FF0010302F0B0
:10885000E7FB9DF8143003F00103002BEED00398E2
:10886000FFF74AFF40F60423C2F2000393ED007ABB
:1088700040F6FC13C2F200031B881BB206EE903ACE
:10888000F8EEE67ADFED536AC6EEA77A77EE277A3E
:1088900040F60423C2F20003C3ED007A40F604233D
:1088A000C2F2000393ED017A40F6FC13C2F200031A
:1088B0005B881BB206EE903AF8EEE67ADFED456A89
:1088C000C6EEA77A77EE277A40F60423C2F20003B9
:1088D000C3ED017A40F60423C2F2000393ED027A5D
:1088E00040F6FC13C2F200039B881BB206EE903ADE
:1088F000F8EEE67ADFED386AC6EEA77A77EE277AE9
:1089000040F60423C2F20003C3ED027A9DF817304B
:1089100003F101038DF817309DF81730092B7FF60E
:108920007FAF40F60423C2F2000393ED007AF2EE2B
:10893000047AC7EE277AF0EEE77A40F60423C2F213
:108940000003C3ED007A40F60423C2F2000393ED66
:10895000017AF2EE047AC7EE277AF0EEE77A40F673
:108960000423C2F20003C3ED017A40F60423C2F2ED
:10897000000393ED027AF2EE047AC7EE277AF0EE66
:10898000E77A40F60423C2F20003C3ED027A0398AB
:108990004FF01E014FF000024FF0700302F024FB75
:1089A0004FF0320005F0F0F903984FF01E014FF040
:1089B00002024FF0000302F017FB4FF0140005F025
:1089C000E3F90398FFF798FE4FF0140005F0DCF987
:1089D00007B000BDCD0C9E44672693440000000004
:1089E00008B54FF48060C4F202004FF480711CF0AF
:1089F000BDFA4FF47050C4F200004FF06B0104F068
:108A0000D5FC4FF47050C4F200004FF0800104F028
:108A1000CDFC4FF48060C4F202004FF480711CF072
:108A200099FA4FF0960005F0AFF94FF48060C4F268
:108A300002004FF480711CF099FA4FF47050C4F2A8
:108A400000004FF06B0104F0B1FC4FF47050C4F221
:108A500000004FF0030104F0A9FC4FF48060C4F261
:108A600002004FF480711CF075FA4FF0010005F020
:108A700051F94FF48060C4F202004FF480711CF091
:108A800075FA4FF47050C4F200004FF06A0104F020
:108A90008DFC4FF47050C4F200004FF0100104F050
:108AA00085FC4FF48060C4F202004FF480711CF02A
:108AB00051FA4FF0010005F02DF94FF48060C4F237
:108AC00002004FF480711CF051FA4FF47050C4F260
:108AD00000004FF06C0104F069FC4FF47050C4F2D8
:108AE00000004FF0000104F061FC4FF48060C4F21C
:108AF00002004FF480711CF02DFA4FF0010005F0D8
:108B000009F94FF48060C4F202004FF480711CF048
:108B10002DFA4FF47050C4F200004FF0190104F028
:108B200045FC4FF47050C4F200004FF0000104F017
:108B30003DFC4FF48060C4F202004FF480711CF0E1
:108B400009FA4FF0010005F0E5F84FF48060C4F237
:108B500002004FF480711CF009FA4FF47050C4F217
:108B600000004FF01A0104F021FC43F2F423C2F29A
:108B7000000393F85C304FF47050C4F200001946C3
:108B800004F014FC4FF48060C4F202004FF48071D2
:108B90001CF0E0F94FF0010005F0BCF84FF48060E4
:108BA000C4F202004FF480711CF0E0F94FF47050F1
:108BB000C4F200004FF01C0104F0F8FB4FF47050B9
:108BC000C4F200004FF0080104F0F0FB4FF48060A5
:108BD000C4F202004FF480711CF0BCF94FF00100A8
:108BE00005F098F84FF48060C4F202004FF48071F1
:108BF0001CF0BCF94FF47050C4F200004FF01B01A0
:108C000004F0D4FB4FF47050C4F200004FF0100198
:108C100004F0CCFB4FF48060C4F202004FF480718A
:108C20001CF098F94FF47050C4F200004FF00201AC
:108C300004F010FC4FF0640005F0A6F800F0EEF828
:108C400008BD00BF08B54FF48060C4F202004FF4C5
:108C500080711CF08BF94FF47050C4F200004FF09B
:108C6000BB0104F0A3FB4FF47050C4F200004FF0BE
:108C7000000104F09BFB03461A4640F62023C2F293
:108C800000035A704FF47050C4F200004FF000011E
:108C900004F08CFB03461A4640F62023C2F2000380
:108CA0001A704FF47050C4F200004FF0000104F04D
:108CB0007DFB03461A4640F62023C2F20003DA7019
:108CC0004FF47050C4F200004FF0000104F06EFB4E
:108CD00003461A4640F62023C2F200039A704FF46E
:108CE0007050C4F200004FF0000104F05FFB034637
:108CF0001A4640F62023C2F200035A714FF4705016
:108D0000C4F200004FF0000104F050FB03461A4685
:108D100040F62023C2F200031A714FF47050C4F2DF
:108D200000004FF0000104F041FB03461A4640F6F4
:108D30001023C2F200035A704FF47050C4F20000C6
:108D40004FF0000104F032FB03461A4640F61023B0
:108D5000C2F200031A704FF47050C4F200004FF0DA
:108D6000000104F023FB03461A4640F65023C2F2EA
:108D700000035A704FF47050C4F200004FF000012D
:108D800004F014FB03461A4640F65023C2F20003D7
:108D90001A704FF47050C4F200004FF0000104F05C
:108DA00005FB03461A4640F65023C2F20003DA7070
:108DB0004FF47050C4F200004FF0000104F0F6FAD6
:108DC00003461A4640F65023C2F200039A704FF44D
:108DD0007050C4F200004FF0000104F0E7FA0346BF
:108DE0001A4640F65023C2F200035A714FF47050F5
:108DF000C4F200004FF0000104F0D8FA03461A460E
:108E000040F65023C2F200031A714FF48060C4F29E
:108E100002004FF480711CF09DF808BD00B589B0C8
:108E20009A4B0493994B0593984B0693974B019358
:108E3000964B0293954B039340F2F873C2F20003F2
:108E40004FF001021A704FF00003ADF81C309DE0A6
:108E5000FFF7F8FE00F01CF99DED047A40F62023A0
:108E6000C2F200031B881BB207EE903AF8EEE76AE5
:108E700040F2E073C2F20003D3ED007A76EEE77AB7
:108E800077EE277ACDED047A9DED057A40F6202322
:108E9000C2F200035B881BB207EE903AF8EEE76A75
:108EA00040F2E073C2F20003D3ED017A76EEE77A86
:108EB00077EE277ACDED057A9DED067A40F62023F0
:108EC000C2F200039B881BB207EE903AF8EEE76A05
:108ED00040F2E073C2F20003D3ED027A76EEE77A55
:108EE00077EE277ACDED067A9DED017A40F6502394
:108EF000C2F200031B881BB207EE903AF8EEE76A55
:108F000040F61423C2F20003D3ED007A76EEE77A3E
:108F100077EE277ACDED017A9DED027A40F6502367
:108F2000C2F200035B881BB207EE903AF8EEE76AE4
:108F300040F61423C2F20003D3ED017A76EEE77A0D
:108F400077EE277ACDED027A9DED037A40F6502335
:108F5000C2F200039B881BB207EE903AF8EEE76A74
:108F600040F61423C2F20003D3ED027A76EEE77ADC
:108F700077EE277ACDED037A4FF47A7004F0CAFECB
:108F8000BDF81C3003F10103ADF81C30BDF81C2006
:108F900041F287339A427FF65BAF4FF000038DF8C2
:108FA0001F3036E09DF81F209DF81F304FEA8303E5
:108FB00008A9CB1813ED047ADFED327AC7EE277AD1
:108FC0009FED317A67EE877A4FEA820308AAD318B9
:108FD00043ED047A9DF81F209DF81F304FEA83036C
:108FE00008A9CB18A3F11C0393ED007ADFED257AD5
:108FF000C7EE277A40F63823C2F200034FEA820216
:109000009B18C3ED007A9DF81F3003F101038DF822
:109010001F309DF81F30022BC4D99DED047ADDED81
:10902000047A27EE277ADDED056ADDED057A66EE36
:10903000A77A37EE277ADDED066ADDED067A66EE71
:10904000A77A77EE277A17EE900A23F037FD0246CB
:109050000B461046194620F08DFD02460B46104681
:10906000194624F019F8024640F27003C2F20003D8
:109070001A6040F2F873C2F200034FF000021A7057
:1090800009B000BD00409C4557E79C3A0000000035
:1090900040F61023C2F200031B881BB207EE903A81
:1090A000B8EEE77ADFED5B7AC7EE277A9FED5A7A62
:1090B00077EE877A40F62823C2F20003C3ED007AE8
:1090C00043F2F423C2F2000393ED017A40F6282321
:1090D000C2F20003D3ED007A67EE277A43F2F4235D
:1090E000C2F2000393ED047A77EE877A40F2E073E0
:1090F000C2F20003C3ED007A43F2F423C2F200038C
:1091000093ED027A40F62823C2F20003D3ED007AF1
:1091100067EE277A43F2F423C2F2000393ED057A57
:1091200077EE877A40F2E073C2F20003C3ED017A72
:1091300043F2F423C2F2000393ED037A40F62823AE
:10914000C2F20003D3ED007A67EE277A43F2F423EC
:10915000C2F2000393ED067A77EE877A40F2E0736D
:10916000C2F20003C3ED027A43F2F423C2F2000319
:1091700093ED077A40F62823C2F20003D3ED007A7C
:1091800067EE277A43F2F423C2F2000393ED0A7AE2
:1091900077EE877A40F61423C2F20003C3ED007A1B
:1091A00043F2F423C2F2000393ED087A40F6282339
:1091B000C2F20003D3ED007A67EE277A43F2F4237C
:1091C000C2F2000393ED0B7A77EE877A40F6142310
:1091D000C2F20003C3ED017A43F2F423C2F20003AA
:1091E00093ED097A40F62823C2F20003D3ED007A0A
:1091F00067EE277A43F2F423C2F2000393ED0C7A70
:1092000077EE877A40F61423C2F20003C3ED027AA8
:10921000704700BF0000AA4300000C42000000009D
:1092200000B587B0039005AB009303984FF077012A
:109230004FF000024FF0030301F0F2FE9DF81420FE
:1092400040F69023C2F200039A709DF8152040F674
:109250009023C2F200035A709DF8162040F6902326
:10926000C2F200031A7003984FF077014FF0FF022B
:109270004FF0480301F0B8FE07B000BD00B587B05D
:10928000039005AB009303984FF077014FF0000275
:109290004FF0030301F0C4FE9DF8142040F678233C
:1092A000C2F200039A709DF8152040F67823C2F2AE
:1092B00000035A709DF8162040F67823C2F200038E
:1092C0001A7003984FF077014FF0FF024FF04803F8
:1092D00001F08AFE07B000BD00B587B0039005AB72
:1092E000009303984FF077014FF000024FF0030313
:1092F00001F096FE9DF8142040F67823C2F2000398
:109300009A709DF8152040F67823C2F200035A7037
:109310009DF8162040F67823C2F200031A700398D5
:109320004FF077014FF0FF024FF0580301F05CFE61
:1093300007B000BD2DE9F00340F69023C2F2000310
:109340001A6840F68823C2F200031B884FEA032301
:10935000D31A1A4640F67423C2F200031A6040F68C
:109360007423C2F200031B681E464FEAE67740F6FC
:109370006C23C2F200031B889CB24FF0000504FB73
:1093800007F206FB05F3D118A6FB0423C9180B4608
:109390004FEA43214FEAD25841EA08084FEAE3591D
:1093A000434603F5FA6240F68423C2F200031A60D2
:1093B000BDE8F003704700BF2DE9F04F89B04FF0D2
:1093C00000024FF00003CDE906234FF000024FF0FA
:1093D0000003CDE9042340F67C23C2F200031B887E
:1093E0004FEA03439A464FF0000B40F67023C2F257
:1093F00000031B889CB24FF0000540F67423C2F2B4
:10940000000319680A464FEAE27302FB05F004FB09
:1094100003F14118A4FB0223C9180B464FEA43612C
:109420004FEAD2160E434FEAE317504659468019C9
:1094300041EB070140F69823C2F20003C3E90001A3
:1094400040F68C23C2F200031B884FEAC3331E464A
:109450004FF0000740F6A023C2F200031B889CB225
:109460004FF0000540F67423C2F2000319680A4663
:109470004FEAE27302FB05F004FB03F14118A4FB81
:109480000223C9180B464FEA03614FEA122841EA4A
:1094900008084FEA23293046394610EB080041EB13
:1094A000090140F6A823C2F20003C3E9000140F617
:1094B0008423C2F200031B68132B7EDC40F6842356
:1094C000C2F200031A684FF63503CFF6FF7303FBB1
:1094D00002F3A3F57A710A464FEAE273CDE9062357
:1094E00040F68423C2F200031A684FF63503CFF624
:1094F000FF7303FB02F3A3F5FA710A464FEAE27326
:10950000CDE9042340F68423C2F200031B6813F163
:109510000F0F52DA40F68423C2F200031A68134692
:109520004FEAC303991A0A464FEAE273DDE90601DE
:10953000801841EB030140F68423C2F200031B684C
:1095400040F2DC5202FB03F422464FEAE273801839
:1095500041EB03016DA3D3E90023121843EB010390
:10956000CDE9062340F68423C2F200031A681346AD
:109570004FEA83039B184FEA430399180A464FEAC0
:10958000E273DDE90401801841EB030140F6842316
:10959000C2F200031B6840F2DC5202FB03F42246D5
:1095A0004FEAE273801841EB03015AA3D3E9002389
:1095B000121843EB0103CDE9042340F69823C2F2CD
:1095C0000003D3E90001DDE90623801A61EB030102
:1095D00040F69823C2F20003C3E9000140F6A82335
:1095E000C2F20003D3E90001DDE90423801A61EB34
:1095F000030140F6A823C2F20003C3E9000140F6CC
:109600008023C2F200031B681C464FF0000540F6A1
:10961000A823C2F20003D3E9002302FB05F004FBF8
:1096200003F14118A4FB0223C9180B464FEAC321DA
:109630004FEA525002900298084302904FEA635159
:10964000039140F69823C2F20003D3E90023DDE939
:109650000201821A61EB03034FEA43414FEAD23021
:1096600000900098084300904FEAE3310191009A7E
:1096700040F66823C2F200031A6040F66823C2F283
:1096800000031B6807EE903AB8EEE77ADFED1E7A2A
:10969000C7EE277A17EE900A23F010FA02460B461F
:1096A0001046194612A3D3E9002320F0C9F8024658
:1096B0000B4611A1D1E9000123F0A0F802460B46A8
:1096C000104619460EA3D3E9002323F04BFA0246B5
:1096D0000B461046194623F0DFFC024643F2B42342
:1096E000C2F20003DA6309B0BDE8F08FAFF3008087
:1096F00000000020965BC83F000000000000F03F23
:109700000000000040A5E54080E6C547DC050000FC
:1097100000000000EE0200000000000000B587B06D
:10972000039003984FF077014FF0FF024FF01E03B4
:1097300001F05AFC4FF00A0004F026FB05AB009341
:1097400003984FF077014FF0A2024FF0020301F0AF
:1097500067FC9DF8142040F68C23C2F200035A7077
:109760009DF8152040F68C23C2F200031A7005AB59
:10977000009303984FF077014FF0A4024FF00203DB
:1097800001F04EFC9DF8142040F67C23C2F2000349
:109790005A709DF8152040F67C23C2F200031A701F
:1097A00005AB009303984FF077014FF0A6024FF0FE
:1097B000020301F035FC9DF8142040F6A023C2F20C
:1097C00000035A709DF8152040F6A023C2F2000352
:1097D0001A7005AB009303984FF077014FF0A80281
:1097E0004FF0020301F01CFC9DF8142040F670239A
:1097F000C2F200035A709DF8152040F67023C2F2A1
:1098000000031A7005AB009303984FF077014FF0F7
:10981000AA024FF0020301F003FC9DF8142040F669
:109820008823C2F200035A709DF8152040F6882361
:10983000C2F200031A7005AB009303984FF0770152
:109840004FF0AC024FF0020301F0EAFB9DF8142048
:1098500040F66C23C2F200035A709DF8152040F6C2
:109860006C23C2F200031A7003984FF077014FF097
:10987000FF024FF0580301F0B7FB4FF00A0004F06D
:1098800083FA0398FFF7CCFC4FF00A0004F07CFA4F
:1098900007B000BDAFF3008010B58AB00590049109
:1098A00013468DF80F304FF000038DF8273043F248
:1098B000F423C2F2000393F84A33002B18D09DED35
:1098C000057AF2EE047A67EE277AFDEEE77A17EE74
:1098D000903AADF824309DED047AF2EE047A67EE0A
:1098E000277AFDEEE77A17EE903AADF8223017E0CE
:1098F0009DED057ADFEDB97A67EE277AFDEEE77A1E
:1099000017EE903AADF824309DED047ADFEDB37A8E
:1099100067EE277AFDEEE77A17EE903AADF822303F
:1099200040F27603C2F200031B88BDF924201BB26B
:109930009A4200F08E8043F2F423C2F2000393F8BF
:109940004A33002B65D0BDF9243013F1630F46DB99
:10995000BDF92430632B42DCBDF92430002B02DA40
:109960004FF02D0401E04FF02004BDF9242046F211
:109970006763C6F2666383FB02134FEAA3014FEAF3
:10998000E273CB1A9BB21BB283EAE370A0EBE370E5
:10999000BDF9242046F26763C6F2666383FB0213B7
:1099A0004FEAA3014FEAE273C91A0B464FEA830359
:1099B0005B184FEA4303D31A9BB21BB2002BB8BF0C
:1099C0005B420090019306AB18464FF0070143F24B
:1099D0006C12C0F60302234623F07EFF25E0BDF99A
:1099E000242046F26763C6F2666383FB02134FEAE4
:1099F000A3014FEAE273CB1A9BB21BB206AA104630
:109A00004FF0070143F27812C0F6030223F064FF1F
:109A10000BE0BDF9243006AA10464FF0070143F2CF
:109A20008012C0F6030223F057FF4FF001030093AA
:109A300006AB18464FF006014FF000024FF001034D
:109A400001F020FF40F27603C2F20003BDF82420AB
:109A50001A809DF80F30012B20D0022B00F0C0801F
:109A6000002B40F0DF8040F27403C2F200031B7849
:109A7000002B00F0D28040F27403C2F200034FF0DA
:109A800000021A704FF0000206AB1A604FF000029D
:109A90009A804FF001038DF82730BEE040F2740346
:109AA000C2F200031B78012B0AD140F27803C2F204
:109AB00000031B88BDF922201BB29A4200F0AF8040
:109AC00040F27403C2F200034FF001021A7040F238
:109AD0007803C2F20003BDF822201A8043F2F42377
:109AE000C2F2000393F84A33002B65D0BDF922304F
:109AF00013F1630F46DBBDF92230632B42DCBDF965
:109B00002230002B02DA4FF02D0401E04FF0200448
:109B1000BDF9222046F26763C6F2666383FB021337
:109B20004FEAA3014FEAE273CB1A9BB21BB283EA5E
:109B3000E370A0EBE370BDF9222046F26763C6F242
:109B4000666383FB02134FEAA3014FEAE273C91A6B
:109B50000B464FEA83035B184FEA4303D31A9BB2C9
:109B60001BB2002BB8BF5B420090019306AB1846B6
:109B70004FF0070143F28812C0F60302234623F098
:109B8000ABFE25E0BDF9222046F26763C6F26663AC
:109B900083FB02134FEAA3014FEAE273CB1A9BB295
:109BA0001BB206AA10464FF0070143F29412C0F60A
:109BB000030223F091FE0BE0BDF9223006AA104605
:109BC0004FF0070143F29C12C0F6030223F084FE1B
:109BD0004FF001038DF8273021E000BFE7FB514033
:109BE00040F27403C2F200031B78022B19D040F23A
:109BF0007403C2F200034FF002021A7006AB18465B
:109C00004FF0070143F2A412C0F6030223F064FEF2
:109C10004FF001038DF8273003E000BF02E000BFE2
:109C200000E000BF9DF82730002B0CD04FF0070359
:109C3000009306AB18464FF006014FF000024FF0BC
:109C4000010301F01FFE0AB010BD00BFF0B589B0DE
:109C50000590049113468DF80F304FF000038DF8F6
:109C60001F3007E140F6B023C2F200031B7818460C
:109C700022F012FF04460D469DF81F2043F2AC135C
:109C8000C0F603039B5C06EE903AF8EE667A17EE98
:109C9000900A22F013FF02460B4696A1D1E900017B
:109CA00022F0ACFD02460B461046194693A3D3E9B9
:109CB000002322F057FF02460B461046194691A397
:109CC000D3E9002322F04EFF02460B4616461F46FC
:109CD000059822F0F3FE02460B463046394622F044
:109CE00041FF02460B462046294622F089FD0246E6
:109CF0000B4614461D469DED047ADFED7D7AC7EED6
:109D0000277A40F6B023C2F200031B781A4640F6C9
:109D1000B123C2F200031B78D31A06EE903AB8EED4
:109D2000E67A67EE877A17EE900A22F0C7FE0246BF
:109D30000B462046294622F063FD02460B4610469C
:109D4000194623F0A9F9024640F6B123C2F20003F6
:109D50001B7807EE903AB8EE677A40F6B323C2F26A
:109D600000031B7806EE903AF8EE667A104617EE7E
:109D7000101A17EE902A14F0BFF907EE900AFCEEC5
:109D8000E77A17EE903A8DF81E309DF81E2048F6BF
:109D90003963C3F6E303A3FB02034FEA9303DAB28A
:109DA0009DF81F1040F60403C2F200035B5C9A4268
:109DB00029D09DF81F2040F60403C2F200039C5CEA
:109DC0009DF81F2043F2AC13C0F603039B5C009385
:109DD0004FF000004FF001014FF00002234601F068
:109DE00051FD9DF81F209DF81E1048F63963C3F6FB
:109DF000E303A3FB01034FEA9303D9B240F6040344
:109E0000C2F2000399549DF81E2048F63963C3F648
:109E1000E303A3FB02134FEA93010B464FEAC3038C
:109E20005B184FEA4303D31ADBB2A3F18003DBB222
:109E3000DBB28DF81B309DF81F2040F60403C2F200
:109E400000039C5C9DF81F2043F2AC13C0F6030393
:109E50009B5C00930DF11B0318464FF001014FF07E
:109E60000002234601F00EFD9DF81F3003F10103AF
:109E70008DF81F309DF81F30052B7FF6F3AE40F2B2
:109E80007A03C2F200031B789DF80F209A422AD071
:109E90009DF80F304FEA4303DBB203F10103DBB25D
:109EA000DBB28DF81C309DF81C30DBB203F10103EE
:109EB000DBB2DBB28DF81D3040F6B623C2F20003F0
:109EC0001B784FF00E02009207AA10464FF00201D5
:109ED0004FF0000201F0D6FC40F27A03C2F2000318
:109EE0009DF80F201A7009B0F0BD00BFAFF30080DD
:109EF000DB0FC93E0000000000002D400000000004
:109F000000002840666666666666F63F10B58CB04F
:109F10000590049113468DF80F304FF000038DF833
:109F200018304FF000038DF819304FF000038DF812
:109F30001A304FF000038DF81B304FF000038DF8FE
:109F40001C3040F6B223C2F200031B781A469DED86
:109F5000047ADFEDD17AC7EE277A40F6B223C2F257
:109F600000031B78194640F6B423C2F200031B78A5
:109F7000CB1A06EE103AB8EEC67A67EE877AFDEE97
:109F8000E77A17EE903AD31807EE903AF8EEE76AC0
:109F900040F6B423C2F200031B7806EE103AB8EE86
:109FA000467A40F6B523C2F200031B7806EE103A5B
:109FB000F8EE467A16EE900A17EE101A17EE902A6F
:109FC00014F09AF807EE900AFCEEE77A17EE903A52
:109FD000DBB28DF818309DF8182048F63963C3F6C7
:109FE000E303A3FB02034FEA93010B464FEAC303CB
:109FF0005B184FEA4303D31ADBB2A3F18003DBB251
:10A00000DBB28DF8233040F60C03C2F200031A785D
:10A010009DF8181048F63963C3F6E303A3FB010368
:10A020004FEA9303DBB29A422FD040F60C03C2F200
:10A0300000031B784FF0070200924FF000004FF032
:10A0400001014FF0000201F01DFC40F60C03C2F2CA
:10A0500000031B784FF0160200924FF000004FF003
:10A0600001014FF0000201F00DFC9DF8182048F6A8
:10A070003963C3F6E303A3FB02134FEA9303DAB297
:10A0800040F60C03C2F200031A7040F60C03C2F251
:10A0900000031B784FF0070200920DF123021046D7
:10A0A0004FF001014FF0000201F0ECFB40F60C0311
:10A0B000C2F200031B784FF0160200920DF123024A
:10A0C00010464FF001014FF0000201F0DBFB43F2BC
:10A0D000B413C0F60303DB781A464FEA4202D318E2
:10A0E0004FEA83039BB2A3F1AE03ADF82C3043F2E9
:10A0F000B413C0F603039B781A464FEA4202D31802
:10A100004FEA83039BB2A3F1AE03ADF82A309DED75
:10A11000057ADFED627A67EE277ACDED097A40F6AF
:10A12000B223C2F200031B784FEA43029DF81C30B1
:10A13000D31A06EE103AF8EEC66A40F6B423C2F21D
:10A1400000031B7807EE903AB8EE677A40F6B52325
:10A15000C2F200031B7806EE103AF8EE467A16EECD
:10A16000900A17EE101A17EE902A13F0C5FF07EEAB
:10A17000900AFCEEE77A17EE903ADBB28DF81930D0
:10A1800040F6B223C2F200031B784FEA43029DF867
:10A190001B30D31A07EE903AF8EEE76A40F6B42384
:10A1A000C2F200031B7806EE103AB8EE467A40F68B
:10A1B000B523C2F200031B7806EE103AF8EE467A99
:10A1C00016EE900A17EE101A17EE902A13F094FF6D
:10A1D00007EE900AFCEEE77A17EE903ADBB28DF8C4
:10A1E0001A3040F6B223C2F200031B78BDF82A20D1
:10A1F00006EE902AB8EE667ADDED097A67EE277AE8
:10A20000FDEEE77A17EE902A9B1A07EE903AF8EEE9
:10A21000E76A40F6B423C2F200031B7806EE103A58
:10A22000B8EE467A40F6B523C2F200031B7806EE7C
:10A23000103AF8EE467A16EE900A17EE101A17EE5C
:10A24000902A13F059FF07EE900AFCEEE77A17EE1A
:10A25000903ADBB28DF81B3040F6B223C2F2000315
:10A260001B78BDF82C2006EE902AB8EE667ADDED5C
:10A27000097A67EE277AFDEEE77A17EE902A9B1AA5
:10A2800007EE903AF8EEE76A40F6B423C2F2000314
:10A290001B7806EE103A03E0DB0F493F3333B33F40
:10A2A000B8EE467A40F6B523C2F200031B7806EEFC
:10A2B000103AF8EE467A16EE900A17EE101A17EEDC
:10A2C000902A13F019FF07EE900AFCEEE77A17EEDA
:10A2D000903ADBB28DF81C304FF001038DF82F302F
:10A2E00084E09DF82F2040F60C03C2F200039A5C34
:10A2F0009DF82F300CA8C31813F8181C48F63963C2
:10A30000C3F6E303A3FB01034FEA9303DBB29A42D4
:10A310002FD09DF82F2040F60C03C2F200039C5C66
:10A320009DF82F3003F1FF3243F2B413C0F603035C
:10A330009B5C00934FF000004FF001014FF00002D2
:10A34000234601F09FFA9DF82F209DF82F300CA98D
:10A35000CB1813F8181C48F63963C3F6E303A3FBC4
:10A3600001034FEA9303D9B240F60C03C2F2000393
:10A3700099549DF82F300CA9CB1813F8182C48F6D7
:10A380003963C3F6E303A3FB02034FEA93010B46D1
:10A390004FEAC3035B184FEA4303D31ADBB2A3F1BE
:10A3A0008003DBB2DBB28DF81F309DF82F2040F622
:10A3B0000C03C2F200039C5C9DF82F3003F1FF32C6
:10A3C00043F2B413C0F603039B5C00930DF11F032B
:10A3D00018464FF001014FF00002234601F052FAF7
:10A3E0009DF82F3003F101038DF82F309DF82F30A9
:10A3F000042B7FF676AF40F27B03C2F200031B789A
:10A400009DF80F209A422AD09DF80F304FEA43035F
:10A41000DBB203F10103DBB2DBB28DF820309DF833
:10A420002030DBB203F10103DBB2DBB28DF8213067
:10A4300040F6B623C2F200031B784FF00E020092E2
:10A4400008AA10464FF002014FF0000201F01AFA7C
:10A4500040F27B03C2F200039DF80F201A700CB08B
:10A4600010BD00BF00B587B003909DED037ADFED0E
:10A47000287A67EE277A9FED277AC7EE877A9FEDD5
:10A48000267A77EE877AFDEEE77A17EE903A9BB25E
:10A490001BB246F2B702CBF20B6282FB0312D21858
:10A4A0004FEA22214FEAE3728A1A4FF4B47101FB9A
:10A4B00002F29B1AADF8163040F27C03C2F20003A0
:10A4C0001B88BDF916201BB29A421FD0BDF9163069
:10A4D00004AA10464FF0060143F2B812C0F6030278
:10A4E00023F0FAF94FF00D03009304AB18464FF038
:10A4F00005014FF000024FF0010301F0C3F940F2F3
:10A500007C03C2F20003BDF816201A8007B000BD1C
:10A5100000003443DB0F49400000B443AFF3008038
:10A5200000B583B040F61403C2F200031B689B8A97
:10A530009BB20193019B03F4E063002B6FD040F6C4
:10A540001403C2F200031B681B8B9BB2009340F6FE
:10A550001403C2F200031B6818464FF480614FF0E9
:10A5600000021BF053F9019B03F40073002B56D13A
:10A5700040F61403C2F200031B681B889BB203F46D
:10A580000073002B4BD140F61403C2F200031B688A
:10A590001B889BB203F48073002B2AD000BF40F6C7
:10A5A0001403C2F200031B681B889BB203F4807380
:10A5B000002BF4D140F61403C2F200031B681846C6
:10A5C0004FF001011AF0F4FE00BF40F61403C2F28E
:10A5D00000031B681B889BB203F40073002BF4D1AB
:10A5E00040F61403C2F200031B68184600F018FF7F
:10A5F00015E040F61403C2F200031B6818464FF042
:10A6000001011AF0D5FE40F61403C2F200031B68E4
:10A6100018464FF440714FF000021BF0F7F840F677
:10A620001403C2F200031A6840F61403C2F20003D6
:10A630001B689B8A9BB223F470639BB2938240F6A3
:10A640001C03C2F200034FF000021A7003B000BDF9
:10A6500030B583B040F61403C2F200031B689B8A36
:10A660009BB28DF807309DF8073003F00103DBB291
:10A67000002B00F08B8040F61403C2F200031A682E
:10A6800040F61403C2F200031B681B889BB223F43C
:10A6900000639BB2138040F61403C2F200031B68F0
:10A6A00018464FF001011AF0BFFE40F62C03C2F22B
:10A6B00000034FF000021A7040F62103C2F20003BB
:10A6C0001B78DBB2002B3FD040F62D03C2F2000313
:10A6D0001B78002B07D140F61E03C2F200031B7843
:10A6E000DBB2FF2B30D140F62D03C2F200034FF056
:10A6F00001021A7040F61F03C2F200031B78DBB29E
:10A70000022B0FD140F61403C2F200031A6840F680
:10A710001403C2F200031B681B889BB243F400635E
:10A720009BB2138040F61403C2F200031A6840F68D
:10A730001D03C2F200031B78DBB2104619464FF02E
:10A7400001021AF051FE10E340F61403C2F20003B6
:10A750001A6840F61D03C2F200031B78DBB21046F4
:10A7600019464FF000021AF03FFE40F61E03C2F2F7
:10A7700000031B78DBB2FF2B00F0F68240F62C03BF
:10A78000C2F200034FF0FF021A70EDE29DF80730AD
:10A7900003F00203002B00F0B880BFF35F8F40F698
:10A7A0001F03C2F200031B78DBB2012B42D140F63B
:10A7B0002103C2F200031B78DBB2002B3AD040F633
:10A7C0002D03C2F200031B78002B33D040F6140394
:10A7D000C2F200031B6818464FF000011AF024FE75
:10A7E000BFF35F8F40F61403C2F200031B681B8B9C
:10A7F0009BB2DBB28DF8063040F61403C2F20003C0
:10A800001B6818464FF001011AF0D2FD40F62E03E6
:10A81000C2F200034FF001021A7040F61403C2F2B4
:10A8200000031B6818464FF480614FF001021AF0D4
:10A83000EDFF9AE240F61403C2F200031B681B8B83
:10A840009BB2DBB28DF80630BFF35F8F40F61F037B
:10A85000C2F200031B78DBB2022B25D140F62103A4
:10A86000C2F200031B78DBB2002B1DD040F62D0393
:10A87000C2F200031B78002B16D040F61403C2F27C
:10A8800000031B6818464FF000011AF0CDFD40F69A
:10A890001403C2F200031B6818464FF480614FF0A6
:10A8A00000021AF0B3FF60E240F61F03C2F2000399
:10A8B0001B78DBB2032B1BD140F62103C2F200034D
:10A8C0001B78DBB2002B13D040F62D03C2F200033D
:10A8D0001B78002B0CD040F61403C2F200031B6857
:10A8E00018464FF480614FF000021AF08FFF3CE2EF
:10A8F00040F61403C2F200031B6818464FF480614F
:10A900004FF001021AF082FF2FE29DF8073003F0AA
:10A910000403002B00F0468140F62E03C2F2000330
:10A920004FF001021A7040F62103C2F200031B78B7
:10A93000DBB2002B00F0DE8040F62D03C2F20003F4
:10A940001B78002B00F0D68040F61F03C2F20003F4
:10A950001B78DBB2022B65D940F61403C2F2000368
:10A960001B6818464FF000011AF05EFD40F6280300
:10A97000C2F200031A6840F62C03C2F200031C78EE
:10A9800063B2D51840F61403C2F200031B681846E0
:10A990001AF082FE03462B70234603F10103DAB25C
:10A9A00040F62C03C2F200031A7040F61403C2F200
:10A9B00000031B6818464FF001011AF0F9FC40F63D
:10A9C0002E03C2F200034FF001021A7040F6280372
:10A9D000C2F200031A6840F62C03C2F200031C788E
:10A9E00063B2D51840F61403C2F200031B68184680
:10A9F0001AF052FE03462B70234603F10103DAB22C
:10AA000040F62C03C2F200031A7040F61403C2F29F
:10AA100000031B6818464FF480614FF001021AF0E2
:10AA2000F5FEB2E040F62E03C2F200031B78002BC5
:10AA30000AD040F61403C2F200031B6818464FF018
:10AA400001011AF0B5FC09E040F61403C2F200035C
:10AA50001B6818464FF001011AF08EFC40F62803DF
:10AA6000C2F200031A6840F62C03C2F200031C78FD
:10AA700063B2D51840F61403C2F200031B681846EF
:10AA80001AF00AFE03462B70234603F10103DAB2E3
:10AA900040F62C03C2F200031A7040F62803C2F2FB
:10AAA00000031A6840F62C03C2F200031C7863B25C
:10AAB000D51840F61403C2F200031B6818461AF0BA
:10AAC000EBFD03462B70234603F10103DAB240F697
:10AAD0002C03C2F200031A7040F62C03C2F20003EA
:10AAE0001B7803F10103DAB240F62C03C2F2000333
:10AAF0001A704AE040F62D03C2F200031B78002BC7
:10AB000007D140F62003C2F200031B78DBB2002B12
:10AB100029D040F62E03C2F200031B78002B0AD086
:10AB200040F61403C2F200031B6818464FF00101FF
:10AB30001AF03EFC09E040F61403C2F200031B6861
:10AB400018464FF001011AF017FC40F62C03C2F230
:10AB500000031B7803F10103DAB240F62C03C2F2C2
:10AB600000031A7011E040F61403C2F200031B68E0
:10AB700018464FF001011AF0FFFB40F62D03C2F218
:10AB800000034FF001021A70FFE700BF40F6140304
:10AB9000C2F200031B681B889BB203F48073002B76
:10ABA000F4D1E2E09DF8073003F04003002B59D0C8
:10ABB00040F62803C2F200031A6840F62C03C2F2E2
:10ABC00000031C7863B2D51840F61403C2F20003E8
:10ABD0001B6818461AF060FD03462B70234603F1EC
:10ABE0000103DAB240F62C03C2F200031A7040F6F9
:10ABF0001F03C2F200031B78DBB21A4640F62C0397
:10AC0000C2F200031B785BB203F103039A420BD13B
:10AC100040F61403C2F200031B6818464FF480612B
:10AC20004FF000021AF0F2FD40F61F03C2F20003DB
:10AC30001B78DBB21A4640F62C03C2F200031B78E5
:10AC40005BB29A4240F0918040F62C03C2F20003BE
:10AC50001B7803F10103DAB240F62C03C2F20003C1
:10AC60001A7082E09DF807305BB2002B7DDA40F667
:10AC70002C03C2F200031B785BB2B3F1FF3F3AD062
:10AC800040F61403C2F20003196840F62403C2F22E
:10AC90000003186840F62C03C2F200031B785AB276
:10ACA00082181278D2B203F10103D8B240F62C0315
:10ACB000C2F200031870084611461AF0E1FC40F693
:10ACC0001F03C2F200031B78DBB21A4640F62C03C6
:10ACD000C2F200031B785BB29A4246D140F61403DD
:10ACE000C2F200031B6818464FF480614FF0000267
:10ACF0001AF08CFD39E040F62C03C2F200031B78F9
:10AD000003F10103DAB240F62C03C2F200031A7019
:10AD100040F61403C2F200031A6840F61E03C2F2A2
:10AD200000031B78DBB2104619461AF0A9FC40F666
:10AD30002103C2F200031B78DBB2002B07D140F6DF
:10AD40001F03C2F200031B78DBB2002B0DD140F6CB
:10AD50001403C2F200031B6818464FF480614FF0E1
:10AD600000021AF053FD00E000BF40F62C03C2F2CF
:10AD700000031B785AB240F61F03C2F200031B788F
:10AD8000DBB203F101039A4220D140F62D03C2F257
:10AD900000034FF000021A7040F62E03C2F20003C7
:10ADA0001B78002B0BD040F61403C2F200031B6883
:10ADB00018464FF440714FF000021AF027FD40F69C
:10ADC0001C03C2F200034FF000021A7003B030BD42
:10ADD00008B5FFF7A5FB08BD08B5FFF739FC08BDAE
:10ADE00008B5FFF79DFB08BD08B5FFF731FC08BDAE
:10ADF00000B589B001908DF803108DF802208DF810
:10AE0000013047F23053069340F61403C2F20003B8
:10AE1000019A1A609DF803304FEA4303DAB240F614
:10AE20001D03C2F200031A7040F61E03C2F20003B3
:10AE30009DF802201A7040F62003C2F200034FF082
:10AE400001021A7040F62103C2F200034FF0000223
:10AE50001A7040F62403C2F2000302AA1A6040F6F8
:10AE60002803C2F2000302AA1A6040F61F03C2F2CE
:10AE700000039DF801201A7040F61C03C2F2000383
:10AE80004FF001021A709DF80130102B02D94FF0DB
:10AE90000003A5E04FF000038DF81F3010E09DF88F
:10AEA0001F309DF81F200A998A18127808A9CB181C
:10AEB00003F8182C9DF81F3003F101038DF81F30A3
:10AEC0009DF81F209DF801309A42E8D340F6140304
:10AED000C2F200031B689B889BB203F40073002B33
:10AEE0002CD140F61403C2F200031B681B889BB2EE
:10AEF00003F48073002B15D100BF40F61403C2F297
:10AF000000031B681B889BB203F40073002BF4D171
:10AF100040F61403C2F200031B6818464FF001010B
:10AF20001AF02AFA40F61403C2F200031B6818460E
:10AF30004FF440714FF001021AF068FC00BF40F678
:10AF40001C03C2F200031B78DBB2002B06D0069B69
:10AF500003F1FF330693069B002BF0D1069B002BD9
:10AF60003CD140F61403C2F200031A684FF4A84320
:10AF7000C4F200039A420DD140F61803C2F2000356
:10AF80001B889BB203F101039AB240F61803C2F288
:10AF900000031A8040F61403C2F200031A684FF44B
:10AFA000B043C4F200039A420DD140F61A03C2F234
:10AFB00000031B889BB203F101039AB240F61A0307
:10AFC000C2F200031A8040F61403C2F200031B68A9
:10AFD000184600F025FA4FF0000301E04FF001039E
:10AFE000184609B000BD00BF00B585B003908DF8CC
:10AFF0000B108DF80A208DF809309DF80B209DF874
:10B000000A300DF109010091039811461A464FF0DC
:10B010000103FFF7EDFE0346184605B000BD00BF73
:10B0200000B585B001908DF803108DF802208DF8E1
:10B03000013047F23053039340F61403C2F2000389
:10B04000019A1A609DF803304FEA4303DAB240F6E2
:10B050001D03C2F200031A7040F61E03C2F2000381
:10B060009DF802201A7040F62003C2F200034FF050
:10B0700000021A7040F62103C2F200034FF00102F1
:10B080001A7040F62803C2F20003069A1A6040F6CE
:10B090002403C2F20003069A1A6040F61F03C2F2AC
:10B0A00000039DF801201A7040F61C03C2F2000351
:10B0B0004FF001021A7040F61403C2F200031B683D
:10B0C0009B889BB203F40073002B2CD140F6140331
:10B0D000C2F200031B681B889BB203F48073002B31
:10B0E00015D100BF40F61403C2F200031B681B8891
:10B0F0009BB203F40073002BF4D140F61403C2F2A8
:10B1000000031B6818464FF001011AF035F940F6AC
:10B110001403C2F200031B6818464FF440714FF04D
:10B1200001021AF073FB00BF40F61C03C2F20003D9
:10B130001B78DBB2002B06D0039B03F1FF33039394
:10B14000039B002BF0D1039B002B3CD140F6140352
:10B15000C2F200031A684FF4A843C4F200039A42F3
:10B160000DD140F61803C2F200031B889BB203F115
:10B1700001039AB240F61803C2F200031A8040F6A7
:10B180001403C2F200031A684FF4B043C4F2000380
:10B190009A420DD140F61A03C2F200031B889BB2FB
:10B1A00003F101039AB240F61A03C2F200031A80B7
:10B1B00040F61403C2F200031B68184600F030F991
:10B1C0004FF0000301E04FF00103184605B000BD49
:10B1D00000B587B0019003AB184619F037FE019A0D
:10B1E0004FF4A843C4F200039A4240F087804FF026
:10B1F000C00303934FF001038DF810304FF00203AA
:10B200008DF811304FF001038DF812304FF480604B
:10B21000C4F2020003AB194619F07AFD4FF48060C6
:10B22000C4F202004FF0C00119F094FE4FF0000389
:10B230008DF817302EE04FF0030002F06BFD00E0B8
:10B2400000BF4FF48060C4F202004FF0400119F0DB
:10B2500035FE0346002BEED04FF48060C4F20200AE
:10B260004FF0400119F082FE4FF0030002F052FD52
:10B270004FF48060C4F202004FF0400119F06AFE02
:10B280004FF0030002F046FD9DF8173003F1010373
:10B290008DF817309DF81730072BD1D94FF4806007
:10B2A000C4F202004FF0800119F060FE4FF003007D
:10B2B00002F030FD4FF48060C4F202004FF0400114
:10B2C00019F054FE4FF0030002F024FD4FF48060AB
:10B2D000C4F202004FF0400119F03CFE4FF00300B1
:10B2E00002F018FD4FF48060C4F202004FF08001BC
:10B2F00019F030FE4FF0030002F00CFD019A4FF4FC
:10B30000B043C4F200039A4240F087804FF4406398
:10B3100003934FF001038DF810304FF002038DF8C6
:10B3200011304FF001038DF812304FF48060C4F2F9
:10B33000020003AB194619F0EBFC4FF48060C4F235
:10B3400002004FF4406119F005FE4FF000038DF844
:10B3500017302EE04FF0030002F0DCFC00E000BFED
:10B360004FF48060C4F202004FF4806119F0A6FD32
:10B370000346002BEED04FF48060C4F202004FF47D
:10B38000806119F0F3FD4FF0030002F0C3FC4FF4AD
:10B390008060C4F202004FF4806119F0DBFD4FF0D1
:10B3A000030002F0B7FC9DF8173003F101038DF89C
:10B3B00017309DF81730072BD1D94FF48060C4F2B5
:10B3C00002004FF4006119F0D1FD4FF0030002F0CC
:10B3D000A1FC4FF48060C4F202004FF4806119F0C8
:10B3E000C5FD4FF0030002F095FC4FF48060C4F2FD
:10B3F00002004FF4806119F0ADFD4FF0030002F040
:10B4000089FC4FF48060C4F202004FF4006119F02F
:10B41000A1FD4FF0030002F07DFC07B000BD00BFAE
:10B4200000B58BB00190019A4FF4A843C4F2000319
:10B430009A4240F087804FF002004FF001011AF06D
:10B440003BFE4FF400104FF001011AF0A7FE0198E7
:10B45000FFF7BEFE08AB184619F0F8FC04AB18461F
:10B4600019F052FF4FF0C00308934FF002038DF81C
:10B4700024304FF002038DF825304FF001038DF892
:10B4800026304FF48060C4F2020008AB194619F070
:10B490003FFC4FF48060C4F202004FF006014FF011
:10B4A000040219F0A1FD4FF48060C4F202004FF0D5
:10B4B00007014FF0040219F097FD4FF4A840C4F2C1
:10B4C00000004FF440714FF000021AF09FF94FF462
:10B4D000A840C4F2000019F0DFFD04AB184619F0D3
:10B4E00013FF4FF4D453C0F2060304934FF4A84063
:10B4F000C4F2000004AB194619F00EFE4FF4A84048
:10B50000C4F200004FF0010119F01AFF4FF02003C0
:10B510008DF80C304FF000038DF80D304FF0000324
:10B520008DF80E304FF001038DF80F3003AB184645
:10B5300018F066F84FF01F038DF80C3003AB184677
:10B5400018F05EF8019A4FF4B043C4F200039A4237
:10B5500040F087804FF002004FF001011AF0ACFD7F
:10B560004FF480004FF001011AF018FE0198FFF728
:10B570002FFE08AB184619F069FC04AB184619F009
:10B58000C3FE4FF4406308934FF002038DF824305C
:10B590004FF002038DF825304FF001038DF826306F
:10B5A0004FF48060C4F2020008AB194619F0B0FBFA
:10B5B0004FF48060C4F202004FF00A014FF0040221
:10B5C00019F012FD4FF48060C4F202004FF00B013D
:10B5D0004FF0040219F008FD4FF4B040C4F200002F
:10B5E0004FF440714FF000021AF010F94FF4B040E0
:10B5F000C4F2000019F050FD04AB184619F084FEA7
:10B600004FF4D453C0F2060304934FF4B040C4F295
:10B61000000004AB194619F07FFD4FF4B040C4F2AE
:10B6200000004FF0010119F08BFE4FF022038DF85E
:10B630000C304FF000038DF80D304FF000038DF803
:10B640000E304FF001038DF80F3003AB184617F0A2
:10B65000D7FF4FF021038DF80C3003AB184617F0DD
:10B66000CFFF0BB000BD00BF82B00190019A4FF434
:10B67000A843C4F200039A4206D140F61803C2F26E
:10B6800000031B889BB205E040F61A03C2F20003D8
:10B690001B889BB2184602B0704700BF00B583B04C
:10B6A0006B46184619F0D2FB4FF008004FF001012D
:10B6B0001AF002FD4FF010004FF001011AF0FCFCEF
:10B6C0004FF0630300934FF001038DF804304FF007
:10B6D00002038DF805304FF48050C4F202006B462F
:10B6E000194619F015FB4FF0900300934FF001033A
:10B6F0008DF804304FF002038DF805304FF44060B0
:10B70000C4F202006B46194619F002FB4FF4805058
:10B71000C4F202004FF0200119F028FC4FF48050D1
:10B72000C4F202004FF0400119F020FC4FF44060D9
:10B73000C4F202004FF0800119F018FC4FF4805061
:10B74000C4F202004FF0010119F010FC4FF48050D8
:10B75000C4F202004FF0020119F008FC4FF44060FF
:10B76000C4F202004FF0100119F000FC03B000BD5C
:10B7700000B583B003468DF807309DF807304FF4CD
:10B780006050C4F20000194601F010FE4FF4605002
:10B79000C4F200004FF0000101F008FE0346184615
:10B7A00003B000BD00B583B002460B468DF80720FC
:10B7B0008DF806309DF807304FF46050C4F2000059
:10B7C000194601F0F3FD9DF806304FF46050C4F2C5
:10B7D0000000194601F0EAFD03B000BD08B540F6CF
:10B7E0003003C2F200031B78002B20D14FF0000081
:10B7F000C4F202004FF0080119F0B8FB40F639031B
:10B80000C2F200031B784FF000001946FFF7CAFF91
:10B810004FF00000C4F202004FF0080119F09AFB4B
:10B8200040F63003C2F200034FF001021A7008BD67
:10B8300008B540F63003C2F200031B78002B20D07D
:10B840004FF00000C4F202004FF0080119F08EFB27
:10B8500040F63603C2F200031B784FF00000194691
:10B86000FFF7A0FF4FF00000C4F202004FF0080104
:10B8700019F070FB40F63003C2F200034FF00002F3
:10B880001A7008BD00B585B001908DF803108DF8D1
:10B8900002208DF801309DF801309BB21A464FEA24
:10B8A0000212D31A4FEA43039AB29DF818309BB2A2
:10B8B000D318ADF80C309DF80230002B01D0FFF703
:10B8C000B7FF4FF00000C4F202004FF0080119F07A
:10B8D0004DFB9DF8023003F00103DBB2002B02D0D8
:10B8E0004FF0100201E04FF000029DF8023003F02B
:10B8F0000203002B02D04FF0080301E04FF00003D9
:10B900001343DAB29DF80330012B0CBF002301234F
:10B91000DBB21343DBB2DBB24FF004001946FFF792
:10B9200041FFBDF80C304FEA13239BB2DBB24FF05E
:10B9300005001946FFF736FFBDF80C30DBB24FF0BB
:10B9400006001946FFF72EFF4FF000038DF80F3069
:10B950001FE0019B002B0FD0019822F0EDF8034669
:10B960001A469DF80F309A4206D39DF80F30019A7F
:10B97000D3181B78DBB201E04FF000034FF0070053
:10B980001946FFF70FFF9DF80F3003F101038DF803
:10B990000F309DF80F209DF803309A42D9D39DF8BF
:10B9A0000330012B05D04FF007004FF0FF01FFF7E8
:10B9B000F9FE4FF00000C4F202004FF0080119F048
:10B9C000C9FA05B000BD00BF00B583B04FF0000359
:10B9D0008DF8073043F2F423C2F2000393F84933A1
:10B9E0008DF807304FF00000C4F202004FF008015C
:10B9F00019F0BCFA4FF0A000FFF7BAFE03468DF82D
:10BA000006304FF00000C4F202004FF0080119F0B8
:10BA1000A1FA9DF8063003F00103DBB2002B03D03E
:10BA20004FF001038DF807309DF8063003F0020354
:10BA3000002B03D04FF000038DF807309DF807303E
:10BA4000002B2AD040F63203C2F200034FF4F0720A
:10BA50001A8040F63403C2F200034FF010021A803D
:10BA600040F63603C2F200034FF048021A7040F667
:10BA70003703C2F200034FF04C021A7040F638034D
:10BA8000C2F200034FF042021A7040F63903C2F2CC
:10BA900000034FF040021A7029E040F63203C2F270
:10BAA00000034FF4C3721A8040F63403C2F200035D
:10BAB0004FF00D021A8040F63603C2F200034FF039
:10BAC00008021A7040F63703C2F200034FF00C026E
:10BAD0001A7040F63803C2F200034FF002021A70E7
:10BAE00040F63903C2F200034FF000021A7040F62C
:10BAF0003403C2F200031B884FEA53039BB2DAB24D
:10BB000040F6B623C2F200031A7040F6B623C2F222
:10BB100000031B781A464FEAC202D3184FEA4303C8
:10BB2000DBB2A3F14803DAB240F6B123C2F200035C
:10BB30001A7040F6B623C2F200031B781A464FEA89
:10BB4000C202D3184FEA4303DBB203F14803DAB26F
:10BB500040F6B323C2F200031A7040F6B623C2F2D5
:10BB600000031B781A464FEAC202D3184FEA430378
:10BB7000DBB203F10A03DAB240F6B023C2F20003EB
:10BB80001A7040F6B623C2F200031B781A464FEA39
:10BB9000C202D3184FEA4303DBB2A3F14803DAB27F
:10BBA00040F6B423C2F200031A7040F6B623C2F284
:10BBB00000031B781A464FEAC202D3184FEA430328
:10BBC000DBB203F14803DAB240F6B523C2F2000358
:10BBD0001A7040F6B623C2F200031B781A464FEAE9
:10BBE000C202D3184FEA4303DBB203F10A03DAB20D
:10BBF00040F6B223C2F200031A7003B000BD00BFCA
:10BC000000B583B0FFF7E0FE4FF00000C4F2020081
:10BC10004FF0080119F0AAF940F63803C2F2000308
:10BC20001B784FF000001946FFF7BCFD4FF00000F5
:10BC3000C4F202004FF0080119F08CF94FF4FA70C9
:10BC400002F0A2F84FF00000C4F202004FF0080129
:10BC500019F08CF94FF000038DF807300FE09DF8D4
:10BC6000073003F11003DBB218464FF00201FFF773
:10BC700099FD9DF8073003F101038DF807309DF819
:10BC800007309AB240F63403C2F200031B889A428E
:10BC9000E5D340F63603C2F200031B784FF00000F4
:10BCA0001946FFF77FFD4FF0640002F06DF84FF08A
:10BCB0000000C4F202004FF0080119F04BF903B084
:10BCC00000BD00BF00B583B04FF00000C4F2020019
:10BCD0004FF0080119F04AF940F63803C2F20003A8
:10BCE0001B784FF000001946FFF75CFD4FF0000095
:10BCF000C4F202004FF0080119F02CF94FF4FA7069
:10BD000002F042F84FF00000C4F202004FF00801C8
:10BD100019F02CF94FF000038DF807300FE09DF873
:10BD2000073003F11003DBB218464FF00201FFF7B2
:10BD300039FD9DF8073003F101038DF807309DF8B8
:10BD400007309AB240F63403C2F200031B889A42CD
:10BD5000E5D340F63603C2F200031B784FF0000033
:10BD60001946FFF71FFD4FF00000C4F202004FF02C
:10BD7000080119F0EFF803B000BD00BF00B583B0B3
:10BD80004FF00000C4F202004FF0080119F0EEF885
:10BD90004FF004004FF00401FFF704FD4FF00000E6
:10BDA000C4F202004FF0080119F0D4F84FF001007E
:10BDB00001F0EAFF4FF00000C4F202004FF008016A
:10BDC00019F0D4F84FF004004FF00101FFF7EAFC3E
:10BDD0004FF005004FF00001FFF7E4FC4FF00600C4
:10BDE0004FF02101FFF7DEFC4FF000038DF8063025
:10BDF00035E09DF806304FF007001946FFF7D2FCFA
:10BE00009DF806204AF6AB23CAF6AA23A3FB021329
:10BE10004FEA13110B464FEA43035B184FEAC30383
:10BE2000D31ADBB2172B14D14FF000038DF8073073
:10BE30000BE04FF007004FF00001FFF7B3FC9DF857
:10BE4000073003F101038DF807309DF80730052B0B
:10BE5000EFD99DF8063003F101038DF806309DF807
:10BE60000630FF2BC5D14FF007004FF0FF01FFF761
:10BE700099FC4FF00000C4F202004FF0080119F0E5
:10BE800069F803B000BD00BF08B500BF4FF0A000C7
:10BE9000FFF76EFC034603F02003002BF6D108BD2C
:10BEA00000B585B002460B468DF80720ADF804308A
:10BEB0004FF00000C4F202004FF0080119F056F8EC
:10BEC00040F63903C2F200031B784FF00000194618
:10BED000FFF768FC9DF807304FF009001946FFF79F
:10BEE00061FC4FF000038DF80F301BE09DF80F3020
:10BEF0004FF00A001946FFF755FCBDF804209DF8E5
:10BF00000F30D21843F2C013C0F603039B5C4FF00E
:10BF10000B001946FFF746FC9DF80F3003F10103B3
:10BF20008DF80F309DF80F30352BDFD94FF008001A
:10BF30004FF0A001FFF736FCFFF7A6FF40F63703EE
:10BF4000C2F200031B784FF000001946FFF72AFCED
:10BF50004FF00000C4F202004FF0080118F0FAFFA1
:10BF600005B000BD00B583B047F2C010C0F60300B5
:10BF700002F05EFC4FF00003ADF806302CE0BDF897
:10BF80000630184643F2A821C2F200014FF00A021F
:10BF900012F004F943F2A820C2F2000002F048FCBB
:10BFA000BDF80630DAB2BDF806304FEA83139BB213
:10BFB00010461946FFF774FF4FF01E0001F0E4FE33
:10BFC00047F20020C0F6030002F032FCBDF8063054
:10BFD00003F10103ADF80630BDF80630FF2BCED9D2
:10BFE000FFF770FEFFF7CAFE47F20820C0F6030015
:10BFF00002F01EFC03B000BD00B58DB00346ADF8E5
:10C0000006300AAB184618F021FF07AB18461BF0A4
:10C0100039F902AB18461BF0C5FC4FF001004FF098
:10C0200001011AF049F84FF002004FF001011AF037
:10C0300043F84FF004004FF001011AF03DF84FF0C3
:10C0400001004FF001011AF0A9F84FF002004FF083
:10C0500001011AF0A3F84FF002004FF001011AF0AD
:10C06000C3F84FF400430A934FF002038DF82C30CD
:10C070004FF002038DF82D304FF00000C4F20200A3
:10C080000AAB194618F044FE4FF038030A934FF4F8
:10C090008060C4F202000AAB194618F039FE4FF472
:10C0A00070730A934FF40060C4F202000AAB1946A1
:10C0B00018F02EFE4FF00000C4F202004FF00F0106
:10C0C0004FF0010218F090FF4FF48060C4F20200BC
:10C0D0004FF003014FF0010218F086FF4FF480602B
:10C0E000C4F202004FF004014FF0020218F07CFF8E
:10C0F0004FF48060C4F202004FF005014FF00202DD
:10C1000018F072FF4FF40060C4F202004FF0060115
:10C110004FF0030218F068FF4FF40060C4F2020011
:10C120004FF007014FF0030218F05EFF4FF400607C
:10C13000C4F202004FF008014FF0030218F054FF60
:10C140004FF40060C4F202004FF009014FF0030207
:10C1500018F04AFFBDF8062048F28043C0F21E03E3
:10C1600093FBF2F39BB203F1FF3308934FF02903E3
:10C17000ADF81C304FF0804007AB19461BF002F8B9
:10C180004FF48060C4F2000007AB19461AF0FAFFC2
:10C190004FF48060C4F2010007AB19461AF0F2FFB9
:10C1A0004FF07003ADF808304FF00103ADF80A30DE
:10C1B0004FF4FA6304934FF00203ADF814304FF4D8
:10C1C0008073ADF818304FF0804002AB19461BF079
:10C1D00063F94FF0804002AB19461BF0FBF94FF4B6
:10C1E0008060C4F2000002AB19461BF055F94FF411
:10C1F0008060C4F2000002AB19461BF0EBF94FF46B
:10C200008060C4F2010002AB19461BF045F94FF4FF
:10C210008060C4F2010002AB19461BF0DBF94FF459
:10C220008060C4F2010002AB19461BF087FA4FF49C
:10C230008060C4F2010002AB19461BF02FFB4FF0E7
:10C2400080404FF001011BF00BF94FF48060C4F205
:10C2500000004FF001011BF003F94FF48060C4F2BD
:10C2600001004FF001011BF0FBF84FF080404FF050
:10C2700001011CF057F94FF48060C4F200004FF048
:10C2800001011CF04FF94FF48060C4F201004FF03F
:10C2900001011CF047F90DB000BD00BF82B002469D
:10C2A0000B468DF80720ADF804309DF8072040F2CA
:10C2B0008003C2F2000353F82230BDF804201A6054
:10C2C00002B0704700B58DB00346ADF806300AAB3A
:10C2D000184618F0BBFD07AB18461AF0D3FF02ABA7
:10C2E00018461BF05FFB4FF001004FF0010119F001
:10C2F000E3FE4FF008004FF0010119F04FFF4FF03F
:10C3000007030A934FF002038DF82C304FF002031D
:10C310008DF82D304FF00000C4F202000AAB194630
:10C3200018F0F6FC4FF00000C4F202004FF00201DA
:10C330004FF0020218F058FE4FF00000C4F2020065
:10C340004FF001014FF0020218F04EFE4FF00000D6
:10C35000C4F202004FF000014FF0020218F044FE58
:10C36000BDF8062048F28043C0F21E0393FBF2F3AF
:10C370009BB203F1FF3308934FF02903ADF81C3053
:10C380004FF44060C4F2000007AB19461AF0FAFE01
:10C390004FF07003ADF808304FF00103ADF80A30EC
:10C3A00040F6B83304934FF00203ADF814304FF465
:10C3B0008073ADF818304FF44060C4F2000002AB57
:10C3C00019461BF069F84FF44060C4F2000002AB5C
:10C3D00019461BF0FFF84FF44060C4F200004FF024
:10C3E00001011BF03DF84FF44060C4F200004FF033
:10C3F00001011CF097F80DB000BD00BF82B00246ED
:10C400000B468DF80720ADF804309DF8072040F268
:10C41000A003C2F2000353F82230BDF804201A60D2
:10C4200002B0704700B585B0019001984FF010013F
:10C430001CF032F90346012B1AD140F67C03C2F2FC
:10C4400000031A8840F67E03C2F200031A800198A6
:10C450001BF0B6FF03469AB240F67C03C2F200031B
:10C460001A8040F63C03C2F200034FF001021A703A
:10C4700001984FF010011CF047F940F67C03C2F21E
:10C4800000031A8840F67E03C2F200031B88D31A09
:10C49000ADF80E30BDF80E2041F218539A4207D97C
:10C4A00040F68003C2F200034FF000021A7033E03E
:10C4B000BDF80E2040F2DC539A4220D9BDF80E2080
:10C4C00041F293139A421AD840F68003C2F2000355
:10C4D0001B78072B13D840F68003C2F200031B78A9
:10C4E000194640F64002C2F200020B464FEA4303EF
:10C4F0005B184FEA4303D318BDF80E209A8040F62C
:10C500008003C2F200031B7803F10103DAB240F6A4
:10C510008003C2F200031A7005B000BD00B589B0F7
:10C5200001904FF0000306934FF000038DF81F3089
:10C53000DDE09DF81F3040F2AC02C2F200024FEA8B
:10C54000C303D31893E8030003AB83E803009DF80B
:10C550001F2013464FEA43039B184FEA43031A4632
:10C5600040F64003C2F20003D3180593039A019BDF
:10C570009A4240F0B680039ABDF812301046194630
:10C580001CF08AF80346012B40F0AB80039ABDF8FB
:10C590001230104619461CF0B7F89DF81F30002BDA
:10C5A00006D140F63C03C2F200034FF001021A70BC
:10C5B000BDF810300C2B3DD801A252F823F000BF7B
:10C5C000F5C5000835C6000835C6000835C60008A0
:10C5D00005C6000835C6000835C6000835C600087F
:10C5E00015C6000835C6000835C6000835C600085F
:10C5F00025C60008039B18461BF0CAFE03469BB2E3
:10C60000069317E0039B18461BF0CAFE03469BB235
:10C6100006930FE0039B18461BF0CAFE03469BB22D
:10C62000069307E0039B18461BF0CAFE03469BB225
:10C63000069300BF059B1B78002B1ED1069B9AB268
:10C64000059B5A80059B4FF001021A70BDF810201F
:10C6500040F67003C2F200031A8040F67003C2F283
:10C6600000034FF002025A80039B184640F6700107
:10C67000C2F200011BF0B8FD33E0059B5B881A464F
:10C68000069B9A4208D2069B9AB2059B5B88D31AF6
:10C690009AB2059B9A800AE0069B9AB2059B5B883A
:10C6A000D31A9BB203F1FF339AB2059B9A80059B84
:10C6B0004FF000021A70BDF8102040F67003C2F26D
:10C6C00000031A8040F67003C2F200034FF000022C
:10C6D0005A80039B184640F67001C2F200011BF01D
:10C6E00083FD9DF81F3003F101038DF81F309DF885
:10C6F0001F30072B7FF61DAF09B000BD08B543F210
:10C70000F423C2F2000393F87030022B06D14FF4E9
:10C710000060C4F20000FFF785FE05E04FF4006002
:10C72000C4F20000FFF7FAFE08BD00BF08B54FF0E5
:10C730000000C4F20100FFF7F1FE08BD10B584B09F
:10C740004FF48050C4F2010040F225511CF07CFFF0
:10C750000346012B40F0BA8040F63C03C2F20003CE
:10C760004FF001021A7001F011FA029040F6C02356
:10C77000C2F200031B68029AD21A40F6B823C2F232
:10C7800000031A6040F6C023C2F20003029A1A6046
:10C7900040F6B823C2F200031A6841F288339A4285
:10C7A00006D940F60433C2F200034FF000021A70BB
:10C7B00040F60433C2F200031B781C464FF480504D
:10C7C000C4F201001CF05CFD0346DAB240F6C4235B
:10C7D000C2F200031A5540F60433C2F200031B787C
:10C7E0000F2B07D140F67A03C2F200034FF001028B
:10C7F0001A700CE040F60433C2F200031B7803F118
:10C800000103DAB240F60433C2F200031A7040F6B4
:10C810007A03C2F200031B78002B57D04FF00303BA
:10C820008DF80F3047E09DF80F3003F1FF3240F6EE
:10C83000C423C2F200039B5C1A4640F6BF23C2F237
:10C8400000031B7842FA03F3DBB203F00F038DF809
:10C85000073043F2F423C2F2000393F871309DF8DD
:10C8600007209A4221D29DF807209DF80F3003F14E
:10C87000FF3140F6C423C2F20003595C40F6BC23EA
:10C88000C2F200031B780B40DBB24FEA03219DF894
:10C890000F0040F6C423C2F200031B5CC91840F627
:10C8A000D423C2F2000343F822109DF80F3003F1A5
:10C8B00002038DF80F309DF80F300F2BB3D940F6DF
:10C8C0007A03C2F200034FF000021A7004B010BDE8
:10C8D00000B58BB005AB18461AF0D4FC40F67000DA
:10C8E000C2F200001BF0D2FC6B4618461CF0F0FBB5
:10C8F00043F2F423C2F2000393F87030022B40F0AD
:10C90000C4804FF008004FF0010119F0D5FB4FF043
:10C9100004004FF0010119F041FC40F6BD23C2F2C2
:10C9200000034FF000021A7020E040F6BD23C2F26F
:10C9300000031B78194640F64002C2F200020B4683
:10C940004FEA43035B184FEA4303D31840F6B8326B
:10C950009A8040F6BD23C2F200031B7803F1010365
:10C96000DAB240F6BD23C2F200031A7040F6BD23CE
:10C97000C2F200031B78072BD7D94FF4004308936A
:10C980004FF002038DF824304FF002038DF825306C
:10C990004FF000038DF826304FF000038DF827305C
:10C9A0004FF44060C4F2020008AB194618F0B0F929
:10C9B0004FF44060C4F202004FF00F014FF002024A
:10C9C00018F012FB4FF01E038DF810304FF00203E9
:10C9D0008DF811304FF000038DF812304FF0010345
:10C9E0008DF8133004AB184616F00AFE4FF02903F9
:10C9F000ADF814304FF6FF7306934FF40060C4F2A5
:10CA0000000005AB19461AF0BDFB40F67003C2F2F8
:10CA100000034FF00C021A8040F67003C2F20003CC
:10CA20004FF000025A8040F67003C2F200034FF04C
:10CA300001029A8040F67003C2F200034FF0000238
:10CA4000DA8040F67003C2F200034FF000021A8150
:10CA50004FF40060C4F2000040F67001C2F2000121
:10CA60001BF0C2FB4FF40060C4F200004FF0100155
:10CA70004FF001021BF0B2FD4FF40060C4F2000061
:10CA80004FF001011AF0ECFC13E243F2F423C2F27E
:10CA9000000393F87030012B40F073814FF00800D1
:10CAA0004FF0010119F008FB4FF010004FF00101A9
:10CAB00019F002FB4FF004004FF0010119F06EFB7A
:10CAC0004FF001004FF0010119F08EFB40F6BD233D
:10CAD000C2F200034FF000021A7020E040F6BD23BE
:10CAE000C2F200031B78194640F64002C2F200026F
:10CAF0000B464FEA43035B184FEA4303D31840F653
:10CB0000B8329A8040F6BD23C2F200031B7803F1CD
:10CB10000103DAB240F6BD23C2F200031A7040F6F8
:10CB2000BD23C2F200031B78072BD7D94FF4704303
:10CB300008934FF002038DF824304FF002038DF874
:10CB400025304FF000038DF826304FF002038DF8AA
:10CB500027304FF44060C4F2020008AB194618F0C9
:10CB6000D7F84FF4D44308934FF48050C4F2020036
:10CB700008AB194618F0CCF84FF44060C4F202003C
:10CB80004FF00C014FF0020218F02EFA4FF4406003
:10CB9000C4F202004FF00D014FF0020218F024FA27
:10CBA0004FF44060C4F202004FF00E014FF0020259
:10CBB00018F01AFA4FF44060C4F202004FF00F016F
:10CBC0004FF0020218F010FA4FF48050C4F2020045
:10CBD0004FF009014FF0010218F006FA4FF48050AF
:10CBE000C4F202004FF00B014FF0010218F0FCF903
:10CBF0004FF48050C4F202004FF00D014FF00102DB
:10CC000018F0F2F94FF48050C4F202004FF00E0118
:10CC10004FF0010218F0E8F94FF01E038DF81030C4
:10CC20004FF002038DF811304FF000038DF81230F1
:10CC30004FF001038DF8133004AB184616F0E0FCFA
:10CC40004FF01B038DF8103004AB184616F0D8FCDB
:10CC50004FF02903ADF814304FF6FF7306934FF4ED
:10CC60000060C4F2000005AB19461AF08BFA4FF0D1
:10CC70000000C4F2010005AB19461AF083FA40F631
:10CC80007003C2F200034FF000025A8040F67003B6
:10CC9000C2F200034FF001029A8040F67003C2F224
:10CCA00000034FF00002DA8040F67003C2F2000386
:10CCB0004FF000021A8140F6BD23C2F200034FF08C
:10CCC00000021A7031E040F6BD23C2F200031B7867
:10CCD00040F2AC02C2F200024FEAC303D3189A88B2
:10CCE00040F67003C2F200031A8040F6BD23C2F280
:10CCF00000031B781A4640F2AC03C2F2000353F85B
:10CD00003230184640F67001C2F200011BF06CFA96
:10CD100040F6BD23C2F200031B7803F10103DAB22F
:10CD200040F6BD23C2F200031A7040F6BD23C2F2E2
:10CD300000031B78072BC6D94FF40060C4F2000033
:10CD40004FF01E014FF001021BF048FC4FF00000B5
:10CD5000C4F201004FF01E014FF001021BF03EFC37
:10CD60004FF40060C4F200004FF001011AF078FBAC
:10CD70004FF00000C4F201004FF001011AF070FB07
:10CD800097E043F2F423C2F2000393F87030032BD0
:10CD900040F08F804FF001004FF0010119F08CF945
:10CDA0004FF010004FF0010119F01EFA4FF025036B
:10CDB0008DF810304FF002038DF811304FF0000362
:10CDC0008DF812304FF001038DF8133004AB184684
:10CDD00016F016FC4FF4806308934FF002038DF8B1
:10CDE00024304FF002038DF825304FF000038DF80A
:10CDF00026304FF001038DF827304FF00000C4F2C9
:10CE0000020008AB194617F083FF4FF00000C4F290
:10CE100002004FF00A014FF0070218F0E5F84FF456
:10CE2000E13300934FF00403ADF80A304FF00003F4
:10CE3000ADF80C304FF48050C4F201006B46194637
:10CE40001CF074F84FF48050C4F2010040F22551F8
:10CE50004FF001021CF078FB4FF48050C4F2010047
:10CE60004FF001011CF08AF943F2F423C2F20003EF
:10CE700093F87230002B0ED040F6BF23C2F20003AD
:10CE80004FF003021A7040F6BC23C2F200034FF0C9
:10CE900007021A700DE040F6BF23C2F200034FF004
:10CEA00002021A7040F6BC23C2F200034FF00302E4
:10CEB0001A700BB000BD00BF84B003468DF8073078
:10CEC00043F2F423C2F2000393F87030032B37D1FE
:10CED00043F2F423C2F2000393F871309DF8072067
:10CEE0009A4204D34FF4FA63ADF80E3025E043F2D2
:10CEF000F423C2F2000393F87230002B0DD09DF89A
:10CF0000072040F6D423C2F2000353F822309BB22C
:10CF100003F57A73ADF80E300FE09DF8072040F668
:10CF2000D423C2F2000353F822309BB203F57A7384
:10CF30009BB24FEA4303ADF80E30BDF80E300DE062
:10CF40009DF8071040F64002C2F200020B464FEA7D
:10CF500043035B184FEA4303D3189B88184604B079
:10CF6000704700BF00B585B04FF001004FF00101E0
:10CF700019F0A2F84FF010004FF0010119F09CF8E1
:10CF80004FF4804301934FF000038DF808304FF0C9
:10CF900002038DF809304FF000038DF80A304FF08E
:10CFA00001038DF80B304FF48050C4F2020001AB46
:10CFB000194617F0ADFE4FF48050C4F202004FF452
:10CFC000804117F07BFF0346012B70D043F2F4231E
:10CFD000C2F2000393F87130072B07D840F6BE2346
:10CFE000C2F200034FF003021A7006E040F6BE23BF
:10CFF000C2F200034FF005021A704FF480630193F0
:10D000004FF001038DF808304FF002038DF809301E
:10D010004FF000038DF80A304FF000038DF80B300D
:10D020004FF00000C4F2020001AB194617F070FE89
:10D030004FF00000C4F202004FF480614FF0010293
:10D0400017F0A0FF4FF03C0000F09EFE4FF00003F1
:10D050008DF80F3021E04FF00000C4F202004FF4D1
:10D0600080614FF0000217F08DFF4FF0780000F064
:10D0700051FE4FF00000C4F202004FF480614FF007
:10D08000010217F07FFF4FF0780000F043FE9DF89B
:10D090000F3003F101038DF80F3040F6BE23C2F2CA
:10D0A00000031B789DF80F209A42D4D300E000BF04
:10D0B00005B000BD00B58BB00190019A4FF440530C
:10D0C000C4F201039A4240D14FF001004FF0010138
:10D0D00018F0F2FF4FF480504FF0010119F05EF8A4
:10D0E00008AB184617F0B2FE4FF0E00308934FF07C
:10D0F00002038DF824304FF002038DF825304FF0F5
:10D100000000C4F2020008AB194617F001FE4FF010
:10D110000000C4F202004FF005014FF0050217F0C5
:10D1200063FF4FF00000C4F202004FF006014FF021
:10D13000050217F059FF4FF00000C4F202004FF053
:10D1400007014FF0050217F04FFF019A4FF46053AB
:10D15000C4F200039A4240F08A804FF002004FF080
:10D16000010118F0A9FF4FF480404FF0010119F0C0
:10D1700015F808AB184617F069FE4FF460430893A2
:10D180004FF002038DF824304FF002038DF8253064
:10D190004FF48060C4F2020008AB194617F0B8FDE6
:10D1A0004FF48060C4F202004FF00D014FF0050211
:10D1B00017F01AFF4FF48060C4F202004FF00E0126
:10D1C0004FF0050217F010FF4FF48060C4F2020028
:10D1D0004FF00F014FF0050217F006FF4FF0080364
:10D1E00008934FF001038DF824304FF002038DF8BF
:10D1F00025304FF00000C4F2020008AB194617F0CA
:10D2000087FD4FF00000C4F202004FF0080117F054
:10D21000A1FE03AB184619F0E1FB4FF46050C4F2D5
:10D22000000019F039FA4FF48273ADF80E304FF068
:10D230000203ADF812304FF00103ADF814304FF493
:10D240000073ADF816304FF00803ADF818304FF406
:10D250006050C4F2000003AB194619F05DFA4FF4B8
:10D260006050C4F200004FF0010119F0FBFB019A7D
:10D270004FF47053C4F200039A4240F094804FF090
:10D2800002004FF0010118F017FF4FF004004FF0BB
:10D29000010118F011FF4FF400404FF0010118F0A8
:10D2A0007DFF08AB184617F0D1FD4FF4E05308930B
:10D2B0004FF002038DF824304FF002038DF8253033
:10D2C0004FF40060C4F2020008AB194617F020FDCD
:10D2D0004FF40060C4F202004FF00A014FF0060262
:10D2E00017F082FE4FF40060C4F202004FF00B0111
:10D2F0004FF0060217F078FE4FF40060C4F202000F
:10D300004FF00C014FF0060217F06EFE08AB184606
:10D3100017F09CFD4FF4807308934FF001038DF8D4
:10D3200024304FF002038DF825304FF48060C4F2B2
:10D33000020008AB194617F0EBFC4FF48060C4F212
:10D3400002004FF4807117F005FE03AB184619F088
:10D3500045FB4FF47050C4F2000019F09DF94FF4F2
:10D360008273ADF80E304FF00203ADF812304FF07B
:10D370000103ADF814304FF40073ADF816304FF0E0
:10D380002803ADF818304FF47050C4F2000003AB1E
:10D39000194619F0C1F94FF47050C4F200004FF073
:10D3A000010119F05FFB0BB000BD00BF00B585B0F7
:10D3B00001900B468DF803304FF48053ADF80E30DA
:10D3C00011E0BDF80E30002B14BF00230123DBB2A7
:10D3D000BDF80E2002F1FF32ADF80E20002B02D076
:10D3E0004FF0000332E001984FF0020119F014FDF4
:10D3F0000346002BE5D09DF803309BB201981946F7
:10D4000019F052FC4FF48053ADF80E3011E0BDF826
:10D410000E30002B14BF00230123DBB2BDF80E2019
:10D4200002F1FF32ADF80E20002B02D04FF00003C6
:10D430000CE001984FF0010119F0EEFC0346002BBF
:10D44000E5D0019819F028FC0346DBB2184605B078
:10D4500000BD00BF00B585B001900B46ADF80230AD
:10D4600001984FF0000119F0FDFA019B1B88ADF8FF
:10D470000E30BDF80230102B36D0102B06DC042BFA
:10D4800018D0082B23D0022B0DD06EE0402B45D0B6
:10D49000402B02DC202B34D067E0802B4BD0B3F53F
:10D4A000807F55D061E0BDF80E3023F03803ADF831
:10D4B0000E305AE0BDF80E3023F03803ADF80E30D0
:10D4C000BDF80E3043F00803ADF80E304DE0BDF866
:10D4D0000E3023F03803ADF80E30BDF80E3043F0B7
:10D4E0001003ADF80E3040E0BDF80E3023F03803E5
:10D4F000ADF80E30BDF80E3043F01803ADF80E3025
:10D5000033E0BDF80E3023F03803ADF80E30BDF82F
:10D510000E3043F02003ADF80E3026E0BDF80E309B
:10D5200023F03803ADF80E30BDF80E3043F0280379
:10D53000ADF80E3019E0BDF80E3023F03803ADF829
:10D540000E30BDF80E3043F03003ADF80E300CE075
:10D55000BDF80E3023F03803ADF80E30BDF80E30B4
:10D5600043F03803ADF80E3000BF019BBDF80E202C
:10D570001A8001984FF0010119F074FA05B000BD4E
:10D5800082B0034600918DF807309DF90730002BDB
:10D5900011DA4FF46D43CEF200039DF8072002F03C
:10D5A0000F02A2F10401009AD2B24FEA0212D2B2E3
:10D5B0005B181A760DE04FF46143CEF200039DF93B
:10D5C0000710009AD2B24FEA0212D2B25B1883F867
:10D5D000002302B0704700BF00B583B00190019AEC
:10D5E0006FF07F439A4202D94FF001031FE04EF2E1
:10D5F0001003CEF20003019A22F07F4202F1FF32C3
:10D600005A604FF0FF304FF00F01FFF7B9FF4EF2B5
:10D610001003CEF200034FF000029A604EF21003A6
:10D62000CEF200034FF007021A604FF000031846D5
:10D6300003B000BD00B585B06B46184618F0FEFB80
:10D64000009A4DF68363C4F21B33A3FB02134FEA27
:10D65000934240F68403C2F200031A604EF6F05380
:10D66000CEF200034EF6F052CEF20002D26842F043
:10D670008072DA604FF48053CEF200034FF4805290
:10D68000CEF20002126842F001021A6005B000BD3D
:10D6900000B583B041F20403CEF200031A6840F6ED
:10D6A0008C03C2F200031A6040F68803C2F2000342
:10D6B0001B6803F1010240F68803C2F200031A60FE
:10D6C00040F69803C2F200031B78012B40F05C8205
:10D6D00040F6F403C2F200031B78002B40F05482A2
:10D6E00040F6AD03C2F200031B78002B40F04C82E1
:10D6F00040F6AE03C2F200031B78002B40F04482D8
:10D7000040F2F873C2F200031B78002B40F03C8219
:10D7100040F69003C2F200031B8803F101039AB2A2
:10D7200040F69003C2F200031A8040F69003C2F262
:10D7300000031B88B3F57A7F06D940F69003C2F246
:10D7400000034FF001021A8000F020FA009040F62A
:10D750003C33C2F200031B68009AD21A40F6183319
:10D76000C2F200031A6040F63C33C2F20003009A92
:10D770001A60FBF767FA40F2D473C2F200031A682A
:10D7800040F62023C2F200031B881BB2D21840F2DD
:10D79000D473C2F200031A6040F2D473C2F20003E1
:10D7A0005A6840F62023C2F200035B881BB2D218ED
:10D7B00040F2D473C2F200035A6040F2D473C2F252
:10D7C00000039A6840F62023C2F200039B881BB234
:10D7D000D21840F2D473C2F200039A6040F2C873C8
:10D7E000C2F200031A6840F62023C2F200031B882D
:10D7F0001BB2D21840F2C873C2F200031A6040F2A2
:10D80000C873C2F200035A6840F62023C2F2000334
:10D810005B881BB2D21840F2C873C2F200035A6090
:10D8200040F2C873C2F200039A6840F62023C2F2A5
:10D8300000039B881BB2D21840F2C873C2F20003E7
:10D840009A6040F2EC73C2F200031A6840F650236B
:10D85000C2F200031B881BB2D21840F2EC73C2F272
:10D8600000031A6040F2EC73C2F200035A6840F6FB
:10D870005023C2F200035B881BB2D21840F2EC7353
:10D88000C2F200035A6040F2EC73C2F200039A68DD
:10D8900040F65023C2F200039B881BB2D21840F21C
:10D8A000EC73C2F200039A6040F69003C2F20003E8
:10D8B0001B8803F001039BB2002B49D140F6920371
:10D8C000C2F200034FF001021A704FF000038DF80E
:10D8D000073039E09DF807209DF8071040F2D47317
:10D8E000C2F2000353F8211040F65823C2F200039D
:10D8F00043F822109DF8072040F2D473C2F20003CF
:10D900004FF0000143F822109DF807209DF8071002
:10D9100040F2EC73C2F2000353F8211040F62C23BE
:10D92000C2F2000343F822109DF8072040F2EC7386
:10D93000C2F200034FF0000143F822109DF80730B7
:10D9400003F101038DF807309DF80730022BC1D990
