:020000040800F2
:1000000000000220554E030891FA010895FA0108F4
:1000100099FA01089DFA0108A1FA01080000000000
:10002000000000000000000000000000A5FA010828
:10003000A9FA010800000000ADFA0108D5F0000897
:10004000114F0308114F0308114F0308114F030804
:10005000114F0308114F0308114F0308114F0308F4
:10006000114F0308114F0308114F0308114F0308E4
:10007000114F0308114F0308114F0308114F0308D4
:10008000114F03088DBB0008114F0308114F0308DF
:10009000114F0308114F0308114F0308114F0308B4
:1000A000114F0308114F0308114F030871E10008B5
:1000B000114F0308114F030841E1000809C8000867
:1000C00001C8000819C8000811C80008114F03082A
:1000D000114F0308114F0308114F030881E1000875
:1000E000114F0308114F0308B1FA0108114F03081B
:1000F000114F0308114F0308114F0308114F030854
:10010000114F0308114F0308114F0308114F030843
:10011000114F0308114F0308114F0308114F030833
:10012000114F0308114F0308114F0308114F030823
:10013000114F0308114F0308114F0308114F030813
:10014000114F0308114F0308114F0308F5FA010876
:10015000114F0308114F0308F5F80008114F030869
:10016000114F0308114F0308114F0308114F0308E3
:10017000114F0308114F0308114F0308114F0308D3
:08018000114F0308114F0308A1
:1080000010B540F2A874C2F20004237863B940F2BC
:108010000000C0F2000028B14CF6A070C0F60300CA
:10802000AFF300800121217010BD00BF08B540F200
:108030000003C0F200034BB14CF6A07040F2AC71EB
:10804000C0F60300C2F20001AFF3008040F2A4705A
:10805000C2F20000016829B140F20003C0F200033F
:1080600003B1984708BD00BF00B585B001904FF03F
:1080700001004FF001011FF0EBFE4FF4D8530293C3
:108080004FF003038DF80D304FF002038DF80C30E4
:108090004FF000038DF80E304FF000038DF80F30D5
:1080A0004FF00000C4F2020002AB19461EF0FCFCC7
:1080B0004FF00000C4F202004FF008014FF00A0236
:1080C0001EF05EFE4FF00000C4F202004FF0090106
:1080D0004FF00A021EF054FE4FF00000C4F20200FE
:1080E0004FF00B014FF00A021EF04AFE4FF0000065
:1080F000C4F202004FF00C014FF00A021EF040FEE5
:108100004FF4806302934FF001038DF80E304FF06F
:1081100001038DF80F304FF003038DF80D304FF051
:108120000000C4F2020002AB19461EF0BDFC4FF085
:108130000000C4F202004FF00A014FF00A021EF0E4
:108140001FFE4FF480404FF001011FF019FF4FF068
:1081500080004FF001011FF0A1FE4FF080504FF062
:1081600001011FF0A5FF05B000BD00BF00B585B03F
:1081700001904FF4C0601DF001F94FF043038DF8FA
:108180000C304FF001038DF80D304FF003038DF8E4
:108190000E304FF001038DF80F3003AB18461DF081
:1081A000FBF805B000BD00BF84B001904FF00003A4
:1081B0000393019A13464FEA03139B1A4FEAC30332
:1081C0001A4644F62513C2F29243A3FB0213D21AB5
:1081D0004FEA52029B184FEA9303029300E000BF5C
:1081E000039B03F101030393039A029B9A42F6D97E
:1081F00000BF04B0704700BF00B583B00190019B81
:108200004FF47A7202FB03F31846FFF7CDFF03B079
:1082100000BD00BF40F69413C2F200034FF000020D
:108220001A6040F69813C2F200034FF000021A6081
:108230004FF00003184670474FF000031846704790
:1082400084B0039002910192039B232B4AD801A290
:1082500052F823F0E5820008E5820008E582000874
:10826000E5820008E5820008E5820008E582000852
:10827000E5820008E5820008E5820008E582000842
:10828000E5820008E5820008E5820008E582000832
:10829000E5820008E5820008E5820008E582000822
:1082A000E5820008E5820008E5820008E582000812
:1082B000E5820008E5820008E5820008E582000802
:1082C000E5820008E5820008E5820008E5820008F2
:1082D000E5820008E5820008E5820008E5820008E2
:1082E000E582000800BF4FF00003184604B0704755
:1082F00084B0019000914FF0000303932CE040F60E
:108300004813C2F200031A680199039BCB1819782D
:1083100043F26073C2F20003995440F64813C2F26C
:1083200000031B6803F1010240F64813C2F2000388
:108330001A6040F64813C2F200031B68B3F5006FE1
:1083400006D140F64813C2F200034FF000021A6053
:10835000039B03F101030393039A009B9A42CED33C
:108360004FF00003184604B0704700BF84B001907E
:1083700000914FF00003039337E040F69413C2F2EC
:1083800000031A680199039BCB18197840F69C13D7
:10839000C2F20003995440F69413C2F200031B6822
:1083A00003F1010240F69413C2F200031A6040F692
:1083B0009413C2F200031B68632B06DD40F694138E
:1083C000C2F200034FF000021A6040F69413C2F2AA
:1083D00000031A6840F69C13C2F200034FF000013C
:1083E0009954039B03F101030393039A009B9A4260
:1083F000C3D34FF00003184604B0704740F69813FB
:10840000C2F200031A6840F69413C2F200031B681C
:108410009A4202D04FF0FF0301E04FF000035BB23D
:108420001846704782B040F69813C2F200031A68EB
:1084300040F69413C2F200031B689A420CD040F637
:108440009813C2F200031A6840F69C13C2F20003AC
:108450009B5C8DF8073003E04FF000038DF8073088
:108460009DF807305BB2184602B0704782B040F604
:108470009813C2F200031A6840F69413C2F2000384
:108480001B689A4226D040F69813C2F200031A687D
:1084900040F69C13C2F200039B5C8DF8073040F657
:1084A0009813C2F200031B6803F1010240F698130F
:1084B000C2F200031A6040F69813C2F200031B6870
:1084C000632B0BDD40F69813C2F200034FF000025D
:1084D0001A6003E04FF000038DF807309DF8073075
:1084E0005BB2184602B0704708B500BFFFF786FFC1
:1084F0000346002BFAD0FFF7B9FF0346184608BD24
:1085000082B0034600918DF80730009B4FF01202B5
:108510001A8040F23003C2F20003184602B07047DE
:1085200082B0034600918DF80730009B4FF00402A3
:108530001A8040F25003C2F20003184602B070479E
:1085400000B583B0034600918DF807309DF80730E1
:10855000002B0BD144F61470C0F6030043F2A06167
:10856000C2F20001009A1CF051FB0AE044F6387098
:10857000C0F6030043F2A061C2F20001009A1CF0B1
:1085800045FB43F2A063C2F20003184603B000BDEE
:1085900000B583B0034600918DF8073044F65C7057
:1085A000C0F6030043F2A061C2F20001009A1CF081
:1085B0002DFB43F2A063C2F20003184603B000BDD6
:1085C00000B583B0034600918DF807309DF8073061
:1085D000002B0BD144F67070C0F6030043F2A0618B
:1085E000C2F20001009A1CF011FB0AE044F6807010
:1085F000C0F6030043F2A061C2F20001009A1CF031
:1086000005FB43F2A063C2F20003184603B000BDAD
:1086100000B583B0034600918DF807309DF8073010
:10862000002B0BD144F69070C0F6030043F2A0611A
:10863000C2F20001009A1CF0E9FA0AE044F69070D8
:10864000C0F6030043F2A061C2F20001009A1CF0E0
:10865000DDFA43F2A063C2F20003184603B000BD86
:1086600000B583B0034600918DF807309DF80730C0
:10867000002B0BD144F69C70C0F6030043F2A061BE
:10868000C2F20001009A1CF0C1FA0AE044F69C70A4
:10869000C0F6030043F2A061C2F20001009A1CF090
:1086A000B5FA43F2A063C2F20003184603B000BD5E
:1086B000704700BF82B003468DF8073002B07047A4
:1086C00040F6B003C2F200034FF001021A70704787
:1086D00040F6B003C2F200034FF000021A70704778
:1086E00040F6B003C2F200034FF001021A70704767
:1086F000704700BF704700BF00B587B0039004AB60
:10870000009303984FF01E014FF003024FF0060351
:1087100004F09EF99DF8102040F60423C2F20003F5
:10872000DA709DF8112040F60423C2F200039A701B
:108730009DF8122040F60423C2F200035A719DF8FE
:10874000132040F60423C2F200031A719DF814208E
:1087500040F60423C2F200035A709DF8152040F63B
:108760000423C2F200031A7040F60423C2F200038D
:108770001B881BB213F5805F11D040F60423C2F2B0
:1087800000035B881BB213F5805F08D040F604231A
:10879000C2F200039B881BB213F5805F02D14FF039
:1087A000000301E04FF00103184607B000BD00BF11
:1087B00000B587B003904FF000038DF81430039894
:1087C0004FF01E014FF000024FF0710304F024F946
:1087D0004FF0320006F0ECFF03984FF01E014FF00F
:1087E00001024FF0200304F017F94FF0140006F0D7
:1087F000DFFF40F60C23C2F20003784A1A6040F60D
:108800000C23C2F20003754A5A6040F60C23C2F2F0
:108810000003724A9A604FF000038DF817307BE036
:1088200003984FF01E014FF002024FF0010304F0D5
:10883000F3F84FF0140006F0BBFF0AE005AB00931D
:1088400003984FF01E014FF009024FF0010304F0AE
:10885000FFF89DF8143003F00103002BEED00398CD
:10886000FFF74AFF40F60C23C2F2000393ED007AB3
:1088700040F60423C2F200031B881BB206EE903AB6
:10888000F8EEE67ADFED536AC6EEA77A77EE277A3E
:1088900040F60C23C2F20003C3ED007A40F60C232D
:1088A000C2F2000393ED017A40F60423C2F2000302
:1088B0005B881BB206EE903AF8EEE67ADFED456A89
:1088C000C6EEA77A77EE277A40F60C23C2F20003B1
:1088D000C3ED017A40F60C23C2F2000393ED027A55
:1088E00040F60423C2F200039B881BB206EE903AC6
:1088F000F8EEE67ADFED386AC6EEA77A77EE277AE9
:1089000040F60C23C2F20003C3ED027A9DF8173043
:1089100003F101038DF817309DF81730092B7FF60E
:108920007FAF40F60C23C2F2000393ED007AF2EE23
:10893000047AC7EE277AF0EEE77A40F60C23C2F20B
:108940000003C3ED007A40F60C23C2F2000393ED5E
:10895000017AF2EE047AC7EE277AF0EEE77A40F673
:108960000C23C2F20003C3ED017A40F60C23C2F2DD
:10897000000393ED027AF2EE047AC7EE277AF0EE66
:10898000E77A40F60C23C2F20003C3ED027A0398A3
:108990004FF01E014FF000024FF0700304F03CF85E
:1089A0004FF0320006F004FF03984FF01E014FF025
:1089B00002024FF0000304F02FF84FF0140006F00D
:1089C000F7FE0398FFF798FE4FF0140006F0F0FE54
:1089D00007B000BDCD0C9E44672693440000000004
:1089E00008B54FF48060C4F202004FF480711EF0AD
:1089F00089F94FF47050C4F200004FF06B0106F09B
:108A0000F7F94FF47050C4F200004FF0800106F007
:108A1000EFF94FF48060C4F202004FF480711EF051
:108A200065F94FF0960006F0C3FE4FF48060C4F283
:108A300002004FF480711EF065F94FF47050C4F2DB
:108A400000004FF06B0106F0D3F94FF47050C4F200
:108A500000004FF0030106F0CBF94FF48060C4F240
:108A600002004FF480711EF041F94FF0010006F052
:108A700065FE4FF48060C4F202004FF480711EF076
:108A800041F94FF47050C4F200004FF06A0106F053
:108A9000AFF94FF47050C4F200004FF0100106F02F
:108AA000A7F94FF48060C4F202004FF480711EF009
:108AB0001DF94FF0010006F041FE4FF48060C4F252
:108AC00002004FF480711EF01DF94FF47050C4F293
:108AD00000004FF06C0106F08BF94FF47050C4F2B7
:108AE00000004FF0000106F083F94FF48060C4F2FB
:108AF00002004FF480711EF0F9F84FF0010006F00B
:108B00001DFE4FF48060C4F202004FF480711EF02D
:108B1000F9F84FF47050C4F200004FF0190106F05C
:108B200067F94FF47050C4F200004FF0000106F0F6
:108B30005FF94FF48060C4F202004FF480711EF0C0
:108B4000D5F84FF0010006F0F9FD4FF48060C4F253
:108B500002004FF480711EF0D5F84FF47050C4F24B
:108B600000004FF01A0106F043F943F23433C2F229
:108B7000000393F85C304FF47050C4F200001946C3
:108B800006F036F94FF48060C4F202004FF48071B1
:108B90001EF0ACF84FF0010006F0D0FD4FF48060FD
:108BA000C4F202004FF480711EF0ACF84FF4705024
:108BB000C4F200004FF01C0106F01AF94FF4705097
:108BC000C4F200004FF0080106F012F94FF4806083
:108BD000C4F202004FF480711EF088F84FF00100DB
:108BE00006F0ACFD4FF48060C4F202004FF48071D7
:108BF0001EF088F84FF47050C4F200004FF01B01D3
:108C000006F0F6F84FF47050C4F200004FF0100177
:108C100006F0EEF84FF48060C4F202004FF4807169
:108C20001EF064F84FF47050C4F200004FF00201DF
:108C300006F032F94FF0640006F0BAFD00F0EEF8ED
:108C400008BD00BF08B54FF48060C4F202004FF4C5
:108C500080711EF057F84FF47050C4F200004FF0CE
:108C6000BB0106F0C5F84FF47050C4F200004FF09D
:108C7000000106F0BDF803461A4640F62823C2F26A
:108C800000035A704FF47050C4F200004FF000011E
:108C900006F0AEF803461A4640F62823C2F2000357
:108CA0001A704FF47050C4F200004FF0000106F04B
:108CB0009FF803461A4640F62823C2F20003DA70F2
:108CC0004FF47050C4F200004FF0000106F090F82D
:108CD00003461A4640F62823C2F200039A704FF466
:108CE0007050C4F200004FF0000106F081F8034616
:108CF0001A4640F62823C2F200035A714FF470500E
:108D0000C4F200004FF0000106F072F803461A4664
:108D100040F62823C2F200031A714FF47050C4F2D7
:108D200000004FF0000106F063F803461A4640F6D3
:108D30001823C2F200035A704FF47050C4F20000BE
:108D40004FF0000106F054F803461A4640F6182387
:108D5000C2F200031A704FF47050C4F200004FF0DA
:108D6000000106F045F803461A4640F65823C2F2C1
:108D700000035A704FF47050C4F200004FF000012D
:108D800006F036F803461A4640F65823C2F20003AE
:108D90001A704FF47050C4F200004FF0000106F05A
:108DA00027F803461A4640F65823C2F20003DA7049
:108DB0004FF47050C4F200004FF0000106F018F8B4
:108DC00003461A4640F65823C2F200039A704FF445
:108DD0007050C4F200004FF0000106F009F803469D
:108DE0001A4640F65823C2F200035A714FF47050ED
:108DF000C4F200004FF0000105F0FAFF03461A46E6
:108E000040F65823C2F200031A714FF48060C4F296
:108E100002004FF480711DF069FF08BD00B589B0F4
:108E20009A4B0493994B0593984B0693974B019358
:108E3000964B0293954B039340F2F873C2F20003F2
:108E40004FF001021A704FF00003ADF81C309DE0A6
:108E5000FFF7F8FE00F01CF99DED047A40F6282398
:108E6000C2F200031B881BB207EE903AF8EEE76AE5
:108E700040F2E073C2F20003D3ED007A76EEE77AB7
:108E800077EE277ACDED047A9DED057A40F628231A
:108E9000C2F200035B881BB207EE903AF8EEE76A75
:108EA00040F2E073C2F20003D3ED017A76EEE77A86
:108EB00077EE277ACDED057A9DED067A40F62823E8
:108EC000C2F200039B881BB207EE903AF8EEE76A05
:108ED00040F2E073C2F20003D3ED027A76EEE77A55
:108EE00077EE277ACDED067A9DED017A40F658238C
:108EF000C2F200031B881BB207EE903AF8EEE76A55
:108F000040F61C23C2F20003D3ED007A76EEE77A36
:108F100077EE277ACDED017A9DED027A40F658235F
:108F2000C2F200035B881BB207EE903AF8EEE76AE4
:108F300040F61C23C2F20003D3ED017A76EEE77A05
:108F400077EE277ACDED027A9DED037A40F658232D
:108F5000C2F200039B881BB207EE903AF8EEE76A74
:108F600040F61C23C2F20003D3ED027A76EEE77AD4
:108F700077EE277ACDED037A4FF47A7006F0DEFBB8
:108F8000BDF81C3003F10103ADF81C30BDF81C2006
:108F900041F287339A427FF65BAF4FF000038DF8C2
:108FA0001F3036E09DF81F209DF81F304FEA8303E5
:108FB00008A9CB1813ED047ADFED327AC7EE277AD1
:108FC0009FED317A67EE877A4FEA820308AAD318B9
:108FD00043ED047A9DF81F209DF81F304FEA83036C
:108FE00008A9CB18A3F11C0393ED007ADFED257AD5
:108FF000C7EE277A40F64023C2F200034FEA82020E
:109000009B18C3ED007A9DF81F3003F101038DF822
:109010001F309DF81F30022BC4D99DED047ADDED81
:10902000047A27EE277ADDED056ADDED057A66EE36
:10903000A77A37EE277ADDED066ADDED067A66EE71
:10904000A77A77EE277A17EE900A25F003FC0246FE
:109050000B461046194622F059FC02460B461046B4
:10906000194625F0E5FE024640F27003C2F2000305
:109070001A6040F2F873C2F200034FF000021A7057
:1090800009B000BD00409C4557E79C3A0000000035
:1090900040F61823C2F200031B881BB207EE903A79
:1090A000B8EEE77ADFED5B7AC7EE277A9FED5A7A62
:1090B00077EE877A40F63023C2F20003C3ED007AE0
:1090C00043F23433C2F2000393ED017A40F63023C9
:1090D000C2F20003D3ED007A67EE277A43F234330D
:1090E000C2F2000393ED047A77EE877A40F2E073E0
:1090F000C2F20003C3ED007A43F23433C2F200033C
:1091000093ED027A40F63023C2F20003D3ED007AE9
:1091100067EE277A43F23433C2F2000393ED057A07
:1091200077EE877A40F2E073C2F20003C3ED017A72
:1091300043F23433C2F2000393ED037A40F6302356
:10914000C2F20003D3ED007A67EE277A43F234339C
:10915000C2F2000393ED067A77EE877A40F2E0736D
:10916000C2F20003C3ED027A43F23433C2F20003C9
:1091700093ED077A40F63023C2F20003D3ED007A74
:1091800067EE277A43F23433C2F2000393ED0A7A92
:1091900077EE877A40F61C23C2F20003C3ED007A13
:1091A00043F23433C2F2000393ED087A40F63023E1
:1091B000C2F20003D3ED007A67EE277A43F234332C
:1091C000C2F2000393ED0B7A77EE877A40F61C2308
:1091D000C2F20003C3ED017A43F23433C2F200035A
:1091E00093ED097A40F63023C2F20003D3ED007A02
:1091F00067EE277A43F23433C2F2000393ED0C7A20
:1092000077EE877A40F61C23C2F20003C3ED027AA0
:10921000704700BF0000AA4300000C42000000009D
:1092200000B587B0039005AB009303984FF076012B
:109230004FF000024FF0030303F00AFC9DF81420E6
:1092400040F69823C2F200039A709DF8152040F66C
:109250009823C2F200035A709DF8162040F6982316
:10926000C2F200031A7003984FF076014FF0FF022C
:109270004FF0480303F0D0FB07B000BD00B587B046
:10928000039005AB009303984FF076014FF0000276
:109290004FF0030303F0DCFB9DF8142040F680231D
:1092A000C2F200039A709DF8152040F68023C2F2A6
:1092B00000035A709DF8162040F68023C2F2000386
:1092C0001A7003984FF076014FF0FF024FF04803F9
:1092D00003F0A2FB07B000BD00B587B0039005AB5B
:1092E000009303984FF076014FF000024FF0030314
:1092F00003F0AEFB9DF8142040F68023C2F2000379
:109300009A709DF8152040F68023C2F200035A702F
:109310009DF8162040F68023C2F200031A700398CD
:109320004FF076014FF0FF024FF0580303F074FB4B
:1093300007B000BD2DE9F00340F69823C2F2000308
:109340001A6840F69023C2F200031B884FEA0323F9
:10935000D31A1A4640F67C23C2F200031A6040F684
:109360007C23C2F200031B681E464FEAE67740F6F4
:109370007423C2F200031B889CB24FF0000504FB6B
:1093800007F206FB05F3D118A6FB0423C9180B4608
:109390004FEA43214FEAD25841EA08084FEAE3591D
:1093A000434603F5FA6240F68C23C2F200031A60CA
:1093B000BDE8F003704700BF2DE9F04F89B04FF0D2
:1093C00000024FF00003CDE906234FF000024FF0FA
:1093D0000003CDE9042340F68423C2F200031B8876
:1093E0004FEA03439A464FF0000B40F67823C2F24F
:1093F00000031B889CB24FF0000540F67C23C2F2AC
:10940000000319680A464FEAE27302FB05F004FB09
:1094100003F14118A4FB0223C9180B464FEA43612C
:109420004FEAD2160E434FEAE317504659468019C9
:1094300041EB070140F6A023C2F20003C3E900019B
:1094400040F69423C2F200031B884FEAC3331E4642
:109450004FF0000740F6A823C2F200031B889CB21D
:109460004FF0000540F67C23C2F2000319680A465B
:109470004FEAE27302FB05F004FB03F14118A4FB81
:109480000223C9180B464FEA03614FEA122841EA4A
:1094900008084FEA23293046394610EB080041EB13
:1094A000090140F6B023C2F20003C3E9000140F60F
:1094B0008C23C2F200031B68132B7EDC40F68C2346
:1094C000C2F200031A684FF63503CFF6FF7303FBB1
:1094D00002F3A3F57A710A464FEAE273CDE9062357
:1094E00040F68C23C2F200031A684FF63503CFF61C
:1094F000FF7303FB02F3A3F5FA710A464FEAE27326
:10950000CDE9042340F68C23C2F200031B6813F15B
:109510000F0F52DA40F68C23C2F200031A6813468A
:109520004FEAC303991A0A464FEAE273DDE90601DE
:10953000801841EB030140F68C23C2F200031B6844
:1095400040F2DC5202FB03F422464FEAE273801839
:1095500041EB03016DA3D3E90023121843EB010390
:10956000CDE9062340F68C23C2F200031A681346A5
:109570004FEA83039B184FEA430399180A464FEAC0
:10958000E273DDE90401801841EB030140F68C230E
:10959000C2F200031B6840F2DC5202FB03F42246D5
:1095A0004FEAE273801841EB03015AA3D3E9002389
:1095B000121843EB0103CDE9042340F6A023C2F2C5
:1095C0000003D3E90001DDE90623801A61EB030102
:1095D00040F6A023C2F20003C3E9000140F6B02325
:1095E000C2F20003D3E90001DDE90423801A61EB34
:1095F000030140F6B023C2F20003C3E9000140F6C4
:109600008823C2F200031B681C464FF0000540F699
:10961000B023C2F20003D3E9002302FB05F004FBF0
:1096200003F14118A4FB0223C9180B464FEAC321DA
:109630004FEA525002900298084302904FEA635159
:10964000039140F6A023C2F20003D3E90023DDE931
:109650000201821A61EB03034FEA43414FEAD23021
:1096600000900098084300904FEAE3310191009A7E
:1096700040F67023C2F200031A6040F67023C2F273
:1096800000031B6807EE903AB8EEE77ADFED1E7A2A
:10969000C7EE277A17EE900A25F0DCF802460B4653
:1096A0001046194612A3D3E9002321F095FF024684
:1096B0000B4611A1D1E9000124F06CFF02460B46D4
:1096C000104619460EA3D3E9002325F017F90246E8
:1096D0000B461046194625F0ABFB024643F2D02359
:1096E000C2F20003DA6309B0BDE8F08FAFF3008087
:1096F00000000020965BC83F000000000000F03F23
:109700000000000040A5E54080E6C547DC050000FC
:1097100000000000EE0200000000000000B587B06D
:10972000039003984FF076014FF0FF024FF01E03B5
:1097300003F072F94FF00A0006F03AF805AB009317
:1097400003984FF076014FF0A2024FF0020303F0AE
:109750007FF99DF8142040F69423C2F200035A705A
:109760009DF8152040F69423C2F200031A7005AB51
:10977000009303984FF076014FF0A4024FF00203DC
:1097800003F066F99DF8142040F68423C2F200032A
:109790005A709DF8152040F68423C2F200031A7017
:1097A00005AB009303984FF076014FF0A6024FF0FF
:1097B000020303F04DF99DF8142040F6A823C2F2ED
:1097C00000035A709DF8152040F6A823C2F200034A
:1097D0001A7005AB009303984FF076014FF0A80282
:1097E0004FF0020303F034F99DF8142040F678237B
:1097F000C2F200035A709DF8152040F67823C2F299
:1098000000031A7005AB009303984FF076014FF0F8
:10981000AA024FF0020303F01BF99DF8142040F652
:109820009023C2F200035A709DF8152040F6902351
:10983000C2F200031A7005AB009303984FF0760153
:109840004FF0AC024FF0020303F002F99DF8142030
:1098500040F67423C2F200035A709DF8152040F6BA
:109860007423C2F200031A7003984FF076014FF090
:10987000FF024FF0580303F0CFF84FF00A0005F055
:1098800097FF0398FFF7CCFC4FF00A0005F090FF1C
:1098900007B000BDAFF3008010B58AB00590049109
:1098A00013468DF80F304FF000038DF8273043F248
:1098B0003433C2F2000393F84A33002B18D09DEDE5
:1098C000057AF2EE047A67EE277AFDEEE77A17EE74
:1098D000903AADF824309DED047AF2EE047A67EE0A
:1098E000277AFDEEE77A17EE903AADF8223017E0CE
:1098F0009DED057ADFEDB97A67EE277AFDEEE77A1E
:1099000017EE903AADF824309DED047ADFEDB37A8E
:1099100067EE277AFDEEE77A17EE903AADF822303F
:1099200040F27603C2F200031B88BDF924201BB26B
:109930009A4200F08E8043F23433C2F2000393F86F
:109940004A33002B65D0BDF9243013F1630F46DB99
:10995000BDF92430632B42DCBDF92430002B02DA40
:109960004FF02D0401E04FF02004BDF9242046F211
:109970006763C6F2666383FB02134FEAA3014FEAF3
:10998000E273CB1A9BB21BB283EAE370A0EBE370E5
:10999000BDF9242046F26763C6F2666383FB0213B7
:1099A0004FEAA3014FEAE273C91A0B464FEA830359
:1099B0005B184FEA4303D31A9BB21BB2002BB8BF0C
:1099C0005B420090019306AB18464FF0070144F646
:1099D000AC72C0F60302234625F04AFE25E0BDF92D
:1099E000242046F26763C6F2666383FB02134FEAE4
:1099F000A3014FEAE273CB1A9BB21BB206AA104630
:109A00004FF0070144F6B872C0F6030225F030FEAD
:109A10000BE0BDF9243006AA10464FF0070144F6CA
:109A2000C072C0F6030225F023FE4FF0010300933D
:109A300006AB18464FF006014FF000024FF001034D
:109A400003F038FC40F27603C2F20003BDF8242094
:109A50001A809DF80F30012B20D0022B00F0C0801F
:109A6000002B40F0DF8040F27403C2F200031B7849
:109A7000002B00F0D28040F27403C2F200034FF0DA
:109A800000021A704FF0000206AB1A604FF000029D
:109A90009A804FF001038DF82730BEE040F2740346
:109AA000C2F200031B78012B0AD140F27803C2F204
:109AB00000031B88BDF922201BB29A4200F0AF8040
:109AC00040F27403C2F200034FF001021A7040F238
:109AD0007803C2F20003BDF822201A8043F2343327
:109AE000C2F2000393F84A33002B65D0BDF922304F
:109AF00013F1630F46DBBDF92230632B42DCBDF965
:109B00002230002B02DA4FF02D0401E04FF0200448
:109B1000BDF9222046F26763C6F2666383FB021337
:109B20004FEAA3014FEAE273CB1A9BB21BB283EA5E
:109B3000E370A0EBE370BDF9222046F26763C6F242
:109B4000666383FB02134FEAA3014FEAE273C91A6B
:109B50000B464FEA83035B184FEA4303D31A9BB2C9
:109B60001BB2002BB8BF5B420090019306AB1846B6
:109B70004FF0070144F6C872C0F60302234625F0F1
:109B800077FD25E0BDF9222046F26763C6F26663E1
:109B900083FB02134FEAA3014FEAE273CB1A9BB295
:109BA0001BB206AA10464FF0070144F6D472C0F665
:109BB000030225F05DFD0BE0BDF9223006AA104638
:109BC0004FF0070144F6DC72C0F6030225F050FDA9
:109BD0004FF001038DF8273021E000BFE7FB514033
:109BE00040F27403C2F200031B78022B19D040F23A
:109BF0007403C2F200034FF002021A7006AB18465B
:109C00004FF0070144F6E472C0F6030225F030FD80
:109C10004FF001038DF8273003E000BF02E000BFE2
:109C200000E000BF9DF82730002B0CD04FF0070359
:109C3000009306AB18464FF006014FF000024FF0BC
:109C4000010303F037FB0AB010BD00BFF0B589B0C7
:109C50000590049113468DF80F304FF000038DF8F6
:109C60001F3007E140F6B823C2F200031B78184604
:109C700024F0DEFD04460D469DF81F2044F6EC73EB
:109C8000C0F603039B5C06EE903AF8EE667A17EE98
:109C9000900A24F0DFFD02460B4696A1D1E90001AF
:109CA00024F078FC02460B461046194693A3D3E9EC
:109CB000002324F023FE02460B461046194691A3CA
:109CC000D3E9002324F01AFE02460B4616461F462F
:109CD000059824F0BFFD02460B463046394624F075
:109CE0000DFE02460B462046294624F055FC02464E
:109CF0000B4614461D469DED047ADFED7D7AC7EED6
:109D0000277A40F6B823C2F200031B781A4640F6C1
:109D1000B923C2F200031B78D31A06EE903AB8EECC
:109D2000E67A67EE877A17EE900A24F093FD0246F2
:109D30000B462046294624F02FFC02460B461046CF
:109D4000194625F075F8024640F6B923C2F2000321
:109D50001B7807EE903AB8EE677A40F6BB23C2F262
:109D600000031B7806EE903AF8EE667A104617EE7E
:109D7000101A17EE902A16F08BF807EE900AFCEEF8
:109D8000E77A17EE903A8DF81E309DF81E2048F6BF
:109D90003963C3F6E303A3FB02034FEA9303DAB28A
:109DA0009DF81F1040F60403C2F200035B5C9A4268
:109DB00029D09DF81F2040F60403C2F200039C5CEA
:109DC0009DF81F2044F6EC73C0F603039B5C0093E0
:109DD0004FF000004FF001014FF00002234603F066
:109DE00069FA9DF81F209DF81E1048F63963C3F6E6
:109DF000E303A3FB01034FEA9303D9B240F6040344
:109E0000C2F2000399549DF81E2048F63963C3F648
:109E1000E303A3FB02134FEA93010B464FEAC3038C
:109E20005B184FEA4303D31ADBB2A3F18003DBB222
:109E3000DBB28DF81B309DF81F2040F60403C2F200
:109E400000039C5C9DF81F2044F6EC73C0F60303EE
:109E50009B5C00930DF11B0318464FF001014FF07E
:109E60000002234603F026FA9DF81F3003F1010398
:109E70008DF81F309DF81F30052B7FF6F3AE40F2B2
:109E80007A03C2F200031B789DF80F209A422AD071
:109E90009DF80F304FEA4303DBB203F10103DBB25D
:109EA000DBB28DF81C309DF81C30DBB203F10103EE
:109EB000DBB2DBB28DF81D3040F6BE23C2F20003E8
:109EC0001B784FF00E02009207AA10464FF00201D5
:109ED0004FF0000203F0EEF940F27A03C2F2000301
:109EE0009DF80F201A7009B0F0BD00BFAFF30080DD
:109EF000DB0FC93E0000000000002D400000000004
:109F000000002840666666666666F63F10B58CB04F
:109F10000590049113468DF80F304FF000038DF833
:109F200018304FF000038DF819304FF000038DF812
:109F30001A304FF000038DF81B304FF000038DF8FE
:109F40001C3040F6BA23C2F200031B781A469DED7E
:109F5000047ADFEDD17AC7EE277A40F6BA23C2F24F
:109F600000031B78194640F6BC23C2F200031B789D
:109F7000CB1A06EE103AB8EEC67A67EE877AFDEE97
:109F8000E77A17EE903AD31807EE903AF8EEE76AC0
:109F900040F6BC23C2F200031B7806EE103AB8EE7E
:109FA000467A40F6BD23C2F200031B7806EE103A53
:109FB000F8EE467A16EE900A17EE101A17EE902A6F
:109FC00015F066FF07EE900AFCEEE77A17EE903A7E
:109FD000DBB28DF818309DF8182048F63963C3F6C7
:109FE000E303A3FB02034FEA93010B464FEAC303CB
:109FF0005B184FEA4303D31ADBB2A3F18003DBB251
:10A00000DBB28DF8233040F60C03C2F200031A785D
:10A010009DF8181048F63963C3F6E303A3FB010368
:10A020004FEA9303DBB29A422FD040F60C03C2F200
:10A0300000031B784FF0070200924FF000004FF032
:10A0400001014FF0000203F035F940F60C03C2F2B3
:10A0500000031B784FF0160200924FF000004FF003
:10A0600001014FF0000203F025F99DF8182048F691
:10A070003963C3F6E303A3FB02134FEA9303DAB297
:10A0800040F60C03C2F200031A7040F60C03C2F251
:10A0900000031B784FF0070200920DF123021046D7
:10A0A0004FF001014FF0000203F004F940F60C03F9
:10A0B000C2F200031B784FF0160200920DF123024A
:10A0C00010464FF001014FF0000203F0F3F844F6A0
:10A0D000F473C0F60303DB781A464FEA4202D31842
:10A0E0004FEA83039BB2A3F1AE03ADF82C3044F6E4
:10A0F000F473C0F603039B781A464FEA4202D31862
:10A100004FEA83039BB2A3F1AE03ADF82A309DED75
:10A11000057ADFED627A67EE277ACDED097A40F6AF
:10A12000BA23C2F200031B784FEA43029DF81C30A9
:10A13000D31A06EE103AF8EEC66A40F6BC23C2F215
:10A1400000031B7807EE903AB8EE677A40F6BD231D
:10A15000C2F200031B7806EE103AF8EE467A16EECD
:10A16000900A17EE101A17EE902A15F091FE07EEDE
:10A17000900AFCEEE77A17EE903ADBB28DF81930D0
:10A1800040F6BA23C2F200031B784FEA43029DF85F
:10A190001B30D31A07EE903AF8EEE76A40F6BC237C
:10A1A000C2F200031B7806EE103AB8EE467A40F68B
:10A1B000BD23C2F200031B7806EE103AF8EE467A91
:10A1C00016EE900A17EE101A17EE902A15F060FEA0
:10A1D00007EE900AFCEEE77A17EE903ADBB28DF8C4
:10A1E0001A3040F6BA23C2F200031B78BDF82A20C9
:10A1F00006EE902AB8EE667ADDED097A67EE277AE8
:10A20000FDEEE77A17EE902A9B1A07EE903AF8EEE9
:10A21000E76A40F6BC23C2F200031B7806EE103A50
:10A22000B8EE467A40F6BD23C2F200031B7806EE74
:10A23000103AF8EE467A16EE900A17EE101A17EE5C
:10A24000902A15F025FE07EE900AFCEEE77A17EE4D
:10A25000903ADBB28DF81B3040F6BA23C2F200030D
:10A260001B78BDF82C2006EE902AB8EE667ADDED5C
:10A27000097A67EE277AFDEEE77A17EE902A9B1AA5
:10A2800007EE903AF8EEE76A40F6BC23C2F200030C
:10A290001B7806EE103A03E0DB0F493F3333B33F40
:10A2A000B8EE467A40F6BD23C2F200031B7806EEF4
:10A2B000103AF8EE467A16EE900A17EE101A17EEDC
:10A2C000902A15F0E5FD07EE900AFCEEE77A17EE0E
:10A2D000903ADBB28DF81C304FF001038DF82F302F
:10A2E00084E09DF82F2040F60C03C2F200039A5C34
:10A2F0009DF82F300CA8C31813F8181C48F63963C2
:10A30000C3F6E303A3FB01034FEA9303DBB29A42D4
:10A310002FD09DF82F2040F60C03C2F200039C5C66
:10A320009DF82F3003F1FF3244F6F473C0F60303B7
:10A330009B5C00934FF000004FF001014FF00002D2
:10A34000234602F0B7FF9DF82F209DF82F300CA96F
:10A35000CB1813F8181C48F63963C3F6E303A3FBC4
:10A3600001034FEA9303D9B240F60C03C2F2000393
:10A3700099549DF82F300CA9CB1813F8182C48F6D7
:10A380003963C3F6E303A3FB02034FEA93010B46D1
:10A390004FEAC3035B184FEA4303D31ADBB2A3F1BE
:10A3A0008003DBB2DBB28DF81F309DF82F2040F622
:10A3B0000C03C2F200039C5C9DF82F3003F1FF32C6
:10A3C00044F6F473C0F603039B5C00930DF11F0386
:10A3D00018464FF001014FF00002234602F06AFFD9
:10A3E0009DF82F3003F101038DF82F309DF82F30A9
:10A3F000042B7FF676AF40F27B03C2F200031B789A
:10A400009DF80F209A422AD09DF80F304FEA43035F
:10A41000DBB203F10103DBB2DBB28DF820309DF833
:10A420002030DBB203F10103DBB2DBB28DF8213067
:10A4300040F6BE23C2F200031B784FF00E020092DA
:10A4400008AA10464FF002014FF0000202F032FF5E
:10A4500040F27B03C2F200039DF80F201A700CB08B
:10A4600010BD00BF00B587B003909DED037ADFED0E
:10A47000287A67EE277A9FED277AC7EE877A9FEDD5
:10A48000267A77EE877AFDEEE77A17EE903A9BB25E
:10A490001BB246F2B702CBF20B6282FB0312D21858
:10A4A0004FEA22214FEAE3728A1A4FF4B47101FB9A
:10A4B00002F29B1AADF8163040F27C03C2F20003A0
:10A4C0001B88BDF916201BB29A421FD0BDF9163069
:10A4D00004AA10464FF0060144F6F872C0F60302D3
:10A4E00025F0C6F84FF00D03009304AB18464FF06B
:10A4F00005014FF000024FF0010302F0DBFE40F2D5
:10A500007C03C2F20003BDF816201A8007B000BD1C
:10A5100000003443DB0F49400000B443AFF3008038
:10A5200000B583B043F23433C2F2000393F84F33E3
:10A53000032B7ED801A252F823F000BF33A60008F7
:10A540004DA5000899A50008E5A5000845F21000F2
:10A55000C0F6030001F0E8FC45F22C00C0F6030051
:10A5600001F0E2FC45F24000C0F6030001F0DCFC23
:10A5700045F25000C0F6030001F0D6FC45F2600041
:10A58000C0F6030001F0D0FC40F60123C2F2000344
:10A590004FF000021A704CE045F27000C0F6030064
:10A5A00001F0C2FC45F22C00C0F6030001F0BCFC37
:10A5B00045F24000C0F6030001F0B6FC45F2500041
:10A5C000C0F6030001F0B0FC45F26000C0F60300E5
:10A5D00001F0AAFC40F60023C2F200034FF0000293
:10A5E0001A7026E04FF000038DF807300FE09DF859
:10A5F000072045F20003C0F603039B5C184601F0F8
:10A6000059FC9DF8073003F101038DF807309DF8E0
:10A6100007300D2BEBD945F2A400C0F6030001F082
:10A6200083FC40F60223C2F200034FF000021A70CE
:10A6300000BF43F2D023C2F20003204A1A6443F25F
:10A64000D023C2F200031D4A5A6443F2D023C2F25F
:10A6500000031B4A9A6443F2D023C2F20003184A53
:10A66000DA6443F2D023C2F20003144A1A6543F2BB
:10A67000D023C2F200034FF0000283F8542043F2CB
:10A68000D023C2F200034FF0000283F8552043F2BA
:10A69000D023C2F2000342F20F729A6543F2D02334
:10A6A000C2F20003074ADA6543F2D023C2F2000384
:10A6B000034A1A6601F096FB03B000BDF6832E43F1
:10A6C000003C1C460000000000B583B04FF00003C2
:10A6D0008DF8073001F096FB0346ADF80230BDF867
:10A6E0000230002B02D14FF0000369E24FF000036B
:10A6F000ADF804305BE201F0A3FB03468DF80130B6
:10A7000040F60123C2F200031B78052B00F24982B8
:10A7100001A252F823F000BF31A700087FA700086C
:10A72000B5A7000821A80008C1A80008F3A80008E0
:10A730009DF80130D02B0ED140F6E423C2F2000385
:10A740004FF010021A7040F60123C2F200034FF0DE
:10A7500001021A7022E29DF80130D12B40F01E82D6
:10A7600040F6E423C2F200034FF013021A7040F6E1
:10A770000123C2F200034FF001021A700EE29DF8AD
:10A780000130DD2B07D140F60123C2F200034FF068
:10A7900002021A7006E040F60123C2F200034FF0F5
:10A7A00000021A7040F6E623C2F200034FF00002E6
:10A7B0001A70F6E140F6E623C2F200039DF801208C
:10A7C0001A7040F6E623C2F200031B78202B1FD13B
:10A7D00040F60123C2F200034FF003021A7040F664
:10A7E000C023C2F200039DF801201A7040F6C02376
:10A7F000C2F200031A7840F6E523C2F200031A7091
:10A8000040F6C123C2F200034FF000021A70C8E103
:10A8100040F60123C2F200034FF000021A70C0E1BB
:10A8200040F6C023C2F200031A789DF80130D31815
:10A83000DAB240F6C023C2F200031A7040F6E523F4
:10A84000C2F200031A7840F6C023C2F200031B785C
:10A85000D318DAB240F6E523C2F200031A7040F6CC
:10A86000C123C2F200031B781F2B14D840F6C1236A
:10A87000C2F200031A78114640F6C423C2F2000364
:10A880009DF80100585402F10103DAB240F6C123E9
:10A89000C2F200031A7040F6C123C2F200031A7814
:10A8A00040F6E623C2F200031B789A42C0F078819A
:10A8B00040F60123C2F200034FF004021A706FE168
:10A8C00040F6C023C2F200031B789DF801209A4293
:10A8D00007D140F60123C2F200034FF005021A70BF
:10A8E0005FE140F60123C2F200034FF000021A704C
:10A8F00057E140F6E523C2F200031B789DF80120E2
:10A900009A4240F0028140F6E423C2F200031B7831
:10A91000102B36D140F6C423C2F200031B6807EEA9
:10A92000903AB8EEE77ADFEDA87A67EE277A9FEDE6
:10A93000A77A67EE877A9FEDA67AC7EE877A43F209
:10A94000D023C2F20003C3ED107A40F6C423C2F252
:10A9500000035B6807EE903AB8EEE77ADFED9A7A8B
:10A9600067EE277A9FED997A67EE877A9FED987A5E
:10A97000C7EE877A43F2D023C2F20003C3ED117A07
:10A9800035E040F6C423C2F200031B6807EE903A9C
:10A99000B8EEE77ADFED8F7A67EE277A9FED8B7A54
:10A9A00067EE877A9FED8A7AC7EE877A43F2D023E3
:10A9B000C2F20003C3ED107A40F6C423C2F20003D2
:10A9C0005B6807EE903AB8EEE77ADFED827A67EEE1
:10A9D000277A9FED7E7A67EE877A9FED7D7AC7EEC4
:10A9E000877A43F2D023C2F20003C3ED117A40F616
:10A9F000C423C2F200039B6807EE903AB8EEE77AF0
:10AA0000DFED757A67EE277A43F2D023C2F20003B6
:10AA1000C3ED127A40F6C423C2F20003DB6807EEEE
:10AA2000903AB8EEE77ADFED6C7A67EE277A43F278
:10AA3000D023C2F20003C3ED137A40F6C423C2F25E
:10AA400000031B6907EE903AB8EEE77ADFED627A11
:10AA500067EE277A9FED5D7A67EE877A9FED5C7AE5
:10AA6000C7EE877A43F2D023C2F20003C3ED147A13
:10AA700040F6C423C2F200031A7D43F2D023C2F28F
:10AA8000000383F8542040F6C423C2F200035A7D29
:10AA900043F2D023C2F2000383F8552040F6C423CA
:10AAA000C2F20003D3F8162043F2D023C2F200030F
:10AAB0009A6540F6C423C2F20003D3F81A3007EEB9
:10AAC000903AB8EE677ADFED457A67EE277A43F27F
:10AAD000D023C2F20003C3ED177A40F6C423C2F2BA
:10AAE0000003DB8B07EE903AB8EE677ADFED3A7A37
:10AAF00067EE277A43F2D023C2F20003C3ED187A3F
:10AB00004FF001038DF8073040E043F2D023C2F24A
:10AB10000003334A1A6443F2D023C2F20003304ADE
:10AB20005A6443F2D023C2F200032E4A9A6443F2DD
:10AB3000D023C2F200032B4ADA6443F2D023C2F2DC
:10AB40000003274A1A6543F2D023C2F200034FF0F4
:10AB5000000283F8542043F2D023C2F200034FF0E6
:10AB6000000283F8552043F2D023C2F2000342F2E0
:10AB70000F729A6543F2D023C2F200031A4ADA65D3
:10AB800043F2D023C2F20003164A1A6640F60123AC
:10AB9000C2F200034FF000021A7002E000BF00E0B2
:10ABA00000BFBDF8043003F10103ADF80430BDF877
:10ABB0000420BDF802309A42FFF49DAD9DF80730A5
:10ABC000184603B000BD00BFBD378635DB0F4940D6
:10ABD0000000344395BFD6330AD7233C6F12833A23
:10ABE000F6832E43003C1C460000000086B0039014
:10ABF000029113468DF807304FF000038DF817309F
:10AC00004FF00003049318E0049A13464FEA8303BD
:10AC10009B184FEA43030493039B1B681A7852B2B4
:10AC2000A2F1300204998A18049203F10102039BF5
:10AC30001A604FF001038DF81730039B1B681B78D7
:10AC40005BB22F2B05DD039B1B681B785BB2392B96
:10AC5000DADD039B1B681B785BB22E2B44D1039B70
:10AC60001B6803F10102039B1A6024E0049A134657
:10AC70004FEA83039B184FEA43030493039B1B682B
:10AC80001B785BB22F2B16DD039B1B681B785BB216
:10AC9000392B10DC039B1B681A7852B2A2F13002E8
:10ACA00004998A18049203F10102039B1A604FF081
:10ACB00001038DF817309DF80730002B0CBF0023DF
:10ACC0000123DBB29DF8072002F1FF328DF8072047
:10ACD000002BCBD119E0049A13464FEA83039B184B
:10ACE0004FEA4303049300E000BF9DF80730002BB8
:10ACF0000CBF00230123DBB29DF8072002F1FF32D5
:10AD00008DF80720002BE6D106E005E0039B1B68C9
:10AD100003F10102039B1A60039B1B681B785BB263
:10AD20002F2B05DD039B1B681B785BB2392BEDDDF8
:10AD3000039B1B681B785BB22C2B06D1039B1B6803
:10AD400003F10102039B1A6003E04FF000038DF84A
:10AD500017309DF81730002B05D0029B002B02D036
:10AD6000029B049A1A609DF81730184606B0704787
:10AD700000B587B00390029113468DF807309DF817
:10AD80000730039804AA11461A46FFF72FFF03461F
:10AD9000002B00F08780049A4CF66B23C6F65F33D5
:10ADA00083FB02134FEAA3514FEAE273CA1A49F236
:10ADB0008063C0F2980303FB02F30593049A059B9A
:10ADC000D31A0493049B4FF0640202FB03F348F68A
:10ADD0008902C8F6880282FB0312D2184FEA621277
:10ADE0004FEAE373D31A0493049B059AD31805938F
:10ADF000039B1B681B785BB2A3F14503122B3BD866
:10AE000001A252F823F000BF6BAE000879AE000833
:10AE100079AE000879AE000879AE000879AE000876
:10AE200079AE000879AE000879AE00086BAE000874
:10AE300079AE000879AE000879AE000879AE000856
:10AE400055AE000879AE000879AE000879AE00086A
:10AE500055AE0008059BC3F100030593039B1B68D7
:10AE600003F10102039B1A6007E0039B1B6803F1D7
:10AE70000102039B1A6000E000BF039B1B681B7864
:10AE80005BB22C2B0ED1039B1B6803F10102039BC9
:10AE90001A60029B002B02D0029B059A1A604FF0A9
:10AEA00001030DE0039B1B681B785BB22C2B05D1C3
:10AEB000039B1B6803F10102039B1A604FF0000320
:10AEC000184607B000BD00BF00B583B040F6EC23C4
:10AED000C2F200030193019B184645F2D801C0F667
:10AEE00003014FF0060224F023FD0346002B40F03F
:10AEF000C080019B03F10603019301AB18466B462A
:10AF000019464FF00302FFF771FE0346002B09D0EC
:10AF1000009B07EE903AB8EEE77ADFEDB77A67EE7E
:10AF2000277A01E0DFEDB57A43F2D023C2F20003C5
:10AF3000C3ED177A01AB18466B4619464FF0050270
:10AF4000FFF716FF0346002B11D0009B07EE903A47
:10AF5000B8EEE77ADFEDAA7A67EE277A9FEDAC7A52
:10AF600067EE877A9FEDAB7AC7EE877A01E0DFED77
:10AF7000AA7A43F2D023C2F20003C3ED107A01ABE8
:10AF800018466B4619464FF00502FFF7F1FE0346DF
:10AF9000002B11D0009B07EE903AB8EEE77ADFED78
:10AFA000987A67EE277A9FED9A7A67EE877A9FED17
:10AFB000997AC7EE877A01E0DFED977A43F2D023E2
:10AFC000C2F20003C3ED117A019B03F10203019366
:10AFD00001AB18466B4619464FF00002FFF706FE1C
:10AFE0000346002B02D0009BDAB201E04FF00002D2
:10AFF00043F2D023C2F2000383F8542001AB184679
:10B000006B4619464FF00302FFF7F0FD0346002B95
:10B0100009D0009B07EE903AB8EEE77ADFED767A3A
:10B0200067EE277A01E0DFED787A43F2D023C2F2AF
:10B030000003C3ED187A01AB18466B4619464FF072
:10B040000302FFF7D3FD0346002B09D0009B07EE58
:10B05000903AB8EEE77ADFED687A67EE277A01E09A
:10B06000DFED697A43F2D023C2F20003C3ED127A16
:10B0700016E1019B184645F2E001C0F603014FF0CE
:10B08000060224F055FC0346002B1ED1019B03F160
:10B0900006030193019B03F10203019301AB1846E0
:10B0A0006B4619464FF00002FFF7A0FD0346002B48
:10B0B00002D0009BDAB201E04FF0000243F2D0234D
:10B0C000C2F2000383F85520EAE0019B184645F2DE
:10B0D000E801C0F603014FF0060224F029FC034604
:10B0E000002B40F0DD80019B03F10603019301ABCF
:10B0F00018466B4619464FF00302FFF777FD0346EB
:10B10000002B09D0009B07EE903AB8EEE77ADFED0E
:10B110003A7A67EE277A01E0DFED387A43F2D023FE
:10B12000C2F20003C3ED177A019B03F102030193FE
:10B1300001AB18466B4619464FF00502FFF718FEA3
:10B140000346002B11D0009B07EE903AB8EEE77A49
:10B15000DFED2B7A67EE277A9FED2D7A67EE877AFF
:10B160009FED2C7AC7EE877A01E0DFED2B7A43F270
:10B17000D023C2F20003C3ED107A01AB18466B4630
:10B1800019464FF00502FFF7F3FD0346002B11D0DF
:10B19000009B07EE903AB8EEE77ADFED197A67EE9A
:10B1A000277A9FED1B7A67EE877A9FED1A7AC7EEB2
:10B1B000877A01E0DFED187A43F2D023C2F2000370
:10B1C000C3ED117A01AB18466B4619464FF00302E6
:10B1D000FFF70CFD0346002B20D0009B07EE903AB2
:10B1E000B8EEE77ADFED047A67EE277A9FED057A0D
:10B1F00067EE877A14E000BF6F12833A0000000008
:10B2000095BFD633A1B2033F003C1C466F12833A70
:10B21000DB0F494000003443F6832E435FED067A8E
:10B2200043F2D023C2F20003C3ED137A01AB1846F8
:10B230006B4619464FF00302FFF7D8FC0346002B7C
:10B2400011D0009B07EE903AB8EEE77A5FED117AE5
:10B2500067EE277A1FED127A67EE877A1FED137A71
:10B26000C7EE877A01E05FED147A43F2D023C2F291
:10B270000003C3ED147A01AB18466B4619464FF034
:10B280000002FFF7B3FC0346002B02D0009B1A46D6
:10B2900001E042F20F7243F2D023C2F200039A653A
:10B2A00003B000BD00B583B04FF000038DF8073048
:10B2B00000F0A8FD0346ADF802304FF00003ADF8F2
:10B2C0000430CAE000F0BCFD03468DF8013040F6C2
:10B2D0000023C2F200031B78032B00F2B88001A206
:10B2E00052F823F0F5B200082BB30008C9B30008E8
:10B2F0000FB400089DF90130242B40F0A78040F6E0
:10B300000023C2F200034FF001021A7040F614034A
:10B31000C2F200034FF000021A7040F6E823C2F2B6
:10B3200000034FF000021A7090E09DF901302A2BC3
:10B3300014D140F61403C2F200031B781A4640F6FB
:10B34000EC23C2F200034FF00001995440F60023B1
:10B35000C2F200034FF002021A7078E040F61403C4
:10B36000C2F200031B784F2B26D840F61403C2F21A
:10B3700000031A78114640F6EC23C2F200039DF850
:10B380000100585402F10103DAB240F61403C2F28C
:10B3900000031A7040F6E823C2F200031B78DBB208
:10B3A0001A469DF801305340DBB2DAB240F6E8238A
:10B3B000C2F200031A704AE040F60023C2F2000312
:10B3C0004FF000021A7042E040F6E823C2F2000398
:10B3D0001B784FEA1313DBB21A4645F2C803C0F6D6
:10B3E00003039B5C9DF901205BB29A4207D140F6B2
:10B3F0000023C2F200034FF003021A7027E040F668
:10B400000023C2F200034FF000021A701FE040F662
:10B41000E823C2F200031B7803F00F0245F2C803D1
:10B42000C0F603039B5C9DF901205BB29A4205D1F3
:10B430004FF001038DF80730FFF746FD40F600237B
:10B44000C2F200034FF000021A7000E000BFBDF826
:10B45000043003F10103ADF80430BDF80420BDF859
:10B4600002309A42FFF42EAF9DF80730184603B021
:10B4700000BD00BF40F67833C2F200031B78012BF9
:10B4800040F03D8140F67A33C2F200031B78022B74
:10B4900049D140F64433C2F200039B6807EE903A6C
:10B4A000B8EEE77ADFED967A67EE277A9FED957A28
:10B4B00067EE877A9FED947AC7EE877A43F2D023BE
:10B4C000C2F20003C3ED107A40F64433C2F2000327
:10B4D0005B6807EE903AB8EEE77ADFED897A67EEBF
:10B4E000277A9FED887A67EE877A9FED877AC7EE95
:10B4F000877A43F2D023C2F20003C3ED117A40F6FB
:10B500004433C2F20003DB6807EE903AB8EEE77A04
:10B51000DFED7E7A67EE277A43F2D023C2F2000392
:10B52000C3ED127AEBE040F67A33C2F200031B78E7
:10B53000032B25D140F64433C2F200031B79022BC2
:10B5400002D0032B09D012E043F2D023C2F2000351
:10B550004FF0020283F85520D1E043F2D023C2F22B
:10B5600000034FF0030283F8552000BFC7E043F209
:10B57000D023C2F200034FF0010283F85520BEE051
:10B5800040F67A33C2F200031B78042B13D140F645
:10B590004433C2F200039B8907EE903AB8EE677A13
:10B5A000DFED5A7A67EE277A43F2D023C2F2000326
:10B5B000C3ED187AA3E040F67A33C2F200031B7899
:10B5C000062B0CD140F64433C2F2000393F82F202F
:10B5D00043F2D023C2F2000383F854208FE040F6F8
:10B5E0007A33C2F200031B78122B2ED140F644337B
:10B5F000C2F200039B6907EE903AB8EEE77ADFEDFE
:10B60000437A67EE277A9FED3F7A67EE877A9FED60
:10B610003E7AC7EE877A43F2D023C2F20003C3ED2D
:10B62000147A40F64433C2F200035B6907EE903AA5
:10B63000B8EE677ADFED357A67EE277A43F2D023EA
:10B64000C2F20003C3ED137A59E040F67A33C2F236
:10B6500000031B78212B52D140F64433C2F2000381
:10B660001B7C42F2107202FB03F240F64433C2F23A
:10B6700000035B7C4FF0640101FB03F3D21840F63A
:10B680004433C2F200039B7CD31807EE903AB8EE25
:10B69000E77A40F64433C2F200039B6807EE903A23
:10B6A000F8EEE76ADFED1A7A66EEA77A77EE277A88
:10B6B00043F2D023C2F20003C3ED177A40F64433BD
:10B6C000C2F20003DB7B42F2107202FB03F240F68F
:10B6D0004433C2F200039B7B4FF0640101FB03F390
:10B6E000D21840F64433C2F200039B89D318A3F565
:10B6F000FA631A4643F2D023C2F200039A657047F8
:10B7000095BFD633DB0F4940000034430AD7233CB2
:10B710005F70893000B583B04FF000038DF80730BB
:10B7200000F070FB0346ADF802304FF00003ADF8B7
:10B730000430BFE100F084FB03468DF8013040F691
:10B740000223C2F200031B78082B00F2AD8101A294
:10B7500052F823F0A9BA000879B70008A1B7000889
:10B76000DBB7000837B8000893B8000821B9000813
:10B77000BFB90008F3B900089DF90130622B07D169
:10B7800040F60223C2F200034FF002021A708BE16E
:10B7900040F60223C2F200034FF000021A7083E168
:10B7A0009DF8012040F67833C2F200031A709DF82C
:10B7B000012040F67933C2F200031A709DF801208F
:10B7C00040F67B33C2F200031A7040F60223C2F245
:10B7D00000034FF003021A7066E19DF8012040F665
:10B7E0007A33C2F200031A7040F67933C2F20003D2
:10B7F0001A789DF80130D318DAB240F67933C2F2E4
:10B8000000031A7040F67B33C2F200031A7840F648
:10B810007933C2F200031B78D318DAB240F67B33D7
:10B82000C2F200031A7040F60223C2F200034FF086
:10B8300004021A7038E19DF8012040F64033C2F24C
:10B8400000031A7040F67933C2F200031A789DF8AB
:10B850000130D318DAB240F67933C2F200031A701D
:10B8600040F67B33C2F200031A7840F67933C2F215
:10B8700000031B78D318DAB240F67B33C2F2000320
:10B880001A7040F60223C2F200034FF005021A704C
:10B890000AE140F64033C2F200031A7840F6403322
:10B8A000C2F200031A7040F67C33C2F200034FF07C
:10B8B00000021A7040F67933C2F200031A789DF83C
:10B8C0000130D318DAB240F67933C2F200031A70AD
:10B8D00040F67B33C2F200031A7840F67933C2F2A5
:10B8E00000031B78D318DAB240F67B33C2F20003B0
:10B8F0001A7040F64033C2F200031B78342B07D88D
:10B9000040F60223C2F200034FF006021A70CBE0A9
:10B9100040F60223C2F200034FF000021A70C3E0A7
:10B9200040F67933C2F200031A789DF80130D3183B
:10B93000DAB240F67933C2F200031A7040F67B3374
:10B94000C2F200031A7840F67933C2F200031B7882
:10B95000D318DAB240F67B33C2F200031A7040F615
:10B960007C33C2F200031B78332B14D840F67C33AF
:10B97000C2F200031A7811469DF8010040F64433E4
:10B98000C2F20003585402F10103DAB240F67C33EC
:10B99000C2F200031A7040F67C33C2F200031A7838
:10B9A00040F64033C2F200031B789A427BD340F644
:10B9B0000223C2F200034FF007021A7073E040F650
:10B9C0007933C2F200031B781A469DF901309A427E
:10B9D00007D040F60223C2F200034FF000021A70B3
:10B9E00062E040F60223C2F200034FF008021A7030
:10B9F0005AE040F67B33C2F200031B781A469DF9E9
:10BA000001309A4206D14FF001038DF80730FFF75D
:10BA100031FD40E043F2D023C2F200032B4A1A6406
:10BA200043F2D023C2F20003284A5A6443F2D023DF
:10BA3000C2F20003264A9A6443F2D023C2F2000302
:10BA4000234ADA6443F2D023C2F200031F4A1A6584
:10BA500043F2D023C2F200034FF0000283F85420D7
:10BA600043F2D023C2F200034FF0000283F85520C6
:10BA700043F2D023C2F2000342F20F729A6543F2FE
:10BA8000D023C2F20003134ADA6543F2D023C2F294
:10BA900000030F4A1A6640F60223C2F200034FF079
:10BAA00000021A7000E000BFBDF8043003F101038A
:10BAB000ADF80430BDF80420BDF802309A42FFF41E
:10BAC00039AE9DF80730184603B000BDF6832E430B
:10BAD000003C1C460000000008B546F2A003C4F27A
:10BAE000020340F61C02C2F200021288114641F223
:10BAF0008032C2F200028A18DA6040F61E03C2F2F7
:10BB000000031A8840F61C03C2F200031B889A4205
:10BB10001DD940F61E03C2F200031A8840F61C032A
:10BB2000C2F200031B88D31A9BB246F2A000C4F2F3
:10BB30000200194619F000FF40F61E03C2F200038E
:10BB40001A8840F61C03C2F200031A8015E040F682
:10BB50001C03C2F200031B88C3F500639BB246F2CC
:10BB6000A000C4F20200194619F0E6FE40F61C03DC
:10BB7000C2F200034FF000021A8046F2A000C4F2A5
:10BB800002004FF0010119F093FE08BD08B546F21E
:10BB9000A000C4F202004FF40041C2F220011AF0EA
:10BBA0006BF846F2A000C4F202004FF0000119F059
:10BBB0007FFE40F61E03C2F200031A8840F61C0303
:10BBC000C2F200031B889A4201D0FFF785FF08BD2F
:10BBD00000B597B014AB18461BF004F810AB18462C
:10BBE0001FF042F901AB184619F022FE4FF0080091
:10BBF0004FF001011CF02CF94FF400104FF001013F
:10BC00001CF026F94FF400304FF001011CF092F9BE
:10BC10004FF0600314934FF002038DF854304FF04F
:10BC200002038DF855304FF000038DF856304FF079
:10BC300000038DF857304FF44060C4F202004FF01B
:10BC400005014FF007021BF09BF84FF44060C4F26F
:10BC500002004FF006014FF007021BF091F84FF47D
:10BC60004060C4F2020014AB19461AF01DFF4FF0F9
:10BC700011038DF800304FF001038DF801304FF0C3
:10BC800000038DF802304FF001038DF803306B464E
:10BC9000184619F081FB4FF4164310934FF4884077
:10BCA000C4F2000010AB19461FF00CF846F28800F1
:10BCB000C4F2020019F04AFC4FF00063019344F211
:10BCC0000443C4F20003029340F68033C2F200033F
:10BCD00003934FF4006305934FF4806307934FF48D
:10BCE00080730A934FF480330B9346F28800C4F2BA
:10BCF000020001AB194619F047FD46F28800C4F274
:10BD000002004FF0010119F0D3FD4FF48840C4F256
:10BD100000004FF040014FF001021FF0BDFA46F263
:10BD20008800C4F2020019F013FE03461A4640F6DA
:10BD30001803C2F200031A6046F2A000C4F2020027
:10BD400019F004FC41F28033C2F2000303934FF078
:10BD5000400304934FF000030A9346F2A000C4F29C
:10BD6000020001AB194619F00FFD46F2A000C4F223
:10BD700002004FF0000119F0DFFD46F2A000C4F20E
:10BD800002004FF010014FF0010219F0DBFE4FF4FA
:10BD90008840C4F200004FF080014FF001021FF014
:10BDA0007BFA4FF48840C4F200004FF001011FF00D
:10BDB000B1F817B000BD00BF08B546F28800C4F264
:10BDC000020019F0C5FD03461A4640F61803C2F2F8
:10BDD00000031B689A420CBF002301239BB2184644
:10BDE00008BD00BF08B546F28800C4F2020019F091
:10BDF000AFFD03461A4640F61803C2F200031A606C
:10BE000008BD00BF10B582B040F61803C2F20003AF
:10BE10001C6846F28800C4F2020019F099FD03463E
:10BE2000E31A0193019B002B02DB019B9BB204E010
:10BE3000019B9BB203F500639BB2184602B010BD94
:10BE400082B040F61803C2F200031B68C3F500621B
:10BE500040F68033C2F200039B5C8DF8073040F659
:10BE60001803C2F200031B6803F1FF3240F6180307
:10BE7000C2F200031A6040F61803C2F200031B6806
:10BE8000002B06D140F61803C2F200034FF4006203
:10BE90001A609DF80730184602B0704708B500BF19
:10BEA000FFF78AFF0346002BFAD0FFF7C9FF0346CE
:10BEB000184608BD00B583B003468DF8073040F63C
:10BEC0001E03C2F200031B881A4641F28033C2F2FD
:10BED00000039DF80710995440F61E03C2F20003B8
:10BEE0001B8803F101034FEAE3724FEA52529B1899
:10BEF0004FEA43534FEA53539B1A9AB240F61E033C
:10BF0000C2F200031A8046F25800C4F2020019F08F
:10BF10007FFD0346002B05D1FFF7DEFD4FF4967041
:10BF200003F00CFC03B000BD00B583B0019009E044
:10BF3000019B1B78DBB2019A02F1010201921846C3
:10BF4000FFF7B8FF019B1B78002BF1D103B000BDB8
:10BF500000B583B040F62003C2F200031B689B8A41
:10BF60009BB20193019B03F4E063002B6FD040F67A
:10BF70002003C2F200031B681B8B9BB2009340F6A8
:10BF80002003C2F200031B6818464FF480614FF093
:10BF900000021BF007FB019B03F40073002B56D13A
:10BFA00040F62003C2F200031B681B889BB203F417
:10BFB0000073002B4BD140F62003C2F200031B6834
:10BFC0001B889BB203F48073002B2AD000BF40F67D
:10BFD0002003C2F200031B681B889BB203F480732A
:10BFE000002BF4D140F62003C2F200031B68184670
:10BFF0004FF001011BF0A8F800BF40F62003C2F289
:10C0000000031B681B889BB203F40073002BF4D160
:10C0100040F62003C2F200031B68184600F018FF28
:10C0200015E040F62003C2F200031B6818464FF0EB
:10C0300001011BF089F840F62003C2F200031B68DF
:10C0400018464FF440714FF000021BF0ABFA40F677
:10C050002003C2F200031A6840F62003C2F2000374
:10C060001B689B8A9BB223F470639BB2938240F659
:10C070002803C2F200034FF000021A7003B000BDA3
:10C0800030B583B040F62003C2F200031B689B8AE0
:10C090009BB28DF807309DF8073003F00103DBB247
:10C0A000002B00F08B8040F62003C2F200031A68D8
:10C0B00040F62003C2F200031B681B889BB223F4E6
:10C0C00000639BB2138040F62003C2F200031B689A
:10C0D00018464FF001011BF073F840F63803C2F226
:10C0E00000034FF000021A7040F62D03C2F2000365
:10C0F0001B78DBB2002B3FD040F63903C2F20003BD
:10C100001B78002B07D140F62A03C2F200031B78EC
:10C11000DBB2FF2B30D140F63903C2F200034FF0FF
:10C1200001021A7040F62B03C2F200031B78DBB247
:10C13000022B0FD140F62003C2F200031A6840F62A
:10C140002003C2F200031B681B889BB243F4006308
:10C150009BB2138040F62003C2F200031A6840F637
:10C160002903C2F200031B78DBB2104619464FF0D8
:10C1700001021BF005F810E340F62003C2F20003B1
:10C180001A6840F62903C2F200031B78DBB210469E
:10C1900019464FF000021AF0F3FF40F62A03C2F2EC
:10C1A00000031B78DBB2FF2B00F0F68240F6380369
:10C1B000C2F200034FF0FF021A70EDE29DF8073063
:10C1C00003F00203002B00F0B880BFF35F8F40F64E
:10C1D0002B03C2F200031B78DBB2012B42D140F6E5
:10C1E0002D03C2F200031B78DBB2002B3AD040F6DD
:10C1F0003903C2F200031B78002B33D040F6200332
:10C20000C2F200031B6818464FF000011AF0D8FF75
:10C21000BFF35F8F40F62003C2F200031B681B8B45
:10C220009BB2DBB28DF8063040F62003C2F2000369
:10C230001B6818464FF001011AF086FF40F63A03DA
:10C24000C2F200034FF001021A7040F62003C2F25E
:10C2500000031B6818464FF480614FF001021BF089
:10C26000A1F99AE240F62003C2F200031B681B8B7F
:10C270009BB2DBB28DF80630BFF35F8F40F62B0325
:10C28000C2F200031B78DBB2022B25D140F62D034E
:10C29000C2F200031B78DBB2002B1DD040F639033D
:10C2A000C2F200031B78002B16D040F62003C2F226
:10C2B00000031B6818464FF000011AF081FF40F69A
:10C2C0002003C2F200031B6818464FF480614FF050
:10C2D00000021BF067F960E240F62B03C2F2000394
:10C2E0001B78DBB2032B1BD140F62D03C2F20003F7
:10C2F0001B78DBB2002B13D040F63903C2F20003E7
:10C300001B78002B0CD040F62003C2F200031B6800
:10C3100018464FF480614FF000021BF043F93CE2F5
:10C3200040F62003C2F200031B6818464FF48061F8
:10C330004FF001021BF036F92FE29DF8073003F0B1
:10C340000403002B00F0468140F63A03C2F20003DA
:10C350004FF001021A7040F62D03C2F200031B7861
:10C36000DBB2002B00F0DE8040F63903C2F200039E
:10C370001B78002B00F0D68040F62B03C2F200039E
:10C380001B78DBB2022B65D940F62003C2F2000312
:10C390001B6818464FF000011AF012FF40F63403F4
:10C3A000C2F200031A6840F63803C2F200031C7898
:10C3B00063B2D51840F62003C2F200031B6818468A
:10C3C0001BF036F803462B70234603F10103DAB263
:10C3D00040F63803C2F200031A7040F62003C2F29E
:10C3E00000031B6818464FF001011AF0ADFE40F63D
:10C3F0003A03C2F200034FF001021A7040F6340310
:10C40000C2F200031A6840F63803C2F200031C7837
:10C4100063B2D51840F62003C2F200031B68184629
:10C420001BF006F803462B70234603F10103DAB232
:10C4300040F63803C2F200031A7040F62003C2F23D
:10C4400000031B6818464FF480614FF001021BF097
:10C45000A9F8B2E040F63A03C2F200031B78002BC1
:10C460000AD040F62003C2F200031B6818464FF0C2
:10C4700001011AF069FE09E040F62003C2F2000350
:10C480001B6818464FF001011AF042FE40F63403D3
:10C49000C2F200031A6840F63803C2F200031C78A7
:10C4A00063B2D51840F62003C2F200031B68184699
:10C4B0001AF0BEFF03462B70234603F10103DAB2E4
:10C4C00040F63803C2F200031A7040F63403C2F299
:10C4D00000031A6840F63803C2F200031C7863B206
:10C4E000D51840F62003C2F200031B6818461AF064
:10C4F0009FFF03462B70234603F10103DAB240F697
:10C500003803C2F200031A7040F63803C2F2000387
:10C510001B7803F10103DAB240F63803C2F20003DC
:10C520001A704AE040F63903C2F200031B78002B70
:10C5300007D140F62C03C2F200031B78DBB2002BBC
:10C5400029D040F63A03C2F200031B78002B0AD030
:10C5500040F62003C2F200031B6818464FF00101A9
:10C560001AF0F2FD09E040F62003C2F200031B6856
:10C5700018464FF001011AF0CBFD40F63803C2F225
:10C5800000031B7803F10103DAB240F63803C2F26C
:10C5900000031A7011E040F62003C2F200031B688A
:10C5A00018464FF001011AF0B3FD40F63903C2F20C
:10C5B00000034FF001021A70FFE700BF40F62003AE
:10C5C000C2F200031B681B889BB203F48073002B2C
:10C5D000F4D1E2E09DF8073003F04003002B59D07E
:10C5E00040F63403C2F200031A6840F63803C2F280
:10C5F00000031C7863B2D51840F62003C2F2000392
:10C600001B6818461AF014FF03462B70234603F1EB
:10C610000103DAB240F63803C2F200031A7040F6A2
:10C620002B03C2F200031B78DBB21A4640F6380334
:10C63000C2F200031B785BB203F103039A420BD1F1
:10C6400040F62003C2F200031B6818464FF48061D5
:10C650004FF000021AF0A6FF40F62B03C2F20003CF
:10C660001B78DBB21A4640F63803C2F200031B788F
:10C670005BB29A4240F0918040F63803C2F2000368
:10C680001B7803F10103DAB240F63803C2F200036B
:10C690001A7082E09DF807305BB2002B7DDA40F61D
:10C6A0003803C2F200031B785BB2B3F1FF3F3AD00C
:10C6B00040F62003C2F20003196840F63003C2F2CC
:10C6C0000003186840F63803C2F200031B785AB220
:10C6D00082181278D2B203F10103D8B240F63803BF
:10C6E000C2F200031870084611461AF095FE40F693
:10C6F0002B03C2F200031B78DBB21A4640F6380364
:10C70000C2F200031B785BB29A4246D140F6200386
:10C71000C2F200031B6818464FF480614FF000021C
:10C720001AF040FF39E040F63803C2F200031B78EC
:10C7300003F10103DAB240F63803C2F200031A70C3
:10C7400040F62003C2F200031A6840F62A03C2F240
:10C7500000031B78DBB2104619461AF05DFE40F666
:10C760002D03C2F200031B78DBB2002B07D140F689
:10C770002B03C2F200031B78DBB2002B0DD140F675
:10C780002003C2F200031B6818464FF480614FF08B
:10C7900000021AF007FF00E000BF40F63803C2F2C3
:10C7A00000031B785AB240F62B03C2F200031B7839
:10C7B000DBB203F101039A4220D140F63903C2F201
:10C7C00000034FF000021A7040F63A03C2F2000371
:10C7D0001B78002B0BD040F62003C2F200031B682D
:10C7E00018464FF440714FF000021AF0DBFE40F69D
:10C7F0002803C2F200034FF000021A7003B030BDEC
:10C8000008B5FFF7A5FB08BD08B5FFF739FC08BD63
:10C8100008B5FFF79DFB08BD08B5FFF731FC08BD63
:10C8200000B589B001908DF803108DF802208DF8C5
:10C83000013047F23053069340F62003C2F2000362
:10C84000019A1A609DF803304FEA4303DAB240F6CA
:10C850002903C2F200031A7040F62A03C2F2000351
:10C860009DF802201A7040F62C03C2F200034FF02C
:10C8700001021A7040F62D03C2F200034FF00002CD
:10C880001A7040F63003C2F2000302AA1A6040F6A2
:10C890003403C2F2000302AA1A6040F62B03C2F26C
:10C8A00000039DF801201A7040F62803C2F200032D
:10C8B0004FF001021A709DF80130102B02D94FF091
:10C8C0000003A5E04FF000038DF81F3010E09DF845
:10C8D0001F309DF81F200A998A18127808A9CB18D2
:10C8E00003F8182C9DF81F3003F101038DF81F3059
:10C8F0009DF81F209DF801309A42E8D340F62003AE
:10C90000C2F200031B689B889BB203F40073002BE8
:10C910002CD140F62003C2F200031B681B889BB297
:10C9200003F48073002B15D100BF40F62003C2F240
:10C9300000031B681B889BB203F40073002BF4D127
:10C9400040F62003C2F200031B6818464FF00101B5
:10C950001AF0DEFB40F62003C2F200031B68184603
:10C960004FF440714FF001021AF01CFE00BF40F678
:10C970002803C2F200031B78DBB2002B06D0069B13
:10C9800003F1FF330693069B002BF0D1069B002B8F
:10C990003CD140F62003C2F200031A684FF4A843CA
:10C9A000C4F200039A420DD140F62403C2F2000300
:10C9B0001B889BB203F101039AB240F62403C2F232
:10C9C00000031A8040F62003C2F200031A684FF4F5
:10C9D000B043C4F200039A420DD140F62603C2F2DE
:10C9E00000031B889BB203F101039AB240F62603B1
:10C9F000C2F200031A8040F62003C2F200031B6853
:10CA0000184600F025FA4FF0000301E04FF0010353
:10CA1000184609B000BD00BF00B585B003908DF881
:10CA20000B108DF80A208DF809309DF80B209DF829
:10CA30000A300DF109010091039811461A464FF092
:10CA40000103FFF7EDFE0346184605B000BD00BF29
:10CA500000B585B001908DF803108DF802208DF897
:10CA6000013047F23053039340F62003C2F2000333
:10CA7000019A1A609DF803304FEA4303DAB240F698
:10CA80002903C2F200031A7040F62A03C2F200031F
:10CA90009DF802201A7040F62C03C2F200034FF0FA
:10CAA00000021A7040F62D03C2F200034FF001029B
:10CAB0001A7040F63403C2F20003069A1A6040F678
:10CAC0003003C2F20003069A1A6040F62B03C2F24A
:10CAD00000039DF801201A7040F62803C2F20003FB
:10CAE0004FF001021A7040F62003C2F200031B68E7
:10CAF0009B889BB203F40073002B2CD140F62003DB
:10CB0000C2F200031B681B889BB203F48073002BE6
:10CB100015D100BF40F62003C2F200031B681B883A
:10CB20009BB203F40073002BF4D140F62003C2F251
:10CB300000031B6818464FF001011AF0E9FA40F6AD
:10CB40002003C2F200031B6818464FF440714FF0F7
:10CB500001021AF027FD00BF40F62803C2F20003CD
:10CB60001B78DBB2002B06D0039B03F1FF3303934A
:10CB7000039B002BF0D1039B002B3CD140F62003FC
:10CB8000C2F200031A684FF4A843C4F200039A42A9
:10CB90000DD140F62403C2F200031B889BB203F1BF
:10CBA00001039AB240F62403C2F200031A8040F651
:10CBB0002003C2F200031A684FF4B043C4F200032A
:10CBC0009A420DD140F62603C2F200031B889BB2A5
:10CBD00003F101039AB240F62603C2F200031A8061
:10CBE00040F62003C2F200031B68184600F030F93B
:10CBF0004FF0000301E04FF00103184605B000BDFF
:10CC000000B587B0019003AB184619F0EBFF019A0D
:10CC10004FF4A843C4F200039A4240F087804FF0DB
:10CC2000C00303934FF001038DF810304FF002035F
:10CC30008DF811304FF001038DF812304FF4806001
:10CC4000C4F2020003AB194619F02EFF4FF48060C6
:10CC5000C4F202004FF0C0011AF048F84FF0000390
:10CC60008DF817302EE04FF0030002F067FD00E072
:10CC700000BF4FF48060C4F202004FF0400119F091
:10CC8000E9FF0346002BEED04FF48060C4F20200AF
:10CC90004FF040011AF036F84FF0030002F04EFD5D
:10CCA0004FF48060C4F202004FF040011AF01EF809
:10CCB0004FF0030002F042FD9DF8173003F101032D
:10CCC0008DF817309DF81730072BD1D94FF48060BD
:10CCD000C4F202004FF080011AF014F84FF0030084
:10CCE00002F02CFD4FF48060C4F202004FF04001CE
:10CCF0001AF008F84FF0030002F020FD4FF48060B6
:10CD0000C4F202004FF0400119F0F0FF4FF00300B1
:10CD100002F014FD4FF48060C4F202004FF0800175
:10CD200019F0E4FF4FF0030002F008FD019A4FF400
:10CD3000B043C4F200039A4240F087804FF440634E
:10CD400003934FF001038DF810304FF002038DF87C
:10CD500011304FF001038DF812304FF48060C4F2AF
:10CD6000020003AB194619F09FFE4FF48060C4F235
:10CD700002004FF4406119F0B9FF4FF000038DF845
:10CD800017302EE04FF0030002F0D8FC00E000BFA7
:10CD90004FF48060C4F202004FF4806119F05AFF32
:10CDA0000346002BEED04FF48060C4F202004FF433
:10CDB000806119F0A7FF4FF0030002F0BFFC4FF4B1
:10CDC0008060C4F202004FF4806119F08FFF4FF0D1
:10CDD000030002F0B3FC9DF8173003F101038DF856
:10CDE00017309DF81730072BD1D94FF48060C4F26B
:10CDF00002004FF4006119F085FF4FF0030002F0CC
:10CE00009DFC4FF48060C4F202004FF4806119F081
:10CE100079FF4FF0030002F091FC4FF48060C4F200
:10CE200002004FF4806119F061FF4FF0030002F03F
:10CE300085FC4FF48060C4F202004FF4006119F0E9
:10CE400055FF4FF0030002F079FC07B000BD00BFB2
:10CE500000B58BB00190019A4FF4A843C4F20003CF
:10CE60009A4240F087804FF002004FF001011AF023
:10CE7000EFFF4FF400104FF001011BF05BF8019839
:10CE8000FFF7BEFE08AB184619F0ACFE04AB18461F
:10CE90001AF006F94FF0C00308934FF002038DF823
:10CEA00024304FF002038DF825304FF001038DF848
:10CEB00026304FF48060C4F2020008AB194619F026
:10CEC000F3FD4FF48060C4F202004FF006014FF012
:10CED000040219F055FF4FF48060C4F202004FF0D5
:10CEE00007014FF0040219F04BFF4FF4A840C4F2C1
:10CEF00000004FF440714FF000021AF053FB4FF462
:10CF0000A840C4F2000019F093FF04AB18461AF0D1
:10CF1000C7F84FF4D453C0F2060304934FF4A8406B
:10CF2000C4F2000004AB194619F0C2FF4FF4A84048
:10CF3000C4F200004FF001011AF0CEF84FF02003C8
:10CF40008DF80C304FF000038DF80D304FF00003DA
:10CF50008DF80E304FF001038DF80F3003AB1846FB
:10CF600018F01AFA4FF01F038DF80C3003AB184677
:10CF700018F012FA019A4FF4B043C4F200039A4237
:10CF800040F087804FF002004FF001011AF060FF7F
:10CF90004FF480004FF001011AF0CCFF0198FFF729
:10CFA0002FFE08AB184619F01DFE04AB18461AF008
:10CFB00077F84FF4406308934FF002038DF8243064
:10CFC0004FF002038DF825304FF001038DF8263025
:10CFD0004FF48060C4F2020008AB194619F064FDFA
:10CFE0004FF48060C4F202004FF00A014FF00402D7
:10CFF00019F0C6FE4FF48060C4F202004FF00B013E
:10D000004FF0040219F0BCFE4FF4B040C4F200002F
:10D010004FF440714FF000021AF0C4FA4FF4B040E0
:10D02000C4F2000019F004FF04AB18461AF038F8F7
:10D030004FF4D453C0F2060304934FF4B040C4F24B
:10D04000000004AB194619F033FF4FF4B040C4F2AE
:10D0500000004FF001011AF03FF84FF022038DF865
:10D060000C304FF000038DF80D304FF000038DF8B9
:10D070000E304FF001038DF80F3003AB184618F057
:10D080008BF94FF021038DF80C3003AB184618F0E4
:10D0900083F90BB000BD00BF82B00190019A4FF43C
:10D0A000A843C4F200039A4206D140F62403C2F218
:10D0B00000031B889BB205E040F62603C2F2000382
:10D0C0001B889BB2184602B0704700BF00B583B002
:10D0D0006B46184619F086FD4FF008004FF001012D
:10D0E0001AF0B6FE4FF010004FF001011AF0B0FE3A
:10D0F0004FF0630300934FF001038DF804304FF0BD
:10D1000002038DF805304FF48050C4F202006B46E4
:10D11000194619F0C9FC4FF0900300934FF001033A
:10D120008DF804304FF002038DF805304FF4406065
:10D13000C4F202006B46194619F0B6FC4FF4805059
:10D14000C4F202004FF0200119F0DCFD4FF48050D2
:10D15000C4F202004FF0400119F0D4FD4FF44060DA
:10D16000C4F202004FF0800119F0CCFD4FF4805062
:10D17000C4F202004FF0010119F0C4FD4FF48050D9
:10D18000C4F202004FF0020119F0BCFD4FF4406000
:10D19000C4F202004FF0100119F0B4FD03B000BD5D
:10D1A00000B583B003468DF807309DF807304FF483
:10D1B0006050C4F20000194601F01AFE4FF46050AE
:10D1C000C4F200004FF0000101F012FE03461846C1
:10D1D00003B000BD00B583B002460B468DF80720B2
:10D1E0008DF806309DF807304FF46050C4F200000F
:10D1F000194601F0FDFD9DF806304FF46050C4F271
:10D200000000194601F0F4FD03B000BD08B540F67A
:10D210003C03C2F200031B78002B20D14FF000002A
:10D22000C4F202004FF0080119F06CFD40F645030E
:10D23000C2F200031B784FF000001946FFF7CAFF47
:10D240004FF00000C4F202004FF0080119F04EFD4B
:10D2500040F63C03C2F200034FF001021A7008BD11
:10D2600008B540F63C03C2F200031B78002B20D027
:10D270004FF00000C4F202004FF0080119F042FD27
:10D2800040F64203C2F200031B784FF0000019463B
:10D29000FFF7A0FF4FF00000C4F202004FF00801BA
:10D2A00019F024FD40F63C03C2F200034FF00002E7
:10D2B0001A7008BD00B585B001908DF803108DF887
:10D2C00002208DF801309DF801309BB21A464FEADA
:10D2D0000212D31A4FEA43039AB29DF818309BB258
:10D2E000D318ADF80C309DF80230002B01D0FFF7B9
:10D2F000B7FF4FF00000C4F202004FF0080119F030
:10D3000001FD9DF8023003F00103DBB2002B02D0D7
:10D310004FF0100201E04FF000029DF8023003F0E0
:10D320000203002B02D04FF0080301E04FF000038E
:10D330001343DAB29DF80330012B0CBF0023012305
:10D34000DBB21343DBB2DBB24FF004001946FFF748
:10D3500041FFBDF80C304FEA13239BB2DBB24FF014
:10D3600005001946FFF736FFBDF80C30DBB24FF071
:10D3700006001946FFF72EFF4FF000038DF80F301F
:10D380001FE0019B002B0FD0019822F0A1FA034669
:10D390001A469DF80F309A4206D39DF80F30019A35
:10D3A000D3181B78DBB201E04FF000034FF0070009
:10D3B0001946FFF70FFF9DF80F3003F101038DF8B9
:10D3C0000F309DF80F209DF803309A42D9D39DF875
:10D3D0000330012B05D04FF007004FF0FF01FFF79E
:10D3E000F9FE4FF00000C4F202004FF0080119F0FE
:10D3F0007DFC05B000BD00BF00B583B04FF0000359
:10D400008DF8073043F23433C2F2000393F8493306
:10D410008DF807304FF00000C4F202004FF0080111
:10D4200019F070FC4FF0A000FFF7BAFE03468DF82C
:10D4300006304FF00000C4F202004FF0080119F06E
:10D4400055FC9DF8063003F00103DBB2002B03D03E
:10D450004FF001038DF807309DF8063003F002030A
:10D46000002B03D04FF000038DF807309DF80730F4
:10D47000002B2AD040F63E03C2F200034FF4F072B4
:10D480001A8040F64003C2F200034FF010021A80E7
:10D4900040F64203C2F200034FF048021A7040F611
:10D4A0004303C2F200034FF04C021A7040F64403EB
:10D4B000C2F200034FF042021A7040F64503C2F276
:10D4C00000034FF040021A7029E040F63E03C2F21A
:10D4D00000034FF4C3721A8040F64003C2F2000307
:10D4E0004FF00D021A8040F64203C2F200034FF0E3
:10D4F00008021A7040F64303C2F200034FF00C0218
:10D500001A7040F64403C2F200034FF002021A7090
:10D5100040F64503C2F200034FF000021A7040F6D5
:10D520004003C2F200031B884FEA53039BB2DAB2F6
:10D5300040F6BE23C2F200031A7040F6BE23C2F2C8
:10D5400000031B781A464FEAC202D3184FEA43037E
:10D55000DBB2A3F14803DAB240F6B923C2F200030A
:10D560001A7040F6BE23C2F200031B781A464FEA37
:10D57000C202D3184FEA4303DBB203F14803DAB225
:10D5800040F6BB23C2F200031A7040F6BE23C2F27B
:10D5900000031B781A464FEAC202D3184FEA43032E
:10D5A000DBB203F10A03DAB240F6B823C2F2000399
:10D5B0001A7040F6BE23C2F200031B781A464FEAE7
:10D5C000C202D3184FEA4303DBB2A3F14803DAB235
:10D5D00040F6BC23C2F200031A7040F6BE23C2F22A
:10D5E00000031B781A464FEAC202D3184FEA4303DE
:10D5F000DBB203F14803DAB240F6BD23C2F2000306
:10D600001A7040F6BE23C2F200031B781A464FEA96
:10D61000C202D3184FEA4303DBB203F10A03DAB2C2
:10D6200040F6BA23C2F200031A7003B000BD00BF77
:10D6300000B583B043F23433C2F2000393F84833A9
:10D64000002B5DD0FFF7D8FE4FF00000C4F20200BF
:10D650004FF0080119F056FB40F64403C2F20003F4
:10D660001B784FF000001946FFF7B4FD4FF00000A3
:10D67000C4F202004FF0080119F038FB4FF4FA70C1
:10D6800002F096F84FF00000C4F202004FF00801DB
:10D6900019F038FB4FF000038DF807300FE09DF8CC
:10D6A000073003F11003DBB218464FF00201FFF719
:10D6B00091FD9DF8073003F101038DF807309DF8C7
:10D6C00007309AB240F64003C2F200031B889A4228
:10D6D000E5D340F64203C2F200031B784FF000008E
:10D6E0001946FFF777FD4FF0640002F061F84FF044
:10D6F0000000C4F202004FF0080119F0F7FA00E050
:10D7000000BF03B000BD00BF00B583B04FF0000004
:10D71000C4F202004FF0080119F0F4FA40F6440395
:10D72000C2F200031B784FF000001946FFF752FDCC
:10D730004FF00000C4F202004FF0080119F0D6FAD1
:10D740004FF4FA7002F034F84FF00000C4F2020017
:10D750004FF0080119F0D6FA4FF000038DF80730AA
:10D760000FE09DF8073003F11003DBB218464FF0CD
:10D770000201FFF72FFD9DF8073003F101038DF83B
:10D7800007309DF807309AB240F64003C2F200031A
:10D790001B889A42E5D340F64203C2F200031B788D
:10D7A0004FF000001946FFF715FD4FF00000C4F2DE
:10D7B00002004FF0080119F099FA03B000BD00BF54
:10D7C00000B583B04FF00000C4F202004FF0080132
:10D7D00019F098FA4FF004004FF00401FFF7FAFC3B
:10D7E0004FF00000C4F202004FF0080119F07EFA79
:10D7F0004FF0010001F0DCFF4FF00000C4F2020026
:10D800004FF0080119F07EFA4FF004004FF00101CB
:10D81000FFF7E0FC4FF005004FF00001FFF7DAFCE6
:10D820004FF006004FF02101FFF7D4FC4FF000034A
:10D830008DF8063035E09DF806304FF007001946A8
:10D84000FFF7C8FC9DF806204AF6AB23CAF6AA23C8
:10D85000A3FB02134FEA13110B464FEA43035B1875
:10D860004FEAC303D31ADBB2172B14D14FF00003D6
:10D870008DF807300BE04FF007004FF00001FFF785
:10D88000A9FC9DF8073003F101038DF807309DF8DE
:10D890000730052BEFD99DF8063003F101038DF811
:10D8A00006309DF80630FF2BC5D14FF007004FF032
:10D8B000FF01FFF78FFC4FF00000C4F202004FF0B1
:10D8C000080119F013FA03B000BD00BF08B500BF8E
:10D8D0004FF0A000FFF764FC034603F02003002B89
:10D8E000F6D108BD00B585B002460B468DF807207D
:10D8F000ADF804304FF00000C4F202004FF0080110
:10D9000019F000FA40F64503C2F200031B784FF00D
:10D9100000001946FFF75EFC9DF807304FF0090044
:10D920001946FFF757FC4FF000038DF80F301BE04E
:10D930009DF80F304FF00A001946FFF74BFCBDF879
:10D9400004209DF80F30D21845F2F003C0F603030F
